:100000000C945F020C94A6020C94A6020C94A60217
:100010000C94A6020C94A6020C94A6020C94A602C0
:100020000C94A6020C94A6020C94651E0C94211E3E
:100030000C94EC240C94A6020C94A6020C94A60238
:100040000C94A6020C94A6020C94A6020C94A60290
:100050000C94A6020C94C8240C94A6020C94A6023C
:100060000C94A6020C94A6020C94A6020C94A60270
:100070000C94A6020C94A6020C94A6020C94A60260
:100080000C94A6020C94A6020C94A6020C94A60250
:100090000C94A6020C94A6020C94A6020C94A60240
:1000A0000C94A6020C94A6020C94A6020631FF0939
:1000B00074A1010975150026FF00952075088102BD
:1000C0000976150026FF00952075089102C00501EC
:1000D0000902A10185020901A100050919012908E8
:1000E00015002501950875018102050109300931C6
:1000F0001581257F95027508810609381581257FB0
:10010000950175088106050C0A38021581257F9531
:100110000175088106C0C005010980A10185031988
:10012000012AB700150126B700950175108100C09E
:10013000050C0901A101850419012AA00215012657
:10014000A002950175108100C00660FF0961A10140
:100150000962150026FF00952075088102096315C4
:100160000026FF00952075089102C005010906A12F
:1001700001050719E029E71500250195087501819A
:10018000029501750881010507190029FF15002650
:10019000FF009506750881000508190129059505D8
:1001A00075019102950175039101C0290A00257519
:1001B000002F002575005D280025640020002564BF
:1001C00000200025640020002564007C00253032DA
:1001D00058006D6F7573656B6579205B62746E7C1A
:1001E000782079207620685D287265702F61636CB5
:1001F000293A205B0000002A005F006000610000D7
:10020000002B005C005D005E000000530059005AA6
:10021000005B00A800B20063726200284100004B3E
:10022000004A0052004D0000004E00500051004FA7
:100230000000005600570054005500AD0012501346
:1002400050AE0001000000700071007200730000E9
:10025000006C006D006E006F000000680069006AAD
:10026000006B0010500100010001000100000001BE
:100270000001000100010000000100010001000177
:100280000000000100010001000100105001000108
:10029000000100010000000000000000000000005C
:1002A000000000000000000000000000000000004E
:1002B0000000000000000000007E0F00D4FFFFFFE0
:1002C000C70000007800000000000000002A2B2872
:1002D000000000000000000000000000000000001E
:1002E00029000000002C1E3420212224342627253A
:1002F0002E362D3738271E1F202122232425263372
:1003000033362E37381F0405060708090A0B0C0D73
:100310000E0F101112131415161718191A1B1C1D85
:100320002F3130232D350405060708090A0B0C0D63
:100330000E0F101112131415161718191A1B1C1D65
:100340002F3130354C44454255473A20646973613A
:10035000626C65642E0A0044454255473A20656E3A
:1003600061626C65642E0A004F6E6573686F743A43
:10037000206163746976653A2025640A000A0025C5
:1003800030325820006B6579626F6172645F72650C
:10039000706F72743A20000A0025303862003A20EB
:1003A0000025303258000A722F6320303132333446
:1003B0003536370A000A0025303258006B657962FD
:1003C0006F6172645F7365745F6C65643A20005B93
:1003D000735D004B6579626F617264207374617242
:1003E000742E0A005B435D005B445D005B535D005F
:1003F0005B575D005B525D0009027B00040100A0B9
:10040000FA090400000103010100092111010001A2
:100410002240000705810308000A090401000203C5
:1004200000000009211101000122220007058203BA
:100430002000010705030320000109040200010355
:10044000000000092111010001227B00070584033F
:1004500020000A0904030002030000000921110121
:10046000000122220007058503200001070505037E
:10047000200001120110010000000853A1BEF3107A
:1004800000010200011A03440075006D0062005073
:1004900000610064002000560031002E0031000091
:1004A00000160369006D0063006800690070007742
:1004B000006F006F006400000004030904001124B1
:1004C0001FBECFEFDAE0DEBFCDBF04B603FE27C00C
:1004D0008091350290913602A0913702B091380296
:1004E0008730904BA740B04BD1F410923502109258
:1004F0003602109237021092380214BE84B7877FFA
:1005000084BF0FB6F894A8958091600088618093AD
:100510006000109260000FBEE0E0F8E3099511E082
:10052000A0E0B1E0E2EEFBE402C005900D92AA3635
:10053000B107D9F722E0AAE6B1E001C01D92A533C8
:10054000B207E1F70E94921F0C94B8250C940000AA
:10055000FF93EF93E0916A01F0916B01309709F0FE
:100560000995EF91FF910895FC018591803011F07C
:10057000EFDFFBCF0895FF27E0E230E247FF0CC03A
:10058000419597FF09C0EDE2609570958095909533
:10059000611D711D811D911D27FF02C0219530E352
:1005A00050E2AA27660F771F881F991FAA1FA4175A
:1005B00010F0A41B63955A95A9F7AA3008F0A95F1B
:1005C000A05DAF93F395611571058105910541F724
:1005D000ED3211F4EF93F395F21718F43F93F3957E
:1005E000FBCF8F91B5DFFA95E1F70895E991F99185
:1005F0008591803021F0853219F0AADFF9CF089576
:1006000020E0E89455915532C1F3503311F46894C9
:1006100055915A3348F4505390F3220F022E220F73
:10062000220F200D250FF4CF0EF421958991999179
:10063000533619F3533729F1533559F1BC01882743
:100640009927E8945C3621F48991999168945591A1
:10065000543639F446EF7EF077FF0DC08FEF9FEFF1
:100660000AC055374AE039F0583540E121F052369A
:1006700042E009F00895FF93EF937DDFEF91FF9142
:10068000B7CFFF93EF93FC0181918030B9F360DF26
:10069000FBCFFF93EF9368DFF1CFDF93CF93CDB71D
:1006A000DEB72596A3DFCF91DF910895E8EDF0E066
:1006B00080818E7F80831092E2001092DA00109287
:1006C000E100A0EEB0E08C9181608C9380818F7707
:1006D000808319BCA7EDB0E08C918E7F8C938081D4
:1006E0008F7E80831092170208952091E40030914C
:1006F000E50095E6A9012091EC00822F817020FF92
:1007000006C08091E80080FF06C080E00895209137
:10071000E80022FD1AC080912402882389F08530E8
:1007200089F08091EB0085FD0FC02091E4003091AD
:10073000E50042175307F9F29150E1F684E008957D
:1007400082E0089583E0089581E00895EF92FF929A
:100750000F931F93CF937C018B010E947503C82FC9
:10076000811117C08091E80085FD0BC08091E800E1
:100770008E778093E8000E947503882399F3C82F31
:1007800008C0F70181917F018093F10001501109A8
:1007900049F78C2FCF911F910F91FF90EF90089503
:1007A0008091260287FF13C08091E80082FF06C077
:1007B0008091E8008B778093E80004C08091240248
:1007C0008111F2CF0895809124028823D9F380917A
:1007D000E80080FFF8CF8091E8008E77ECCF982F6B
:1007E0009093E900242F762F50E0891731F0709113
:1007F000EC002091ED005091F00021FD07C09F5FBB
:10080000973071F78093E90081E008953091EB0013
:100810003E7F3093EB003091ED003D7F3093ED0053
:100820003091EB0031603093EB007093EC0020933B
:10083000ED005093F0002091EE0027FDE0CF80E026
:100840000895CF92DF92EF92FF920F931F93CF9371
:10085000DF93C8EDD0E088818F7E8883E7EDF0E0FC
:1008600080818160808384E082BF81E08093170271
:1008700088818E7F888302EE10E0F801108210924A
:10088000DA0081EEC82ED12CF601108288818F7794
:10089000888388818068888388818F7D888319BC5C
:1008A000109224021092250210922302109222022A
:1008B00090EEE92EF12CF70180818B7F8083888177
:1008C0008160888342E060E080E00E94EF03F601EF
:1008D00080818E7F8083F801808181608083808128
:1008E00088608083F70180818E7F8083888180612A
:1008F0008883DF91CF911F910F91FF90EF90DF9050
:10090000CF900895FC0180912C0290912D028617C2
:100910009707A0F06115710529F49091E8009E7782
:100920009093E80090E06115710551F4911108C0B1
:100930008091E80082FF34C080E00895BC01F2CFCE
:10094000809124028823C1F18530C1F18091E800B3
:1009500083FD30C08091E80082FDEACF8091E800FD
:1009600080FFE1CF8091F3002091F200382F6115D4
:10097000710519F02830310558F091E02830310523
:1009800009F090E02091E8002E772093E800CBCF8B
:1009900081918093F100615071092F5F3F4FE7CF44
:1009A00080912402882341F0853041F08091E80055
:1009B00083FFBECF81E0089582E0089583E008952B
:1009C00080911902089587E797E790930108809333
:1009D000000888E19AE00FB6F894A895809360002B
:1009E0000FBE90936000FFCF9C014FB7F8948091A9
:1009F000110290911202A0911302B09114024FBF04
:100A0000821B930B08952FB7F89480911102909157
:100A10001202A0911302B09114022FBF08959C01FD
:100A2000FC0132969FEF80E04191461751F09F3FC5
:100A300019F4411101C0982F8F5F8630A9F79F3FAD
:100A400009F40895290F311D97FD3A95F901628344
:100A500008958091E90181111092E9010895E92F2B
:100A6000EE0FEE0F9E0F890F982F97708695869543
:100A7000869525E0829FF0011124EA52FE4F50E056
:100A800040E080E0219130E0092E02C036952795A4
:100A90000A94E2F721703327042E01C0220F0A9432
:100AA000EAF7822B4F5F5F4F4530510559F70895A4
:100AB000E92FEE0FEE0F9E0F890F982F977041E0F0
:100AC00001C0440F9A95EAF786958695869595E03C
:100AD000899FF0011124EA52FE4F30E020E070E0DF
:100AE0005191DF011197CB01022E02C09695879597
:100AF0000A94E2F7817081958527842385278C935A
:100B00002F5F3F4F2530310559F708958091D5016A
:100B10009091A401981301C008958F5F8770FACF58
:100B20002091790130917A012817390771F090935B
:100B30007A0180937901E091F501F091F601309707
:100B400021F00084F185E02D09940895209177012A
:100B5000309178012817390771F0909378018093CC
:100B60007701E091F501F091F601309721F00680D0
:100B7000F781E02D09940895E091F501F091F601D7
:100B8000309721F00190F081E02D099480E00895E4
:100B900040910302803F59F48091040287FF0DC009
:100BA0001092040241110BC01092FE0108C0813F57
:100BB00081F48091040218169CF3442381F0809103
:100BC000050290910602892B09F05AC01092FB0190
:100BD0000895823F49F447FFF0CF109203028091BD
:100BE00004028111ECCFE0CF833F19F41416ACF36B
:100BF000E4CF90910502893F29F41916F4F610927A
:100C00000502DBCF8A3F19F497FFD7CFF8CF909139
:100C100006028B3F29F497FFD0CF10920602CDCF6A
:100C20008C3F19F41916CCF3C8CF9CE0980F95307F
:100C300090F4845F990B21E030E0B90102C0660FA7
:100C4000771F8A95E2F7CB01809590910202892364
:100C500080930202B2CF8D3F31F480919D018E7F4F
:100C600080939D01AACF8E3F21F480919D018D7FBD
:100C7000F7CF8F3F09F0A1CF80919D018B7FF0CFFF
:100C8000089580919D0180FD16C081FD16C082FDF2
:100C900016C08091FB018823A1F0883280F428E0FF
:100CA000829FC001112468E270E00E941F25862FF8
:100CB000672B39F0089582E0089584E0089588E074
:100CC000089581E0089580919D0180FD14C081FD0B
:100CD00014C082FD16C08091FE01882381F084310A
:100CE00080F422E3829FC001112464E170E00E943D
:100CF0001F25862F08958CE0089589E1089585E0E9
:100D0000089582E30895803F31F40E94630681953F
:100D1000809304020895813F19F40E946306F8CF7E
:100D2000823F31F40E946306819580930302089507
:100D3000833F19F40E946306F8CF893F29F40E948B
:100D400041068093050208958A3F21F40E944106DE
:100D50008195F7CF8B3F31F40E94410681958093B6
:100D6000060208958C3F19F40E944106F8CF9CE0DA
:100D7000980F953070F4845F990B21E030E001C04A
:100D8000220F8A95EAF780910202822B8093020259
:100D900008958D3F31F480919D01816080939D0184
:100DA00008958E3F21F480919D018260F7CF8F3F9F
:100DB000B9F780919D018460F1CFF894E82FE29516
:100DC000EF70F0E031A1282F2F7081E090E001C09A
:100DD000880F2A95EAF7982F9095932391A392A1D3
:100DE000892B82A3789408959091EF0192FF06C019
:100DF000282F28712830F9F4877F846093FF06C07C
:100E0000282F28712831F1F4877E84612091F00128
:100E100020FF06C0382F38713830D9F4877F8160C1
:100E200021FF06C0282F28712831D1F4877E8161E7
:100E300094FD877E0895282F24712430F9F68B7F46
:100E40008860DCCF282F2471243101F78B7E8861E4
:100E5000DDCF382F3171313019F78E7F8860E0CFC8
:100E6000282F2171213121F78E7E8861E1CF80FD0D
:100E700002C02B9A08952B980895829590E09C01CA
:100E8000220F331F220F331F2C7C95958795959544
:100E900087958373282B30E0C901880F991F8A7AC0
:100EA000359527952575822B0895CF92DF92EF9285
:100EB000FF926C01EE24FF2420E0C114D104E10470
:100EC000F10419F0C701B60120E1C72ED82EE92E92
:100ED000FF24C114D104E104F10419F0285FC70113
:100EE000B6016B017C0154E0F694E794D794C79463
:100EF0005A95D1F7C114D104E104F10419F02C5F23
:100F0000C701B6016B017C0142E0F694E794D794E7
:100F1000C7944A95D1F7C114D104E104F10419F042
:100F20002E5FC701B6019695879577956795672BD4
:100F3000682B692B09F02F5F822FFF90EF90DF90D5
:100F4000CF900895CF92DF92EF92FF926B017C01D8
:100F50000E94550780FF0BC02E9A81FF0AC0299A74
:100F6000C701B601FF90EF90DF90CF9008952E98C3
:100F7000F4CF2998F5CFCF9384E090E00E947625B6
:100F8000C82F82E290E00E947625982F8C2FCF9177
:100F900008950F931F93CF93DF93C42FD0E0CC0F0E
:100FA000DD1F2AE0629FC00DD11D112438E2839F0E
:100FB000C00DD11D1124CE0187960E947625082FE1
:100FC00010E0102F0027CE0188960E947625980108
:100FD000282BC901DF91CF911F910F910895462FC2
:100FE000843038F4743028F4653018F4672F0C948A
:100FF000C90790E080E00895CF93DF930E94EF0748
:10100000EC0182389105A9F1D8F58133910509F4F5
:1010100096C048F58932910509F48AC08A9709F487
:1010200095C0C11521E5D20708F0BCC0C11530E557
:10103000D30708F014C1C83ED10508F09CC0C03EDB
:10104000D10560F5C83AD10508F087C0C53AD10589
:1010500008F0FDC0C130D10509F12097F9F0C43086
:10106000D105E0F440C08533910509F45AC0C99711
:10107000C1F68091EF01837089F0C0EED0E00EC020
:10108000833E910599F170F4803E910501F1823E15
:10109000910539F68091EF0182FD21C0CE01DF91EB
:1010A000CF910895863E910561F1873E910571F1DA
:1010B000843E910509F0B5CF8091F00181FFEECF1C
:1010C0008091EF01C7EED0E084FD0DC0E7CF8091A5
:1010D000EF0180FD12C19091F00190FFDFCFC3EED0
:1010E000D0E084FFDBCFD0E0C0E0D8CF8091EF012B
:1010F00082FD06C19091F00190FDBFCF84FFCECF5D
:10110000F2CF8091EF0183FDDDCFC8CF8091EF0159
:1011100083FDF9C09091F00191FFF0CFC4EED0E0D3
:10112000BDCF8091EF0185FFB9CFC9E2D0E0B6CF46
:101130008091EF0185FFB2CFC5E3D0E0AFCF8091C2
:10114000EF0186FFABCFCAE2D0E0A8CF8091EF01DC
:1011500086FFA4CFC1E3D0E0A1CFCF3BD10518F6E5
:10116000C85AD0E0CC0FDD1FC25FDE4F0990D88196
:10117000C02DD46493CFC11540E2D40758F4C115F3
:1011800081E0D80708F08ACFC03FD10508F4ABCF83
:10119000D06584CFC11590E4D90708F4A4CFDF70DF
:1011A000D06A7CCFC11525E5D20700F5C11534E51D
:1011B000D30708F08AC0C11543E5D40708F071C011
:1011C000C11582E5D80708F467C0CE01837099275E
:1011D00021E030E002C0220F331F8A95E2F7C69566
:1011E000C69580E2C89FE001112452C0C11599E55F
:1011F000D907A8F4C11528E5D20708F06BC0C115BE
:1012000036E5D30708F06FCF8C2F0E94F406C82F65
:10121000D0E0DC2FCC27CC27DF71D0623FCFC115C7
:101220004AE5D40708F45BC0CE0190568115904280
:1012300008F059CF8D2F8F710E94F40690E0982FFF
:10124000882788279F719C012C2BE901E6CFC55A7E
:10125000D0E0C55FDE4FC881D0E0D0641FCFCE01A3
:10126000E4E096958795EA95E1F783702C2F269513
:101270002695237040E2249F90011124382B8C2F57
:101280008370C1E0D0E002C0CC0FDD1F8A95E2F789
:10129000C22BD32BDC6802CFDC2FCC27C16FD06AE6
:1012A000FDCECE018370992721E030E002C0220FED
:1012B000331F8A95E2F7C695C69590E2C99FE00173
:1012C0001124C22BD32BDA68E9CEDC2FCC27C46FD4
:1012D000D06AE4CEDC2FCC27C06FD06ADFCE8C2F53
:1012E0008F700E94F40634E0D695C7953A95E1F7E1
:1012F000CF709C2FEC01D069D1CEC9E3D0E0CECE27
:10130000C2EED0E0CBCEC6EED0E0C8CEBF92CF9238
:10131000DF92EF92FF920F931F93CF93DF938C0195
:10132000C0903102D0903202E0903302F09034024B
:101330008091EA019091EB01A091EC01B091ED0157
:10134000C82AD92AEA2AFB2ACFE1D0E0BC2ED7014D
:10135000C6010C2E04C0B695A795979587950A945B
:10136000D2F780FD0EC0219788F7B12C8B2DDF912D
:10137000CF911F910F91FF90EF90DF90CF90BF9092
:101380000895B8018C2F0E94FC07019761F3EECFFE
:10139000CF93DF93EC010E948609BE01DF91CF91CC
:1013A0000C94FC070E94C809292F2F7092959F70FA
:1013B00092509E3078F4E92FF0E0E654FA4D0C9408
:1013C0003325803F19F020F4883E20F481E0089511
:1013D000843FE1F380E00895883EC0F3813FD1F778
:1013E000F5CF822F86958695869508956F927F9288
:1013F0008F929F92AF92BF92CF92DF92EF92FF9225
:101400000F931F93CF93DF9385EFC82E81E0D82EE3
:1014100099E5E92EF12CE701A89736011BC0F501EB
:1014200085909490692DC8010E948425682DC8017B
:1014300001960E94842582E0A80EB11C0E5F1F4F0A
:10144000C017D10761F78AE0680E711C2A96CE1585
:10145000DF0529F08E010A5011095301E0CF7E010A
:1014600088E2E80EF11C88E2C80ED11C89EFE8166C
:10147000F10489F6DF91CF911F910F91FF90EF90CA
:10148000DF90CF90BF90AF909F908F907F906F90A4
:101490000895CF93DF93C7ECD0E060E0CE010E94C7
:1014A00084252196C11584E0D807B9F7DF91CF9143
:1014B0000895EF92FF920F931F93CF93DF93809144
:1014C000E8019091E701892B9091E601892B8093A7
:1014D0006C019091E901992391F0892B80936C0123
:1014E00020E08EE691E0FC013191CF0131112F5FB8
:1014F000F1E084379F07B9F721110E942905E09197
:10150000F501F091F6013097C9F10280F381E02DE9
:101510008CE691E009958091080282FF2FC080FF40
:1015200004C085E893E00E94B402CCE6D1E084E7F1
:10153000E82E81E0F82E0FE713E08091080280FF8B
:101540000BC088811F928F931F930F930E944D03AE
:101550000F900F900F900F902196EC16FD0669F7F3
:101560008091080280FF0AC08DE793E0DF91CF9160
:101570001F910F91FF90EF900C94B402DF91CF91E7
:101580001F910F91FF90EF900895882341F080956F
:101590009091E80189238093E8010C94590A0895F9
:1015A000882339F09091E801982B9093E8010C94EE
:1015B000590A0895CF93DF93D82FC091F001C2FB51
:1015C000882780F98D17F9F0D0FBC2F9C093F0019C
:1015D0006091EF0184E090E00E9484256C2F82E20C
:1015E00090E00E9484258091080280FF0CC01F9229
:1015F000DF9388E693E09F938F930E944D030F90B3
:101600000F900F900F90DF91CF9108958091080275
:1016100083FF7EC082ED91E00E94B40280910202BD
:101620001F928F938DEC91E09F938F930E944D03B7
:101630008BEC91E00E94B40280910302282F082EC7
:10164000000C330B3F938F9388EC91E09F938F9323
:101650000E944D0386EC91E00E94B4028091040246
:10166000282F082E000C330B3F938F9383EC91E0CF
:101670009F938F930E944D0381EC91E00E94B402EE
:1016800080910502282F082E000C330B3F938F9377
:101690008EEB91E09F938F930E944D038CEB91E032
:1016A0000E94B40280910602282F082E000C330BF2
:1016B0003F938F9389EB91E09F938F930E944D030B
:1016C00086EB91E00E94B4028091FE011F928F93FD
:1016D00083EB91E09F938F930E944D0381EB91E008
:1016E0000E94B40280919D011F928F938EEA91E037
:1016F0009F938F930E944D038BEA91E00E94B40266
:101700008DB79EB74C960FB6F8949EBF0FBE8DBF97
:101710000E9403059C019091030280910402982B82
:1017200021F0309300022093FF01909105028091F7
:101730000602982B21F03093FD012093FC01E091EB
:10174000F501F091F601309749F082E080930102B3
:101750000480F581E02D81E092E00994089590E005
:1017600080E00E94A60590E080E00E949005109223
:10177000E7011092E6010E94590A86E0E1E0F2E0FA
:10178000DF011D928A95E9F71092FE011092FB018C
:1017900010929D010C94060B0E94A20760933102E7
:1017A0007093320280933302909334020C94AF0B07
:1017B0000F931F9360913102709132028091330236
:1017C000909134028B019C01067011272227332748
:1017D000063011052105310529F468601F910F912C
:1017E0000C94CC0B677FFACF0F931F9341E050E02E
:1017F00060E070E004C0440F551F661F771F8A9594
:10180000D2F7CB01BA0160957095809590950091C3
:101810003102109132022091330230913402602360
:101820007123822393231F910F910C94CC0B9091E1
:10183000E501809589238093E501282F277039F4ED
:10184000282F082E000C330B9217130621F49091C9
:10185000F00192FF07C08595859585950E94F40B50
:101860001092E50108950F931F9341E050E060E06E
:1018700070E004C0440F551F661F771F8A95D2F78A
:101880008091310290913202A0913302B0913402E2
:101890008A019B01082B192B2A2B3B2BC901B8016C
:1018A0001F910F910C94CC0B6093EA017093EB01A4
:1018B0008093EC019093ED010C94AF0B8823F1F130
:1018C0009CEF980F913A78F4EEE6F1E024E731E0EE
:1018D0009191891303C0DF0111971C922E173F07C6
:1018E000B9F70C94590A90E2980F983088F48770F1
:1018F00021E030E0A90102C0440F551F8A95E2F7AC
:10190000CA0180959091E80189238093E801E9CF8D
:101910009BE5980F933020F490E080E00C94A605AE
:1019200098E5980F973120F490E080E00C949005B2
:10193000803F20F00E94C8050C94060B0895CF93B9
:10194000C82F882309F456C08CEF8C0F813AF8F425
:10195000EEE6F1E084E791E0DF012D91C21759F046
:101960008A179B07D1F76C2F8CE691E00E940F0538
:10197000CF910C94590A2191C21303C0DF01119732
:101980001C928E179F07B9F70E94590AECCF80E28C
:101990008C0F883068F4C77021E030E001C0220F5E
:1019A000CA95EAF78091E801822B8093E801E0CFA5
:1019B000EBE5EC0FE33040F4F0E0E55FFE4F8081B3
:1019C00090E0CF910C94A605E8E5EC0FE73150F4D8
:1019D000F0E0EE0FFF1FE25FFE4F80819181CF911B
:1019E0000C949005C03F30F08C2F0E948306CF915D
:1019F0000C94060BCF9108959FB7F894109215029E
:101A00009FBF90912402943009F048C02091E900D2
:101A10002F703091EC00932F917030FD90E8922B55
:101A200025E02093E9002091EB0020FF34C02091B5
:101A3000EE0027FF30C02091EE01222321F02091FB
:101A4000E80025FF28C01092EE0126E03091E80062
:101A500035FF14C08093F1008091E80085FD27C018
:101A60008091E80080FFFCCF8091E8008E77809322
:101A7000E8009F709093E90080E00895309124027F
:101A8000343049F43091EB0035FD05C0215041F46C
:101A900081E08093EE019F709093E9008FEF0895AD
:101AA000EFE9FFE03197F1F700C00000CFCF8FB72B
:101AB000F89421E0209315028FBFDBCFCF93DF9303
:101AC00000D00F92CDB7DEB790912402943011F57B
:101AD00089837B836A839093E9008FEF9091E8007C
:101AE000815095FD06C095ED9A95F1F700008111A2
:101AF000F5CF8091E80085FF0DC050E040E063E045
:101B000070E0CE0101960E94A6038091E8008E77D6
:101B10008093E8000F900F900F90DF91CF91089580
:101B2000BC0184E00C945E0DBC0183E00C945E0D5E
:101B30009C0184E08093E9009FEF8091E800915040
:101B400085FD06C085ED8A95F1F700009111F5CF6E
:101B50008091E80085FF0CC050E040E066E070E056
:101B6000C9010E94A6038091E8008E778093E80067
:101B70000895CF93DF93EC0181E08093E9008FEF2C
:101B80009091E800815095FD06C095ED9A95F1F78A
:101B900000008111F5CF8091E80085FF14C050E06E
:101BA00040E068E070E0CE010E94A6038091E8006A
:101BB0008E778093E80088E0FE01AAE1B2E0019010
:101BC0000D928A95E1F7DF91CF9108951F93CF93FE
:101BD000DF93182FD0E0C0E0893311F4C0E5D0E0E6
:101BE000812F0E949F0C209731F4812FDF91CF919C
:101BF0001F910C945E0C8FE99FE00197F1F700C0F4
:101C000000002197F0CF0F931F93CF93DF93C62F40
:101C1000D42F022FFC0182818823A1F0609330022F
:101C20000E94030590932F0280932E02C77081E0DB
:101C300001C0880FCA95EAF7DF91CF911F910F91EC
:101C40000C94D00A80913002681335C080912E0226
:101C500090912F020E94F404883C910560F510E2F7
:101C60001D0FCD17B9F080E28C0F883040F4C7709B
:101C700081E001C0880FCA95EAF70E94C50A1830B2
:101C800048F481E09D2F977001C0880F9A95EAF77C
:101C90000E94D00A802F0E94E60D183098F4D77069
:101CA00081E001C0880FDA95EAF7DF91CF911F91AB
:101CB0000F910C94C50AC77081E001C0880FCA95C6
:101CC000EAF7F3CFDF91CF911F910F910895CF9253
:101CD000DF92EF92FF920F931F93CF93DF93CCE3AA
:101CE000D1E081EFE82E81E0F82ED12C01E010E068
:101CF0008991F894E82FE295EF70F0E021A18F70C0
:101D0000A80102C0440F551F8A95E2F7CA01922F1D
:101D1000982B91A392A18095892382A3789400C0E7
:101D2000E0E4F1E030E020E0C12C4191A42FA29545
:101D3000AF70B0E090968C9190E04F7002C0959596
:101D400087954A95E2F780FD49C0802F022E01C099
:101D5000880F0A94EAF7C82A2F5F3F4F25303105D4
:101D600021F7FE01319780810E94DD0650EA5A95E5
:101D7000F1F7F7018081C81699F1C08281E0D82A75
:101D8000FFEFEF1AFF0A41E0C034D40709F0B0CFEB
:101D9000DD2041F181E0809376010E94030590935C
:101DA00075018093740180917401909175010E9476
:101DB000F4040697D8F08091F10180930D02809190
:101DC000F20180930E028091F30180930F028091C3
:101DD000F401809310021092760108C080E0BBCF1E
:101DE00080E0CDCF809176018111DDCF8D2DDF9107
:101DF000CF911F910F91FF90EF90DF90CF900895BA
:101E00006AEE7EEF90E080E00E94A22560E082E032
:101E100090E00E94842560E083E090E00E948425A9
:101E20001092EA011092EB011092EC011092ED0178
:101E300060E084E090E00E94842560E082E290E02F
:101E40000E94842560E085E090E00E94842560E0A7
:101E500086E090E00E9484256FEF87E090E00E948A
:101E6000842540E050E0BA0188E090E00E94962589
:101E700060E08DE090E00E94842540E050E0BA01EF
:101E800088E190E00E94962560E087E190E00E9462
:101E9000842540E050E0BA018CE190E00E94962554
:101EA00070E060E080E290E00E94A22540E050E017
:101EB000BA0188E190E00E94962540E050E0BA0126
:101EC0008FE090E00E94962540E050E0BA0183E167
:101ED00090E00C9496251092E801EEE6F1E086E0A1
:101EE000DF011D928A95E9F70C94AF0B1F93CF93F6
:101EF000DF93CDB7DEB7AA970FB6F894DEBF0FBE5B
:101F0000CDBF86E292E02091F100DC012D93CD015E
:101F1000B2E08E329B07B9F780912702833009F433
:101F200071C0B8F4813009F448C0823009F4B2C0FD
:101F30008091E80083FF3AC18091260290912702A8
:101F40009A3008F033C1E92FF0E0E853FA4D0C94D1
:101F500033258A3009F48DC08B3009F470C0893084
:101F600039F780912602813219F780912A029091E7
:101F70002B02009711F00297D9F68091E800877F35
:101F80008093E8008091E80082FF37C09091F300D1
:101F90008091F200029729F48091F1008B7F8130CB
:101FA00021F48091F100809319028091E8008B77F1
:101FB0008093E8000E94D003BBCF80912602813A33
:101FC00009F0B6CF8091E800877F8093E800809188
:101FD0002A0290912B02892B61F468E08AE192E059
:101FE00070E00E9482048091E8008B778093E80083
:101FF0009FCF60E090E080E0F3CF809124028111D8
:10200000C1CF96CF80912602813A09F091CF80917D
:102010002A0290912B02892B09F08ACF8091E80047
:10202000877F8093E8008091E80080FFFCCF80915B
:102030000A018093F1008091E8008E77B9CF8091FA
:102040002602813209F074CF80912A0290912B02EE
:10205000892B09F06DCF8091E800877F8093E8009D
:102060000E94D0038091280280930A010E946B0F86
:102070005FCF80912602813209F05ACF8091E8002B
:10208000877F8093E8000E94D0038091290280938B
:1020900018024ECF80912602813A09F049CF8091F3
:1020A000E800877F8093E8008091E80080FFFCCF04
:1020B00080911802BECF803899F0823809F076C03E
:1020C00080912A028F70873008F070C08093E900F9
:1020D0008091EB0085FB882780F91092E90006C00B
:1020E0008091220290912302911182609091E800E8
:1020F000977F9093E8008093F1001092F100809117
:10210000E8008E77BAC1882309F4A7C1823009F0AC
:102110004DC0809128028111ABC180912A028F703D
:102120002FEF280F263008F041C08093E90020915E
:10213000EB0020FF9DC1933031F48091EB00806271
:102140008093EB0095C19091EB0090619093EB0030
:1021500021E030E001C0220F8A95EAF72093EA00DF
:102160001092EA008091EB008860EACF81111EC0D6
:10217000109128021F778091E3008078812B809353
:10218000E3008091E800877F8093E8000E94D003FD
:102190008091E80080FFFCCF8091E300806880930D
:1021A000E30082E0111183E0809324028091E80033
:1021B00083FF0AC08091E800877F8093E8008091C8
:1021C000EB0080628093EB00AA960FB6F894DEBF16
:1021D0000FBECDBFDF91CF911F91089580588230FF
:1021E00028F720912802309129022C3DE3E03E0798
:1021F000A1F583E08A838AE289834FB7F894DE01F0
:10220000139620E03EE051E2E32FF0E050935700B8
:10221000E49120FF03C0E295EF703F5FEF708E2FD7
:1022200090E0EA30C0F0C7968D939D932F5F2431E4
:1022300059F74FBF8091E800877F8093E8006AE2FA
:1022400070E0CE0101960E9482048091E8008B77B5
:102250008093E800ABCFC096E7CF80912A0290919F
:102260002B02432F55274330510509F44AC078F516
:102270004130510509F47AC08BE790E0E8EFF3E0D4
:102280004230510509F092CF2091E800277F20933A
:10229000E80020912C0230912D028217930708F458
:1022A0009C0140E02115310509F065C0411163C072
:1022B0008091E80082FDC9CF80912402882329F211
:1022C000853019F28091E80083FFF2CFBECF413212
:1022D000510509F43CC04232510509F067CF843002
:1022E000910508F063CFFC01EE0FFF1FE75AFE4F88
:1022F0000190F081E02D8B5A9E4FDC018C9190E093
:102300001AC0332721303105D1F02115310561F094
:102310002230310509F04ACFE5E8F4E0E4918E2F50
:1023200090E0E5E8F4E007C0E9EBF4E0E4918E2FFB
:1023300090E0E9EBF4E0009709F438CFA5CFE1EAAB
:10234000F4E0E4918E2F90E0E1EAF4E0F4CF843001
:10235000910508F02BCF880F991FFC01EF59FE4F14
:102360000190F081E02D89E090E08ECF82E190E055
:10237000E3E7F4E089CF80912402882309F465CF54
:10238000853009F462CF8091E80083FD5ECF8091B3
:10239000E80082FD8DCF8091E80080FF83CF90918F
:1023A000F3008091F2002115310519F08830910574
:1023B00050F041E0089709F040E08091E8008E7706
:1023C0008093E8006FCF44914093F1003196215003
:1023D00031090196E8CF803809F0E8CE8091E80015
:1023E000877F8093E800809125028093F10087CE5B
:1023F0008111DCCE10912802123008F0D7CE8091E6
:10240000E800877F8093E800109325020E94D003A4
:10241000112311F084E005C08091E30087FDFACF1D
:1024200081E08093240242E061EC81E00E94EF03AE
:1024300042E261EC84E00E94EF0342E261EC82E060
:102440000E94EF0342E260EC83E00E94EF0342E26D
:1024500061EC85E00E94EF03A9CE809128028130D3
:1024600009F0A4CE81E0933009F080E0809323024C
:102470001092E9008091E800877F8093E8000E9435
:10248000D00394CE2F923F924F925F926F927F92A1
:102490008F929F92AF92BF92CF92DF92EF92FF9274
:1024A0000F931F93CF93DF9300D000D000D00F92F3
:1024B000CDB7DEB73C01DC0113968D919C9114974A
:1024C000892B41F08C9111969C9189238F3F11F0BB
:1024D0000C94CD1A27960FB6F894DEBF0FBECDBF71
:1024E000DF91CF911F910F91FF90EF90DF90CF90F0
:1024F000BF90AF909F908F907F906F905F904F9024
:102500003F902F9008950E948609182F682F898187
:102510009A810E94580569817A81812F0E94EF0774
:10252000FC01815095454F018F3F910510F4B5E5B1
:102530009B26D30112968C91882309F4E2C2BFEF47
:102540008B169104B1F1A8F12AE282162DE59206CC
:1025500021F010929B014F0175C080919B0191E089
:10256000892780939B018091E501877009F4B2CFA0
:10257000D30112968C91882309F4ACCF82E0279680
:102580000FB6F894DEBF0FBECDBFDF91CF911F9184
:102590000F91FF90EF90DF90CF90BF90AF909F9002
:1025A0008F907F906F905F904F903F902F900C9402
:1025B000170C80919B01882309F438C110929B016C
:1025C00030EC8316910408F089C080E888169104E5
:1025D00008F0F6C090E48916910408F0BBC021E031
:1025E00030E040E050E060E070E080E090E0082DF6
:1025F0000E944025E0917B012E2BE0917C013E2B37
:10260000E0917D014E2BE0917E015E2BE0917F01F8
:102610006E2BE09180017E2BE09181018E2BE09169
:1026200082019E2B20937B0130937C0140937D019E
:1026300050937E0160937F017093800180938101AC
:1026400090938201C40182519F45409708F077C75B
:102650008FEF93E00E9476250EEE080D57ECA52E25
:10266000B12C811180CF0111D6C21C821B8244245F
:1026700043944AE0342E85010F5F1F4FC5010E942D
:10268000762589831A82882309F46DCF9FEF980FEE
:10269000933008F0CFC28A834982E2E0AE0EB11CCB
:1026A000C8010E9476258B83882309F45CCF8E01B4
:1026B0000F5F1F4FD8012C912223E9F2213009F03E
:1026C000F3C211969C91119712968C91913009F05A
:1026D000B3C20E5F1F4F0E94E60DB4C2AFEF8A1661
:1026E000910411F008F07BCF21E030E040E050E0B1
:1026F00060E070E080E090E08401005C11090E94DD
:102700004025E09193012E2BE09194013E2BE09126
:1027100095014E2BE09196015E2BE09197016E2B77
:10272000E09198017E2BE09199018E2BE0919A0126
:102730009E2B2093930130939401409395015093E5
:1027400096016093970170939801809399019093FB
:102750009A0178CF21E030E040E050E060E070E0A6
:1027600080E090E08401005411090E944025E0912E
:1027700083012E2BE09184013E2BE09185014E2BAD
:10278000E09186015E2BE09187016E2BE09188013C
:102790007E2BE09189018E2BE0918A019E2B209364
:1027A00083013093840140938501509386016093A7
:1027B0008701709388018093890190938A0142CFA9
:1027C00021E030E040E050E060E070E080E090E048
:1027D0008401005811090E944025E0918B012E2BA5
:1027E000E0918C013E2BE0918D014E2BE0918E010A
:1027F0005E2BE0918F016E2BE09190017E2BE0919A
:1028000091018E2BE09192019E2B20938B013093AE
:102810008C0140938D0150938E0160938F017093D2
:10282000900180939101909392010CCFB0E48B16AC
:10283000910408F06EC0A0917B01B0917C01509092
:102840007D0140907E0130907F0120908001209199
:1028500081012E83309182013F8321E030E040E00E
:1028600050E060E070E080E090E0082D0E9440259C
:10287000A22EAA22B32EBB22C42EC520D52ED42030
:10288000E62EE320F72EF2200E8108231F81192364
:102890000E94592509F05FCE80EC8816910408F05B
:1028A0009AC090E88916910408F0FBC0E0E48E1607
:1028B000910408F0C6C021E030E040E050E060E064
:1028C00070E080E090E0082D0E9440252095309532
:1028D0004095509560957095809590952A233B235F
:1028E0004521542163217221AE818A23BF819B231C
:1028F00020937B0130937C0140937D0150937E01B6
:1029000060937F0170938001809381019093820195
:102910002ACE80E888169104F0F4A0918301B0914A
:10292000840150908501409086013090870120906D
:102930008801909189019E8320918A012F8321E053
:1029400030E040E050E060E070E080E090E0840142
:10295000005411098BCF30EC83169104F0F4A09150
:102960008B01B0918C0150908D0140908E01309080
:102970008F0120909001809191018E83909192011E
:102980009F8321E030E040E050E060E070E080E0D4
:1029900090E084010058110969CFA0919301B09192
:1029A00094015090950140909601309097012090AD
:1029B0009801209199012E8330919A013F8321E063
:1029C00030E040E050E060E070E080E090E08401C2
:1029D000005C11094BCFFFEF8F16910411F008F046
:1029E0006ACF8401005C110921E030E040E050E052
:1029F00060E070E080E090E00E94402520953095F6
:102A00004095509560957095809590952A233B232D
:102A10004521542163217221EE818E23FF819F2362
:102A20002093930130939401409395015093960124
:102A300060939701709398018093990190939A0104
:102A400092CD84010054110921E030E040E050E0D3
:102A500060E070E080E090E00E9440252095309595
:102A60004095509560957095809590952A233B23CD
:102A70004521542163217221EE818E23FF819F2302
:102A80002093830130938401409385015093860104
:102A900060938701709388018093890190938A01E4
:102AA00062CD84010058110921E030E040E050E09F
:102AB00060E070E080E090E00E9440252095309535
:102AC0004095509560957095809590952A233B236D
:102AD0004521542163217221AE818A23BF819B232A
:102AE00020938B0130938C0140938D0150938E0184
:102AF00060938F0170939001809391019093920164
:102B000032CD2FEF8216910409F068F530E4831678
:102B10009104A8F5A0907B01B0907C01C0907D014C
:102B2000D0907E01E0907F01F0908001A091810122
:102B3000B091820121E030E040E050E060E070E0E0
:102B400080E090E0082D0E944025A222B322C422FA
:102B5000D522E622F722082F0A23192F1B230E94D1
:102B6000592509F400CDE031BFE5FB0709F4F2C0B7
:102B7000E1312FE5F20709F0BAC582E0ECC080E848
:102B800088169104E0F4A0908301B0908401C09075
:102B90008501D0908601E0908701F0908801A09196
:102BA0008901B0918A0184010054110921E030E0CB
:102BB00040E050E060E070E080E090E0C4CF90EC56
:102BC00089169104A0F4A0908B01B0908C01C09064
:102BD0008D01D0908E01E0908F01F0909001A09136
:102BE0009101B0919201840100581109DFCFA090AA
:102BF0009301B0909401C0909501D0909601E0901F
:102C00009701F0909801A0919901B0919A018401E7
:102C1000005C1109CBCFA114A4E0BA0609F4A3CC3F
:102C2000C5010E947625811101C00150BFEFAB1A8A
:102C3000BB0A19CD58013BCD923039F40E5F1F4FBE
:102C40000E949F0C0F5F1F4F35CD933029F40E5F0C
:102C50001F4F0E945E0CF6CF943019F00F5F1F4F8C
:102C6000F1CF0E5F1F4F30E020E0B8016F5F7F4F64
:102C7000F80141818053990B8A30910550F0215021
:102C8000310900F38FE99FE00197F1F700C00000E0
:102C9000F6CF329EF001339EF00D11249C012E0FD1
:102CA0003F1F842F8B01E1CFE22FF0E0EB53FD4F6C
:102CB0005490822F86958695869590E0FC01EB5482
:102CC000FD4F84902770912C022E02C0959487941A
:102CD0000A94E2F7A1E08A229924FC01EB55FD4F0A
:102CE000C490D12C022E02C0D594C7940A94E2F766
:102CF000B1E0CB22DD24FC01EB56FD4FE490F12C3A
:102D000002C0F594E7942A95E2F7E1E0EE22FF2471
:102D10008114910419F081EE0E949F0CC114D1041A
:102D200019F086EE0E949F0C852D0E94E60DCD289D
:102D300019F086EE0E945E0C892819F081EE0E943F
:102D40005E0CEF2809F47ECF8CE2C5CC81E00E94B6
:102D5000330C03C081E00E94F40B0E94D80B03CC1B
:102D600082E0F5CF27E245EE65EE12C426E241EEA1
:102D700060EE0EC427E245EE64EE0AC426E241EEA0
:102D800062EE06C428E241E0EFCF8091EF0180615E
:102D900036E083163CE5930609F49BC008F4A0C016
:102DA0008091EF01806295C08091EF018D7F9CE062
:102DB00089169CE5990609F48CC078F48091EF019E
:102DC0008C60BAE08B16BCE59B0609F482C008F45F
:102DD00093C08091EF018E7F7CC08091EF01877F4F
:102DE000FEE08F16FCE59F0609F473C08091EF01A9
:102DF0008B7F2FE082162CE5920608F46AC0809142
:102E0000EF018F7E66C03BEF83163CE5930609F425
:102E10006BC068F593E189169CE5990609F47AC0C0
:102E200090F4B1E18B16BCE59B0609F46FC0E2E1BA
:102E30008E16ECE59E0609F049C40E946B0F809146
:102E4000EF018F7746C0F5E18F16FCE59F0609F488
:102E500069C008F47DC08091F00181603AEF83166B
:102E60003CE5930609F032C48093F0012FC48FEF44
:102E700088168CE5980609F451C0A0F48091F00101
:102E80008D7FADEF8A16ACE59A0671F38091F00163
:102E90008E7FBEEF8B16BCE59B0630F38091F00170
:102EA0008360E2CFE1E08E16EDE59E0609F459C09D
:102EB00008F444C060E022E082162DE5920609F095
:102EC00005C48EE090E00E94842500C48091EF014B
:102ED00081608093EF01FAC38091EF018460F9CFA4
:102EE0008091EF018860F5CF8091F0018260BCCFC6
:102EF0008091EF018064EDCF0E946B0F8091EF0114
:102F00008068E7CF8091EF018F7DE3CF8091EF0163
:102F10008F7BDFCF8091EF01837FDBCF8091F0014A
:102F20008C7FA2CF8091EF0182FB992790F921E05D
:102F3000922790FB82F990FB83F9CBCF8091F0012F
:102F4000982F909591708E7F892B90FB81F98CCF73
:102F50000E946B0F9091EF01892F97FB87F98058A2
:102F6000B8CF61E0AECF36E183163CE5930609F0B9
:102F700029C38091E8018A7A91E009F490E0909366
:102F80009C0169E2811165E38CE691E00E940F05E6
:102F90000E94590AE8CA85E3C8C30E946B0F2E98A5
:102FA00029982B98AFEFB4E3ECE0A150B040E0409B
:102FB000E1F700C000000E94E30485E493E020C331
:102FC0000E94000FD0CA8091F00182FB882780F90F
:102FD00091E089270E94DA0AF30182810081118140
:102FE000882309F440C0C8010E948609F82E682F82
:102FF000C8010E945805B8018F2D0E94FC078C0162
:10300000A82ED3011296FC9012971596CC90C294DC
:103010003FE0C3228091E5018770A1F0EF2CFF20F3
:1030200091F0812F807F803421F080E2800F883002
:1030300048F082E00E94170C8091E5018770EE2431
:10304000E3948111E12CD12ED2942FE0D222BBE067
:10305000BD1508F442C0ED2DF0E0EE52FA4D0C948F
:10306000332580E0B7CFC8010E942F05F82EC3CFCB
:10307000E12FEF70CE2E107F19F0C29490EFC9228D
:10308000FF20C9F0CC2069F080E2800F883010F07A
:10309000A1100BC08091E801C82AC092E8010E94EB
:1030A000590A802F0E949F0C18C08091E701C82AFE
:1030B000C092E701F4CF802F0E945E0CCC2069F013
:1030C000C094005E083010F0A11040C08091E8016B
:1030D000C822C092E8010E94590AAD2DA850BB0B2E
:1030E000149720F40E94BC050E943707EE2009F4D3
:1030F000F1C98091E50180FDEDC9F301128285954A
:10310000859585950E94330CC3010E9442128091DF
:10311000E50185958595859527960FB6F894DEBFD0
:103120000FBECDBFDF91CF911F910F91FF90EF9018
:10313000DF90CF90BF90AF909F908F907F906F90D7
:103140005F904F903F902F900C94F40B8091E7018B
:10315000C822C092E701BFCFF12FFF70BF2E107FB2
:10316000103219F0B29480EFB822AA2071F021E059
:10317000A21681F1FF20D9F1CC2091F1F3018581D4
:1031800080FF8FCF8F7085832BC0FF20B1F090918F
:10319000E9018B2D892BC11003C00E94D00A9DCF5D
:1031A00031E0C312FACF2091F00122FD96CF8917AA
:1031B00009F493CF8093E90190CFC11006C00E941B
:1031C00029058B2D0E94C50A88CF81E0C81609F415
:1031D00084CFF5CFFF2031F092E09C1508F47DCF2D
:1031E0008B2DDBCFA1E0AC1508F477CFEACFCC2054
:1031F00041F3F9E3AF1209C02FEF37EE83E021501E
:1032000030408040E1F700C00000802F0E945E0C3B
:1032100064CF812F86958695837061F0813009F0A7
:103220005CCFC8019370F11002C090E080E00E9472
:10323000900553CFC8019370F11002C090E080E078
:103240000E94A6054ACF802FFF2029F00E94830606
:103250000E94060B42CF0E94C805FACF812F8370CF
:1032600009F066C0F11039CF802F8295869587705E
:10327000880F880F602F6F70862E912CB12CA12C97
:10328000082E04C0880C991CAA1CBB1C0A94D2F7F7
:1032900040E050E0BA0104FF0FC04FE050E060E0B2
:1032A00070E004C0440F551F661F771F8A95D2F740
:1032B0004095509560957095812F86958695837081
:1032C000823019F1D8F40091EA011091EB012091BC
:1032D000EC013091ED01813069F0482959296A29C2
:1032E0007B29CB01BA0160237123822393230E949F
:1032F000540CF3CE802A912AA22AB32ACB01BA0118
:10330000682979298A299B29F2CF482959296A29CC
:103310007B290091EA011091EB012091EC013091A1
:10332000ED01CB01BA016027712782279327DFCFF8
:103330008695FF2011F0812F8170882309F4CDCE6E
:10334000802F829586958770880F880F602F6F7009
:10335000862E912CB12CA12C082E04C0880C991C0F
:10336000AA1CBB1C0A94D2F740E050E0BA0104FF4B
:103370000FC04FE050E060E070E004C0440F551F04
:10338000661F771F8A95D2F7409550956095709586
:10339000812F869586958370823019F1D8F400913B
:1033A0003102109132022091330230913402813087
:1033B00069F0482959296A297B29CB01BA01602380
:1033C0007123822393230E94CC0B87CE802A912ADB
:1033D000A22AB32ACB01BA01682979298A299B2913
:1033E000F2CF482959296A297B290091310210918D
:1033F00032022091330230913402CB01BA016027AE
:10340000712782279327DFCF1F70FF2029F0812F9C
:103410000E94330C802FC1CE802F0E94C50A812FBD
:103420000E94F40B5ACE802F92EFA91609F454C0D3
:103430009A1578F0A0EFAA1639F1B1EFAB1609F49E
:1034400043C0FF2009F46BC0C1102BCE812F8F71B8
:1034500040C0E3EFAE1609F444C0F4EFAF12F1CF71
:10346000FF2009F451C01F71812F0E94330C8091FD
:10347000F00182FD07C0A8E01A9FC00111248360FB
:103480008093E501812F25C0FF20C9F021E02C1594
:1034900008F423CE1F7161E070E080E090E004C08A
:1034A000660F771F881F991F1A95D2F70091310276
:1034B000109132022091330230913402A0CF32E0D9
:1034C0003C1508F40ACEE6CF812F8F71FF2009F456
:1034D000A7CF0E94330C01CE812F8F71FF20C9F33B
:1034E0009FCF60E070E0CB01FF2009F46CCF1F712B
:1034F00061E070E080E090E004C0660F771F881FF5
:10350000991F1A95D2F75FCF81E00E94170CB1E0A6
:10351000BC1508F0E2CD82E00E94170CDECDCC2075
:1035200059F0893309F071CEEFEFF7EE23E0E15067
:10353000F0402040E1F767CE812F8F7171CFF0E12D
:103540008F16FFE59F0609F401CC21E182162FE5D5
:10355000920609F405CC33EF83163CE5930609F493
:1035600005CC08F065C098ED89169CE5990609F42C
:10357000F9CBA9ED8A16ACE59A0609F403CCB7EDB0
:103580008B16BCE59B0609F061C026E241EE61EEB8
:10359000C3010E94030E0C94B31285E0F301DE0117
:1035A000119601900D928A95E1F7D30112962C9114
:1035B00089819A8121110C9483120E942F05182F62
:1035C0000C948B128EED88168CE5980609F4F8CCD5
:1035D000D8F48114ACE59A0609F4DFCCB1E08B167F
:1035E000BCE59B0609F0F8CC90910802892F8E7FEC
:1035F00090FF81608093080280FFDFCC87E593E035
:103600000E94B4020C94B312EBE58E16EDE59E0613
:1036100009F427CDFCE58F16FDE59F0609F4D3CC10
:103620002AE582162DE5920609F0D6CC81E0D2CCAF
:10363000E5EF8E16ECE59E0609F4A0CB08F49ACBD4
:1036400026EF82162CE5920609F487C0109230020C
:10365000F2E08F16FCE59F0608F485CC26E1821681
:103660002CE5920630F0C4018A5F9C45099708F06A
:103670007ACC0E94BB079093F0018093EF0130E178
:1036800083163CE5930609F43DCC08F0BCCB98E0EA
:1036900089169CE5990609F42BCC08F085CBB4E09B
:1036A0008B16BCE59B0609F417CC08F06ECBF2E054
:1036B0008F16FCE59F0609F409CC8091EF0182602A
:1036C00023E082162CE5920609F403CC6091EF0109
:1036D0001091F00184E090E00E948425612F82E245
:1036E00090E00E9484250E946B0F0C94B312E33F7C
:1036F0003CE5F30709F43ACB28F5E83D9CE5F907EA
:1037000009F430CBE93DACE5FA0709F43BCBE73DE2
:10371000BCE5FB0709F439CFE631FC4509F05CCC88
:1037200080919C01811137CC89E2EEE6F1E0919124
:10373000891303C0DF0111971C9291E0E437F90768
:10374000B1F726CCE53F2CE5F20709F417CB08F4D6
:1037500011CBE63F8CE5F807F9F627E245EE66EE79
:1037600017CF1F93CF93DF938091A301807FA9F49C
:103770008091A001882389F08091D501D091A40186
:1037800060919E0170919F01A091A101B091A20151
:10379000C62FC72316E0D81304C0DF91CF911F9125
:1037A000089590E0109711F0CF3F19F401968770BB
:1037B000F2CF189F9001199F300D1124F901EB559C
:1037C000FE4F41814713F2CF40814613EFCF428134
:1037D0004111ECCF438154814A1B5B0B483C51059E
:1037E00028F78091A3018F7080618093A301F90174
:1037F000E655FE4F80818F70806180838EE991E075
:103800000E944212DF91CF911F910C948605AF92D6
:10381000BF92CF92DF92EF92FF920F931F93CF93BD
:10382000DF93CDB7DEB761970FB6F894DEBF0FBE5A
:10383000CDBF8C0185E0F801DE011D9601900D924F
:103840008A95E1F7F80180819181E2802EE9A22E2C
:1038500021E0B22E6091A1017091A2016115710564
:1038600009F43EC130919E0140919F01232F2423F2
:103870002F3F09F435C1C380D480F090A001F60138
:10388000E61BF70BFF2009F4FBC02091A301522F88
:10389000507FE83CF10508F0BBC0511178C0FE2C08
:1038A000491321C038131FC0E1101DC02F702061C3
:1038B0002093A301C5010E9442128091A301F80147
:1038C00085838F2D61960FB6F894DEBF0FBECDBFF6
:1038D000DF91CF911F910F91FF90EF90DF90CF90EC
:1038E000BF90AF900895CD2829F0282F29232F3F8E
:1038F00009F014C120E0F22FF170DF2E20FF3DC04F
:103900002091D5014091A40156E0241315C08D8764
:103910009E878D859E850E94C809292F22952F702C
:103920002230F8F0243020F59F70F9F0F8019581ED
:10393000907FD9F4D12C1FC030E0529FF001539FEB
:10394000F00D1124EB55FE4F6181961306C0608186
:10395000861303C06281E61210C02F5F3F4F2770AD
:10396000D4CF9F7011F0882329F3805E883010F344
:10397000C8010E944212FD2CA4CFEE2009F4A1CF71
:103980008091A30181608093A301F12C9ACF491308
:1039900012C0381310C0E1100EC0F8012583C80111
:1039A0000E94421286E0F801AEE9B1E001900D926A
:1039B0008A95E1F786CF8D879E878D859E850E94AB
:1039C000D209882309F1EE20F9F08091A301803219
:1039D00070F020919E0130919F0138872F831986C6
:1039E000DB86CA868C87CE0107960E94421286E04B
:1039F000F801AEE9B1E001900D928A95E1F70E94DD
:103A0000B11BFF24F3945DCFC8010E944212F9CF8D
:103A100051110AC08EE991E00E94421286E0F50140
:103A200011928A95E9F7B1CF49130FC038130DC031
:103A3000E1100BC0F8012583C8010E94421286E004
:103A4000F50111928A95E9F73CCF8D879E878D8588
:103A50009E850E94D2098823B9F2EE20A9F28091B6
:103A6000A301803220F220919E0130919F013A8380
:103A700029831B82DD82CC828E83CE010196B5CF55
:103A8000E83CF105E0F6FE2CEE2009F4BDCF491329
:103A900016C0381314C08091A30180FD83CF982FE6
:103AA000907F09F47FCFF8018583903F09F477CFA9
:103AB000982F907F905F8F70892B858370CF8D8733
:103AC0009E878D859E850E94D209811190CF80911D
:103AD000A30181608093A301C8010E944212F1CE2C
:103AE000EE2009F491CF8D879E878D859E850E945B
:103AF000D209F82E882309F487CF86E0F801AEE9D1
:103B0000B1E001900D928A95E1F780919E0190912C
:103B10009F010E94C8090E94B11BD3CE21E02E252F
:103B2000EACE1F93CF93DF93CDB7DEB767970FB67B
:103B3000F894DEBF0FBECDBF342F4B8B252F5C8B8F
:103B40006D8B7E8B8F8B8E899F8961111092E7011F
:103B50001A8A198A3D872E876F87998B888B86E012
:103B6000FE013D96DE01179601900D928A95E1F7D0
:103B7000CE0107960E94071C882389F016E08091E9
:103B8000D5019091A401891349C067960FB6F894A6
:103B9000DEBF0FBECDBFDF91CF911F91089586E0AC
:103BA000FE013796DE01119601900D928A95E1F79C
:103BB0008A859B85892B11F38F81988589238F3F77
:103BC000E9F22091A40130E0C9010196877099279C
:103BD0004091D5014817190671F40E946B0F10929D
:103BE000A4011092D50186E0EEE9F1E0DF011D921B
:103BF0008A95E9F7C3CF96E0929FD001939FB00DCD
:103C00001124AB55BE4FFE01319601900D929A954D
:103C1000E1F78093A4010E948605B0CF819FC00187
:103C200011248B559E4F0E94071C882309F4ADCFA9
:103C30008091D50190E00196877099278093D501F6
:103C40009ECF1F920F920FB60F9211242F933F9386
:103C50004F935F936F937F938F939F93AF93BF9394
:103C6000CF93DF93EF93FF93D091E900DF708091C2
:103C7000EC00C82FC17080FDC0E81092E90080916F
:103C8000F000877F8093F00078940E94760F109266
:103C9000E9008091F00088608093F000CD2BCF7018
:103CA000C093E900FF91EF91DF91CF91BF91AF9168
:103CB0009F918F917F916F915F914F913F912F9144
:103CC0000F900FBE0F901F9018951F920F920FB676
:103CD0000F9211242F933F934F935F936F937F9392
:103CE0008F939F93AF93BF93EF93FF938091E100E6
:103CF00082FF15C08091E20082FF11C08091E10037
:103D00008B7F8093E100209116022F5F822F62E368
:103D10000E941325992309F4BEC0209316028091B6
:103D2000DA0080FF28C08091D80080FF24C08091F5
:103D3000DA008E7F8093DA008091D90080FFE1C0A5
:103D400080E189BD82E189BD09B400FEFDCF81E03B
:103D50008093240284EE93E00E94B40280911702C3
:103D6000811109C00E9456030E9421048091E20043
:103D700084608093E2008091E10080FF1BC080910D
:103D8000E20080FF17C08091E2008E7F8093E20006
:103D90008091E20080618093E2008091D80080628F
:103DA0008093D80019BC85E0809324028CEE93E0C8
:103DB0000E94B4028091E10084FF2DC08091E20056
:103DC00084FF29C080E189BD82E189BD89B5982F32
:103DD000917080FFFBCF8091D8008F7D8093D800B9
:103DE0008091E1008F7E8093E1008091E2008F7EE0
:103DF0008093E2008091E20081608093E2008091F4
:103E00002502882309F487C084E08093240280EF90
:103E100093E00E94B4028091E10083FF2BC0809167
:103E2000E20083FF27C08091E100877F8093E1005B
:103E300082E080932402109225028091E1008E7F1F
:103E40008093E1008091E2008E7F8093E200809178
:103E5000E20080618093E20042E060E080E00E9446
:103E6000EF038091F00088608093F00084EF93E08E
:103E70000E94B402FF91EF91BF91AF919F918F91FA
:103E80007F916F915F914F913F912F910F900FBE56
:103E90000F901F901895109216028091150288239A
:103EA00009F43DCF809124028430C1F49091E9005F
:103EB0009F702091EC00822F817020FD80E8892B7B
:103EC00095E09093E9009091EB0090FF04C09091F1
:103ED000EE0097FD08C08F708093E90010921502E4
:103EE0001ECF1092F1009091E80095FDFACF9091CD
:103EF000E80090FFF0CF9091E8009E779093E80063
:103F0000EACF19BC1092240288EE93E00E94B4021A
:103F10001092170230CF8091E30087FD93E09093D9
:103F2000240275CFCDB7DEB7AC970FB6F894DEBFDD
:103F30000FBECDBF84B7877F84BF0FB6F894A89516
:103F400080916000886180936000109260000FBED5
:103F500080E890E00FB6F894809361009093610040
:103F60000FBE85B7806885BF85B7806885BF8CEF39
:103F70009CE090936B0180936A01269A219A239A80
:103F80000E9456030E9421048091E2008460809385
:103F9000E2007894809124028823A1F01091E90036
:103FA0001F709091EC00892F817090FD80E8182B94
:103FB0001092E9008091E80083FD0E94760F1F7047
:103FC0001093E90082E084BD93E095BD9AEF97BD20
:103FD00080936E0084EF0E94DD0685EF0E94DD066F
:103FE00086EF0E94DD0687EF0E94DD0686E60E94CE
:103FF000DD0687E90E94DD0686EC0E94DD0684E38B
:104000000E94DD0685E30E94DD061092F101109208
:104010000D021092F20110920E021092F301109212
:104020000F021092F4011092100290E080E00E94C2
:104030007E258A3E9E4F11F00E94000F82E090E0A4
:104040000E947625809308020E94BB079093F0019E
:104050008093EF010E94670E8FE39CE90197F1F7CF
:1040600000C000000E94670E8091100280FF17C000
:104070006FEF83E290E00E9484256FEF84E290E08E
:104080000E9484256FEF85E290E00E9484256FEF07
:104090007FEF90E080E00E94A2250E94E30483E08D
:1040A00090E00E947625682F70E090E080E00E940A
:1040B000540C6091310270913202809133029091E0
:1040C00034020E94A2072E9A299A2B9A9FEFE7EEBC
:1040D000F3E09150E040F040E1F700C000002E987E
:1040E00029982B982FEF47EE83E0215040408040E5
:1040F000E1F700C000002E9A299A2B9A9FEFE7EE75
:10410000F3E09150E040F040E1F700C000002E984D
:1041100029982B9883E290E00E947625813209F05D
:104120000CC484E290E00E947625873009F005C433
:1041300085E290E00E947625813209F0FEC3229844
:104140002A9A54985C9A83B182FB882780F94C990B
:1041500066C090E0892B8093FA0180E091E0909313
:10416000F6018093F50183ED93E00E94B4028DE0A7
:1041700092E024E0280F2CA7E1EA4E2EE3E05E2E29
:1041800080912402853099F48FEC93E00E94B40270
:1041900070E4F72E00E112E180912402853009F4E9
:1041A00040C00E946B0F0E94BC050E9437070E940E
:1041B000670E882359F08FB7F894409111025091FF
:1041C000120260911302709114028FBF59E0652EA4
:1041D00052E0752E6DE0C62E62E0D62E10E000E0B3
:1041E0000BA7F60131906F01F30121903F012310DD
:1041F00052C00F5F1F4F0430110591F78FEF8EA350
:104200008FA318A60E9403058160782F9AA789A71B
:104210004EA15FA168A58AA50E94911D62C092E08F
:1042200099CF80912402843031F180E00E943707D9
:104230001092F70188E190E00FB6F894A89580936A
:1042400060000FBEF092600083B7817F846083BFFF
:1042500083B7816083BF7894889583B78E7F83BF4F
:104260000FB6F894A89580916000886180936000F3
:10427000109260000FBE80912302882309F48CCF36
:104280000E94670EEDE0F2E08191811140C39CA590
:104290009E13FACF81CF8091080281FDADC1232406
:1042A00080E0FF24F394922D9F2109F4D7C189A3C4
:1042B000EBA5EAA33F2081E009F480E08BA30E94F4
:1042C00003058160782F9DA38CA349A15AA16BA1FE
:1042D0008DA10E94911DF801E75FFD4F8081F826B6
:1042E000F082E091FA01EE0FEE0FE093FA0183B154
:1042F00082FBAA24A0F84C99B7C180E08A29E82B58
:10430000E093FA01EF70F0E0EB5BFE4F808190915B
:10431000F901890F8093F90120E08430ACF080919D
:10432000F8018F5F8093F801609131027091320241
:1043300080913302909134020E945507811197C1F8
:1043400089EA0E94E60D21E08091F9018D3FACF4ED
:104350008091F80181508093F80160913102709151
:10436000320280913302909134020E9455078111EC
:1043700080C18AEA0E94E60D21E08091F901082EB1
:10438000000C990B64E070E00E941F258093F901F6
:10439000222359F08FB7F8944091110250911202E4
:1043A00060911302709114028FBF86E0E1E0F2E0A9
:1043B000DE01119601900D928A95E1F7F0900302CB
:1043C000E09004021091050200910602109203028F
:1043D0001092040210920502109206028F2D8E296F
:1043E00009F448C08091FF01909100020E94F404FA
:1043F0009C019091FE01992309F4C5C22333310534
:10440000C8F19F3F19F09F5F9093FE01FF2059F084
:104410000E9463069FEF1F140CF491E0899F802D8A
:10442000112480930302EE2059F00E9463069FEF4F
:104430001E140CF491E0899F802D112480930402B6
:10444000309103023323B1F020910402222391F032
:1044500045EB3403C0011124992309F40CC1909356
:10446000030245EB240390011124332309F407C10F
:1044700030930402812F802B09F448C08091FC0105
:104480009091FD010E94F4049C019091FB019923FD
:1044900009F474C225363105C8F19F3F19F09F5FBA
:1044A0009093FB01112359F00E9441069FEF1116D2
:1044B0000CF491E0899F802D112480930502002344
:1044C00059F00E9441069FEF10160CF491E0899F6D
:1044D000802D112480930602309105023323B1F020
:1044E00020910602222391F045EB3403C0011124F0
:1044F000992309F4C8C09093050245EB2403900169
:104500001124332309F4C3C03093060280910302BF
:1045100090910402892B90910502892B90910602BB
:10452000892B11F00E94060B86E0FE013196A1E076
:10453000B2E001900D928A95E1F70E94BC0590913E
:104540000702891751F10E94BC05182F80930702BA
:104550008091080282FF1EC080FF1CC08CEB93E09C
:104560000E94B4028091080280FF14C01F921F9322
:1045700087EB93E09F938F930E944D0380910802F5
:104580000F900F900F900F9080FF04C085EB93E089
:104590000E94B402812F0E94370780912402843048
:1045A00009F0EECD83E08093E9008091E80082FF7E
:1045B000E7CD8091E80090E085FF0CC00E94750374
:1045C00030E2E32EF12C8E010F5F1F4F882309F498
:1045D0006CC091E08091E8008B778093E80099238C
:1045E00009F4CECDE981E150E33108F0CCC0F0E030
:1045F000E252FA4D0C94332586EA93E00E94B4020D
:104600004DE0842E42E0942EF12CE12CFF92EF92AB
:104610005F924F920E944D038EE993E00E94B40294
:10462000F40181914F010E943D071F928F9389E908
:1046300093E09F938F930E944D0387E993E00E943C
:10464000B402FFEFEF1AFF0A0FB6F894DEBF0FBEF9
:10465000CDBF94E0E916F104C9F621CE8F5FFF0CBF
:10466000853009F020CEC5CD82E090E047CE8FE4C2
:1046700068CE80E57FCE81E080930302F2CE81E0B8
:1046800080930402F7CE81E08093050236CF81E06B
:10469000809306023BCF8091F100F80181938F0156
:1046A000F1E0EF1AF10809F494CF8091E80085FD5C
:1046B000F2CF8091E8008B778093E8000E94750329
:1046C000882399F386CF1A8289E08B831AC08A8166
:1046D000823009F44BC18330D9F1813009F053C0E5
:1046E0002FB7F89460911102709112028091130219
:1046F000909114022FBF0E9439256B837C838D8398
:104700009E8380912402843009F03ACD1091E90013
:104710001F709091EC00892F817090FD80E8182B1C
:1047200082E08093E9008091E80080FF0DC050E0B6
:1047300040E060E270E0CE0101960E94A603809105
:10474000E8008E778093E8001F701093E90018CD81
:1047500080910D028B8380910E028C8380910F02D9
:104760008D83809110028E83CCCF8A81823059F460
:104770006B817C818D819E810E94392586E290E04B
:104780000E948425BECF8FEF8983BBCF4C816B8184
:104790008A810E94C9079827892798279E838D833D
:1047A000B0CF0D811E811027012710278A81EB8051
:1047B0002AE0E29E7001112448E2849FE00CF11C83
:1047C00011248C8190E0880F991FE80EF91E612F4B
:1047D000C70187960E948425602FC7018896D0CF95
:1047E0000E94F6098ECF80E18A838BCF83E08A8393
:1047F00089E36BCF0A811B81102701271027CE0187
:1048000001967C01CC80FC01EC0DF11D6F01C8010B
:1048100089539F4FCE14DF0409F473CF0933F3E0BB
:104820001F0750F40E947625F70184830F5F1F4F06
:10483000FFEFEF1AFF0AEBCFF7011482F7CF0A81DF
:104840001B81102701271027CE0101966C01EC80F7
:10485000E00EF12EF11CC80189539F4FE016F106BE
:1048600009F44FCF0933E3E01E0720F4F601648119
:104870000E948425FFEFCF1ADF0A0F5F1F4FEBCF97
:104880000E94490A3ECF84E0AFCF0A811B811027E6
:1048900001271027CE0101967C01CC80FC01EC0D94
:1048A000F11D6F01C8018796CE14DF0409F429CFEA
:1048B000003A110550F40E947625F70184830F5FBA
:1048C0001F4FFFEFEF1AFF0AEDCFF7011482F7CF6A
:1048D0000A811B81102701271027CE0101966C0148
:1048E000EC80E00EF12EF11CC80187960E151F0515
:1048F00009F407CF003A110520F4F60164810E9403
:104900008425FFEFCF1ADF0A0F5F1F4FEDCF09BDE0
:1049100019BD09B400FEFDCF8091D8008F7D809332
:10492000D8008091E00082608093E0008091E000F8
:1049300081FDFCCF0E946B0F2FCC60E086E290E0FF
:104940000E9484250E94F6090E94490A61E283E2DE
:1049500090E00E94842567E084E290E00E94842534
:1049600061E285E290E00E948425E9CB86E290E056
:104970000E9476251B821C821D82F5CE2D3231408D
:1049800008F08DCDC3CD2D32314008F03CCD72CD35
:1049900078941F921FB61F9211248F939F93AF9309
:1049A000BF938091110290911202A0911302B091D5
:1049B00014020196A11DB11D809311029093120261
:1049C000A0931302B0931402BF91AF919F918F9166
:1049D0001F901FBE1F9018951F921FB61F92112483
:1049E0008F939F93AF93BF938091F701811113C071
:1049F0008091110290911202A0911302B0911402C1
:104A00004196A11DB11D8093110290931202A093B3
:104A10001302B0931402BF91AF919F918F911F9099
:104A20001FBE1F901895991B79E004C0991F961717
:104A300008F0961B881F7A95C9F78095089597FB13
:104A4000072E16F4009407D077FD09D00E94622546
:104A500007FC05D03EF4909581959F4F0895709581
:104A600061957F4F0895EE0FFF1F0590F491E02DA3
:104A70000994692796276927782787277827089533
:104A8000002E083090F0982F872F762F652F542F07
:104A9000432F322F22270850F4CF220F331F441FF9
:104AA000551F661F771F881F991F0A95B2F7002DA3
:104AB00008952A153B054C055D056E057F058007A9
:104AC00091070895AA1BBB1B51E107C0AA1FBB1F7A
:104AD000A617B70710F0A61BB70B881F991F5A958A
:104AE000A9F780959095BC01CD010895F999FECF65
:104AF00092BD81BDF89A992780B50895A8E1B0E0EC
:104B000042E050E00C94AA25262FF999FECF92BDE1
:104B100081BDF89A019700B4021639F01FBA20BD82
:104B20000FB6F894FA9AF99A0FBE08950396272FB4
:104B30000E9485250E948425252F0E948525242FEB
:104B40000C9485250196272F0E9485250C94842599
:104B5000DC01CB01FC01F999FECF06C0F2BDE1BD3D
:104B6000F89A319600B40D9241505040B8F708952C
:104B7000F894FFCFE109E109EA09EA09EC09EA0939
:104B8000EA09EA09E109E109F109EA09EA09F10991
:104B90005B108310D6108310D610B610EE10D6100E
:104BA000EB11F81138183818AC18AC18091923197A
:104BB0006D186D182E19041A131A131A632367231C
:104BC000B523C623D123F023C323C323C323C32385
:104BD000C323F323F623FA231F244024432445242C
:024BE000682447
:104BE200E004B90D980D940D900D01818283E200CD
:104BF200E900EA00B500B600B700CD008301CC00A1
:104C02008A01920194012102230224022502260232
:104C120027022A02B300B4006F007000F4F5F6F721
:104C22006697C6343500FF0100010000FFFF000057
:104C3200010001FF0040227B226B014901CE00AC42
:0A4C4200000A04230443045C04008C
:00000001FF
