:100000000C94B3020C94FA020C94FA020C94FA02C7
:100010000C94FA020C94FA020C94FA020C94FA0270
:100020000C94FA020C94FA020C94851F0C94411F54
:100030000C944A270C94FA020C94FA020C94FA02DB
:100040000C94FA020C94FA020C94FA020C94FA0240
:100050000C94FA020C9426270C94FA020C94FA02DF
:100060000C94FA020C94FA020C94FA020C94FA0220
:100070000C94FA020C94FA020C94FA020C94FA0210
:100080000C94FA020C94FA020C94FA020C94FA0200
:100090000C94FA020C94FA020C94FA020C94FA02F0
:1000A0000C94FA020C94FA020C94FA020631FF093D
:1000B00074A1010975150026FF00952075088102BD
:1000C0000976150026FF00952075089102C00501EC
:1000D0000902A10185020901A100050919012905EB
:1000E00015002501950575018102950175038101B2
:1000F0000501093009311581257F950275088106B2
:1001000009381581257F950175088106050C0A3887
:10011000021581257F950175088106C0C00501097A
:1001200080A101850319012AB700150126B70095A2
:100130000175108100C0050C0901A1018504190198
:100140002AA002150126A002950175108100C006A3
:1001500060FF0961A1010962150026FF0095207565
:100160000881020963150026FF0095207508910299
:10017000C005010906A101050719E029E7150025B9
:10018000019508750181029501750881010507191E
:100190000029FF150026FF00950675088100050857
:1001A00019012905950575019102950175039101C4
:1001B000C00000000000000000000000000000007F
:1001C000000000000000000000000000000000002F
:1001D00000000000007E0F00D4FFFFFFC7000000FA
:1001E0007800000000000000002A2B28000000001A
:1001F00000000000000000000000000029000000D6
:10020000002C1E3420212224342627252E362D377B
:1002100038271E1F202122232425263333362E374C
:10022000381F0405060708090A0B0C0D0E0F1011E4
:1002300012131415161718191A1B1C1D2F313023F1
:100240002D350405060708090A0B0C0D0E0F1011B9
:1002500012131415161718191A1B1C1D2F313035BF
:100260004C290A002575002F002575005D28002502
:10027000640020002564002000256400200025641F
:10028000007C0025303258006D6F7573656B6579A1
:10029000205B62746E7C782079207620685D2872FD
:1002A00065702F61636C293A205B0000002A005FB3
:1002B000006000610000002B005C005D005E00003B
:1002C00000530059005A005B00A800B2006372623C
:1002D00000284100004B004A0052004D0000004E33
:1002E00000500051004F00000056005700540055C8
:1002F00000AD0012501350AE0001000000700071FC
:10030000007200730000006C006D006E006F000052
:1003100000680069006A006B0010500100010001D4
:1003200000010000000100010001000100000001C7
:1003300000010001000100000001000100010001B6
:1003400000105001000100010001000A00253038B2
:1003500062003A200025303258000A722F632030A4
:10036000313233343536370A00FD377A585A0000B7
:1003700004E6D6B4460200210116000000742FE501
:10038000A3E0011F00AE5D003D8889C65436C31747
:100390004FE4DD58B328CAAE631D16EE2F4A09ABF1
:1003A0000E60A09FA63A0063E15C9CE49347CF43B4
:1003B0006EE009D91BC8130E79DC99DEDD5D90CAA9
:1003C0004F189645E92EEAC6FB537633C61DDE72FA
:1003D00059619D7C234345AFF3C35FC46BBA03A946
:1003E0002B67CB8A015D703E46859C84A542616E79
:1003F000864FF2547D685585FE1C76C9A9F6835C4C
:100400002F3BE1B1F33AD103DD46BD2C7CCDA7AE45
:1004100057D6745F75F31D9DC63397FE283F63DC86
:100420005BD01A069376EA9C64D721710F02E0F440
:100430003BF4F78F988A00000056E160E4E4A6CD13
:10044000D70001CA01A0020000D40DA900B1C46701
:10045000FB020000000004595A5B735D004B657994
:10046000626F6172642073746172742E0A005B4360
:100470005D005B445D005B535D005B575D005B525C
:100480005D0009027B00040100A0FA0904000001DC
:10049000030101000921110100012240000705812B
:1004A0000308000A090401000203000000092111E9
:1004B0000100012222000705820320000107050335
:1004C00003200001090402000103000000092111BA
:1004D0000100012281000705840320000A090403AA
:1004E000000203000000092111010001222200077F
:1004F00005850320000107050503200001120110F6
:10050000010000000853A1BEF31000010203011C0A
:10051000037600690061006C003A00660036003422
:10052000006300320062003300630000001A0344DD
:100530000075006D006200500061006400200056EC
:100540000031002E0031000000160369006D0063C9
:100550000068006900700077006F006F00640000A1
:1005600000040309040011241FBECFEFDAE0DEBF50
:10057000CDBF04B603FE27C080914A0290914B0282
:10058000A0914C02B0914D028730904BA740B04BE8
:10059000D1F410924A0210924B0210924C02109227
:1005A0004D0214BE84B7877F84BF0FB6F894A89518
:1005B00080916000886180936000109260000FBE9F
:1005C000E0E0F8E3099511E0A0E0B1E0E4EBF0E54C
:1005D00002C005900D92A237B107D9F722E0A2E739
:1005E000B1E001C01D92AA34B207E1F70E94B22027
:1005F0000C9426280C940000FF93EF93E091720175
:10060000F0917301309709F00995EF91FF910895EA
:10061000FC018591803011F0EFDFFBCF0895FF27BB
:10062000E0E230E247FF0CC0419597FF09C0EDE2E0
:100630006095709580959095611D711D811D911D2E
:1006400027FF02C0219530E350E2AA27660F771FEB
:10065000881F991FAA1FA41710F0A41B63955A9511
:10066000A9F7AA3008F0A95FA05DAF93F3956115D3
:1006700071058105910541F7ED3211F4EF93F39582
:10068000F21718F43F93F395FBCF8F91B5DFFA95EE
:10069000E1F70895E991F9918591803021F0853253
:1006A00019F0AADFF9CF089520E0E894559155326A
:1006B000C1F3503311F4689455915A3348F45053B0
:1006C00090F3220F022E220F220F200D250FF4CFC0
:1006D0000EF4219589919991533619F3533729F1E5
:1006E000533559F1BC0188279927E8945C3621F4E9
:1006F0008991999168945591543639F446EF7EF07A
:1007000077FF0DC08FEF9FEF0AC055374AE039F0F1
:10071000583540E121F0523642E009F00895FF9348
:10072000EF937DDFEF91FF91B7CFFF93EF93FC0144
:1007300081918030B9F360DFFBCFFF93EF9368DFE7
:10074000F1CFDF93CF93CDB7DEB72596A3DFCF915F
:10075000DF910895E8EDF0E080818E7F8083109234
:10076000E2001092DA001092E100A0EEB0E08C916D
:1007700081608C9380818F77808319BCA7EDB0E076
:100780008C918E7F8C9380818F7E808310922C023F
:1007900008952091E4003091E50095E6A9012091AB
:1007A000EC00822F817020FF06C08091E80080FF5E
:1007B00006C080E008952091E80022FD1AC08091D3
:1007C0004202882389F0853089F08091EB0085FD15
:1007D0000FC02091E4003091E50042175307F9F271
:1007E0009150E1F684E0089582E0089583E0089551
:1007F00081E00895EF92FF920F931F93CF937C01B6
:100800008B010E94C903C82F811117C08091E80095
:1008100085FD0BC08091E8008E778093E8000E94F0
:10082000C903882399F3C82F08C0F70181917F017C
:100830008093F1000150110949F78C2FCF911F913E
:100840000F91FF90EF900895CF93FC0180914202A9
:10085000843001F5C091E900CF702091EC00922F17
:10086000917020FD90E8C92B82E08093E90080918F
:10087000E80080FF0CC050E040E060E270E0CF0193
:100880000E94FA038091E8008E778093E800CF7091
:10089000C093E900CF91089580913A0287FF13C079
:1008A0008091E80082FF06C08091E8008B778093FA
:1008B000E80004C0809142028111F2CF0895809136
:1008C00042028823D9F38091E80080FFF8CF80911D
:1008D000E8008E77ECCF982F9093E900242F762FA5
:1008E00050E0891731F07091EC002091ED005091AB
:1008F000F00021FD07C09F5F973071F78093E900FA
:1009000081E008953091EB003E7F3093EB00309111
:10091000ED003D7F3093ED003091EB00316030937E
:10092000EB007093EC002093ED005093F0002091C9
:10093000EE0027FDE0CF80E00895CF92DF92EF92A6
:10094000FF920F931F93CF93DF93C8EDD0E0888180
:100950008F7E8883E7EDF0E080818160808384E092
:1009600082BF81E080932C0288818E7F888302EE93
:1009700010E0F80110821092DA0081EEC82ED12C1E
:10098000F601108288818F778883888180688883C8
:1009900088818F7D888319BC10924202109239029F
:1009A000109238021092370290EEE92EF12CF701E6
:1009B00080818B7F808388818160888342E060E0D2
:1009C00080E00E946B04F60180818E7F8083F801B5
:1009D000808181608083808188608083F70180814D
:1009E0008E7F8083888180618883DF91CF911F9182
:1009F0000F91FF90EF90DF90CF900895FC018091D0
:100A000040029091410286179707A0F06115710589
:100A100029F49091E8009E779093E80090E06115AA
:100A2000710551F4911108C08091E80082FF34C033
:100A300080E00895BC01F2CF809142028823C1F189
:100A40008530C1F18091E80083FD30C08091E800DD
:100A500082FDEACF8091E80080FFE1CF8091F30032
:100A60002091F200382F6115710519F028303105F9
:100A700058F091E02830310509F090E02091E8002D
:100A80002E772093E800CBCF81918093F1006150C5
:100A900071092F5F3F4FE7CF80914202882341F0D9
:100AA000853041F08091E80083FFBECF81E008955A
:100AB00082E0089583E0089580912E02089587E7EB
:100AC00097E7909301088093000888E19AE00FB6B9
:100AD000F894A895809360000FBE90936000FFCFBC
:100AE0009C014FB7F8948091220290912302A0912B
:100AF0002402B09125024FBF821B930B08952FB79C
:100B0000F8948091220290912302A0912402B09146
:100B100025022FBF08959C01FC0132969FEF80E0D3
:100B20004191461751F09F3F19F4411101C0982F90
:100B30008F5F8630A9F79F3F09F40895290F311D73
:100B400097FD3A95F901628308958091F601882313
:100B500031F01092F6011092F5011092F40108950F
:100B600080959091F30198239093F30108958091DB
:100B7000F3019091F201892B9091F101892B8093DF
:100B800074018091F601882319F10E947F0520915C
:100B9000F4013091F501821B930B8838934110F0DA
:100BA0000E94A505809174019091F601892B809394
:100BB000740120E086E791E0FC013191CF01311111
:100BC0002F5FF1E08C379F07B9F721110E94A5052F
:100BD000E0910202F0910302309731F00280F3813C
:100BE000E02D84E791E0099408951092F0011092AD
:100BF000EF011092EE0108958091ED0181111092A4
:100C0000ED0108959E3F51F1292F220F220FE22F6F
:100C1000E90FE80F9E2F9770E695E695E69585E03B
:100C2000E89FF0011124E252FE4F50E040E080E0E6
:100C3000219130E0092E02C0369527950A94E2F7FB
:100C400021703327042E01C0220F0A94EAF7822B69
:100C50004F5F5F4F4530510559F7089580E0089583
:100C60009E3F71F1292F220F220FE22FE90FE80F8B
:100C70008E2F877041E001C0440F8A95EAF7E69510
:100C8000E695E69585E0E89FF0011124E252FE4FDB
:100C900030E020E070E05191DF011197CB01022E8E
:100CA00002C0969587950A94E2F781708195852711
:100CB000842385278C932F5F3F4F2530310559F7CB
:100CC00008958091DD019091AC01981301C00895C1
:100CD0008F5F8770FACF882321F00E94B0050C94B3
:100CE000B7050895882339F09091F301982B9093DC
:100CF000F3010C94B7050895209181013091820190
:100D00002817390771F09093820180938101E09157
:100D10000202F0910302309721F00084F185E02D6A
:100D20000994089520917F01309180012817390797
:100D300071F09093800180937F01E0910202F09125
:100D40000302309721F00680F781E02D0994089581
:100D5000E0910202F0910302309721F00190F081BE
:100D6000E02D099480E0089590911002803F59F49D
:100D70008091110287FF0DC01092110291110BC0DA
:100D800010920B0208C0813F81F480911102181665
:100D90009CF3992381F08091120290911302892B88
:100DA00009F064C0109208020895823F49F497FF49
:100DB000F0CF10921002809111028111ECCFE0CFA0
:100DC000833F19F41916ACF3E4CF20911202893F46
:100DD00029F41216F4F610921202DBCF8A3F19F4AE
:100DE00027FFD7CFF8CF209113028B3F29F427FF9D
:100DF000D0CF10921302CDCF8C3F19F41216CCF342
:100E0000C8CF843F31F480910F028E7F80930F0210
:100E1000C0CF853F21F480910F028D7FF7CF863FB1
:100E200021F480910F028B7FF1CF873F21F48091D5
:100E30000F02877FEBCF883F21F480910F028F7ED6
:100E4000E5CF8D3F31F48091A5018E7F8093A50180
:100E5000A0CF8E3F21F48091A5018D7FF7CF8F3FEA
:100E600009F097CF8091A5018B7FF0CF08958091F5
:100E7000A50180FD16C081FD16C082FD16C08091BF
:100E800008028823A1F0883280F428E0829FC00104
:100E9000112468E270E00E947D27862F672B39F0CD
:100EA000089582E0089584E0089588E0089581E03F
:100EB00008958091A50180FD14C081FD14C082FDBC
:100EC00016C080910B02882381F0843180F422E3E4
:100ED000829FC001112464E170E00E947D27862F6B
:100EE00008958CE0089589E1089585E0089582E3EE
:100EF0000895803F31F40E94590781958093110233
:100F00000895813F19F40E945907F8CF823F31F4C8
:100F10000E9459078195809310020895833F19F428
:100F20000E945907F8CF893F29F40E943707809320
:100F3000120208958A3F21F40E9437078195F7CF66
:100F40008B3F31F40E9437078195809313020895F7
:100F50008C3F19F40E943707F8CF843F31F4809119
:100F60000F02816080930F020895853F21F48091E4
:100F70000F028260F7CF863F21F480910F028460D8
:100F8000F1CF873F21F480910F028860EBCF883F3B
:100F900021F480910F028061E5CF8D3F31F4809183
:100FA000A50181608093A50108958E3F21F4809171
:100FB000A5018260F7CF8F3FB9F78091A5018460CA
:100FC000F1CFF894E82FE295EF70F0E031A1282FEF
:100FD0002F7081E090E001C0880F2A95EAF7982FE2
:100FE0009095932391A392A1892B82A3789408953D
:100FF0009091FC0192FF06C0282F28712830F9F447
:10100000877F846093FF06C0282F28712831F1F470
:10101000877E84612091FD0120FF06C0382F387142
:101020003830D9F4877F816021FF06C0282F2871CE
:101030002831D1F4877E816194FD877E0895282F21
:1010400024712430F9F68B7F8860DCCF282F24713F
:10105000243101F78B7E8861DDCF382F317131303B
:1010600019F78E7F8860E0CF282F2171213121F779
:101070008E7E8861E1CF80FD02C02B9A08952B9867
:101080000895829590E09C01220F331F220F331F99
:101090002C7C95958795959587958373282B30E0C3
:1010A000C901880F991F8A7A359527952575822B56
:1010B0000895CF92DF92EF92FF926C01EE24FF240D
:1010C00020E0C114D104E104F10419F0C701B60114
:1010D00020E1C72ED82EE92EFF24C114D104E1044B
:1010E000F10419F0285FC701B6016B017C0154E0DF
:1010F000F694E794D794C7945A95D1F7C114D104C4
:10110000E104F10419F02C5FC701B6016B017C0109
:1011100042E0F694E794D794C7944A95D1F7C11466
:10112000D104E104F10419F02E5FC701B6019695D0
:10113000879577956795672B682B692B09F02F5F4B
:10114000822FFF90EF90DF90CF900895CF92DF92A3
:10115000EF92FF926B017C010E94590880FF0BC047
:101160002E9A81FF0AC0299AC701B601FF90EF901D
:10117000DF90CF9008952E98F4CF2998F5CF9FB7A0
:10118000F89410922A029FBF90914202943009F085
:1011900048C02091E9002F703091EC00932F91709E
:1011A00030FD90E8922B25E02093E9002091EB00A0
:1011B00020FF34C02091EE0027FF30C02091FB01BA
:1011C000222321F02091E80025FF28C01092FB0186
:1011D00026E03091E80035FF14C08093F100809143
:1011E000E80085FD27C08091E80080FFFCCF80915A
:1011F000E8008E778093E8009F709093E90080E08C
:10120000089530914202343049F43091EB0035FDBD
:1012100005C0215041F481E08093FB019F709093C1
:10122000E9008FEF0895EFE9FFE03197F1F700C093
:101230000000CFCF8FB7F89421E020932A028FBF10
:10124000DBCFCF93DF9300D00F92CDB7DEB7909175
:101250004202943011F589837B836A839093E9007D
:101260008FEF9091E800815095FD06C095ED9A951D
:10127000F1F700008111F5CF8091E80085FF0DC0E6
:1012800050E040E063E070E0CE0101960E94FA0376
:101290008091E8008E778093E8000F900F900F9078
:1012A000DF91CF910895BC0184E00C942109BC0129
:1012B00083E00C9421099C0184E08093E9009FEF76
:1012C0008091E800915085FD06C085ED8A95F1F783
:1012D00000009111F5CF8091E80085FF0CC050E02F
:1012E00040E066E070E0C9010E94FA038091E800E6
:1012F0008E778093E8000895CF93DF93EC0181E02F
:101300008093E9008FEF9091E800815095FD06C031
:1013100095ED9A95F1F700008111F5CF8091E800E5
:1013200085FF14C050E040E068E070E0CE010E940C
:10133000FA038091E8008E778093E80088E0FE0150
:10134000AFE2B2E001900D928A95E1F7DF91CF9183
:101350000895CF92DF92EF92FF920F931F93CF9356
:10136000DF93C4E4D1E08EEFE82E81E0F82ED12C9B
:1013700001E010E08991F894E82FE295EF70F0E039
:1013800021A18F70A80102C0440F551F8A95E2F772
:10139000CA01922F982B91A392A18095892382A3B1
:1013A000789400C0E8E4F1E030E020E0C12C419105
:1013B000A42FA295AF70B0E090968C9190E04F7002
:1013C00002C0959587954A95E2F780FD49C0802F28
:1013D000022E01C0880F0A94EAF7C82A2F5F3F4FF8
:1013E0002530310521F7FE01319780810E94E10708
:1013F00050EA5A95F1F7F7018081C81699F1C08239
:1014000081E0D82AFFEFEF1AFF0A41E0C834D40781
:1014100009F0B0CFDD2041F181E080937E010E9490
:101420007F0590937D0180937C0180917C01909158
:101430007D010E9470050697D8F08091FE0180938F
:101440001E028091FF0180931F0280910002809311
:101450002002809101028093210210927E0108C037
:1014600080E0BBCF80E0CDCF80917E018111DDCFC8
:101470008D2DDF91CF911F910F91FF90EF90DF9015
:10148000CF900895CF9384E090E00E94E427C82F86
:1014900082E290E00E94E427982F8C2FCF9108954C
:1014A0000F931F93CF93DF93843030F5643020F592
:1014B000453010F5C42FD0E0CC0FDD1F2AE0629F2D
:1014C000C00DD11D112438E2839FC00DD11D112400
:1014D000CE0187960E94E427082F10E0102F0027E6
:1014E000CE0188960E94E4279801282BC901DF913C
:1014F000CF911F910F91089590E080E0F8CF462F93
:101500002091280230912902232B49F4843038F4A9
:10151000743028F4653018F4672F0C94500A90E06A
:1015200080E00895CF93DF930E947F0AEC01823818
:101530009105A9F1D8F58133910509F496C048F5D4
:101540008932910509F48AC08A9709F495C0C115BA
:1015500021E5D20708F0BCC0C11530E5D30708F07B
:1015600014C1C83ED10508F09CC0C03ED10560F54D
:10157000C83AD10508F087C0C53AD10508F0FDC0CA
:10158000C130D10509F12097F9F0C430D105E0F45C
:1015900040C08533910509F45AC0C997C1F68091BE
:1015A000FC01837089F0C0EED0E00EC0833E91054F
:1015B00099F170F4803E910501F1823E910539F672
:1015C0008091FC0182FD21C0CE01DF91CF91089571
:1015D000863E910561F1873E910571F1843E91054A
:1015E00009F0B5CF8091FD0181FFEECF8091FC0124
:1015F000C7EED0E084FD0DC0E7CF8091FC0180FDF7
:1016000012C19091FD0190FFDFCFC3EED0E084FFC7
:10161000DBCFD0E0C0E0D8CF8091FC0182FD06C1D5
:101620009091FD0190FDBFCF84FFCECFF2CF80918E
:10163000FC0183FDDDCFC8CF8091FC0183FDF9C0A3
:101640009091FD0191FFF0CFC4EED0E0BDCF80912D
:10165000FC0185FFB9CFC9E2D0E0B6CF8091FC0193
:1016600085FFB2CFC5E3D0E0AFCF8091FC0186FF0C
:10167000ABCFCAE2D0E0A8CF8091FC0186FFA4CF17
:10168000C1E3D0E0A1CFCF3BD10518F6C85AD0E0D6
:10169000CC0FDD1FCA5EDE4F0990D881C02DD46407
:1016A00093CFC11540E2D40758F4C11581E0D807A3
:1016B00008F08ACFC03FD10508F4ABCFD06584CF06
:1016C000C11590E4D90708F4A4CFDF70D06A7CCFAD
:1016D000C11525E5D20700F5C11534E5D30708F09B
:1016E0008AC0C11543E5D40708F071C0C11582E571
:1016F000D80708F467C0CE018370992721E030E055
:1017000002C0220F331F8A95E2F7C695C69580E284
:10171000C89FE001112452C0C11599E5D907A8F46A
:10172000C11528E5D20708F06BC0C11536E5D3070F
:1017300008F06FCF8C2F0E94F807C82FD0E0DC2F65
:10174000CC27CC27DF71D0623FCFC1154AE5D40743
:1017500008F45BC0CE0190568115904208F059CF35
:101760008D2F8F710E94F80790E0982F8827882787
:101770009F719C012C2BE901E6CFC55AD0E0CD5ECC
:10178000DE4FC881D0E0D0641FCFCE01E4E0969553
:101790008795EA95E1F783702C2F2695269523707F
:1017A00040E2249F90011124382B8C2F8370C1E0DC
:1017B000D0E002C0CC0FDD1F8A95E2F7C22BD32BFD
:1017C000DC6802CFDC2FCC27C16FD06AFDCECE0102
:1017D0008370992721E030E002C0220F331F8A95E1
:1017E000E2F7C695C69590E2C99FE0011124C22B8D
:1017F000D32BDA68E9CEDC2FCC27C46FD06AE4CED5
:10180000DC2FCC27C06FD06ADFCE8C2F8F700E9468
:10181000F80734E0D695C7953A95E1F7CF709C2F3D
:10182000EC01D069D1CEC9E3D0E0CECEC2EED0E09B
:10183000CBCEC6EED0E0C8CEBF92CF92DF92EF9271
:10184000FF920F931F93CF93DF938C01C0904602BA
:10185000D0904702E0904802F09049028091F70151
:101860009091F801A091F901B091FA01C82AD92A02
:10187000EA2AFB2ACFE1D0E0BC2ED701C6010C2E0C
:1018800004C0B695A795979587950A94D2F780FDE1
:101890000EC0219788F7B12C8B2DDF91CF911F912E
:1018A0000F91FF90EF90DF90CF90BF900895B80117
:1018B0008C2F0E94920A019761F3EECFCF93DF93B2
:1018C000EC010E941C0CBE01DF91CF910C94920A96
:1018D0000E945E0C292F2F7092959F7092509E301F
:1018E00078F4E92FF0E0E85DF74D0C949127803F04
:1018F00019F020F4883E20F481E00895843FE1F35C
:1019000080E00895883EC0F3813FD1F7F5CF822F64
:101910008695869586950895CF93C091FD01C2FB6B
:10192000992790F9981781F080FBC2F9C093FD01C7
:101930006091FC0184E090E00E94F2276C2F82E22B
:1019400090E0CF910C94F227CF910895CF93DF933D
:10195000C7ECD0E060E0CE010E94F2272196C115CD
:1019600084E0D807B9F7DF91CF9108950F931F93C3
:10197000CF93DF938901843048F5643038F54530E2
:1019800028F521153C4531F420912602309127029B
:10199000232BE1F0C42FD0E0CC0FDD1F9AE0699F2C
:1019A000C00DD11D112498E2899FC00DD11D1124B5
:1019B000612FCE0187960E94F227602FCE01889674
:1019C000DF91CF911F910F910C94F227DF91CF916E
:1019D0001F910F9108958F929F92AF92BF92CF92D5
:1019E000DF92EF92FF921F93CF93DF9380902602B6
:1019F0009090270281E090E0909327028093260246
:101A00008BEAC82E82E0D82ED0E07601C0E014C068
:101A1000F50125913491412F6C2F8D2F0E94B60C2A
:101A200082E0A80EB11C1F5F153091F78AE0E80E26
:101A3000F11CCF5FC43019F0570110E0E9CFDF5F30
:101A400088E2C80ED11CD43001F790922702809210
:101A50002602DF91CF911F91FF90EF90DF90CF9002
:101A6000BF90AF909F908F9008958091150283FF53
:101A70007EC088E892E00E94080380910F021F92C6
:101A80008F9383E892E09F938F930E94A10381E854
:101A900092E00E94080380911002282F082E000C6B
:101AA000330B3F938F938EE792E09F938F930E9427
:101AB000A1038CE792E00E94080380911102282F75
:101AC000082E000C330B3F938F9389E792E09F938E
:101AD0008F930E94A10387E792E00E940803809100
:101AE0001202282F082E000C330B3F938F9384E7AC
:101AF00092E09F938F930E94A10382E792E00E945D
:101B0000080380911302282F082E000C330B3F93FB
:101B10008F938FE692E09F938F930E94A1038CE6B0
:101B200092E00E94080380910B021F928F9389E636
:101B300092E09F938F930E94A10387E692E00E9418
:101B400008038091A5011F928F9384E692E09F93F2
:101B50008F930E94A10381E692E00E9408038DB753
:101B60009EB74C960FB6F8949EBF0FBE8DBF0E94D5
:101B70007F059C019091100280911102982B21F019
:101B800030930D0220930C02909112028091130267
:101B9000982B21F030930A0220930902E09102026F
:101BA000F0910302309749F082E080930E020480A6
:101BB000F581E02D8EE092E00994089590E080E0B8
:101BC0000E94920690E080E00E947C061092F20152
:101BD0001092F1010E94B70586E0EEE0F2E0DF012D
:101BE0001D928A95E9F710920B021092080210924A
:101BF000A5010C94350D0E94A608609346027093CF
:101C0000470280934802909349020C94DE0D0F9393
:101C10001F93609146027091470280914802909113
:101C200049028B019C0106701127222733270630B9
:101C300011052105310529F468601F910F910C945D
:101C4000FB0D677FFACF0F931F9341E050E060E0F8
:101C500070E004C0440F551F661F771F8A95D2F7A6
:101C6000CB01BA01609570958095909500914602E0
:101C7000109147022091480230914902602371235C
:101C8000822393231F910F910C94FB0D9091F001EF
:101C9000809589238093F001282F277039F4282F0D
:101CA000082E000C330B9217130621F49091FD01BE
:101CB00092FF07C08595859585950E94230E0C940B
:101CC000F50508950F931F9341E050E060E070E048
:101CD00004C0440F551F661F771F8A95D2F7809165
:101CE000460290914702A0914802B09149028A01B0
:101CF0009B01082B192B2A2B3B2BC901B8011F91E3
:101D00000F910C94FB0D9091FD0192FD10C098E095
:101D1000899F90011124622B6093F0010E94620E52
:101D20000E947F059093EF018093EE0108950C943B
:101D3000620E6093F7017093F8018093F90190931C
:101D4000FA010C94DE0D1092F301E6E7F1E086E073
:101D5000DF011D928A95E9F70C94DE0D1F93CF9356
:101D6000DF93CDB7DEB7AA970FB6F894DEBF0FBEEC
:101D7000CDBF8AE392E02091F100DC012D93CD01EB
:101D8000B2E082349B07B9F780913B02833009F4BB
:101D900071C0B8F4813009F448C0823009F4B2C08F
:101DA0008091E80083FF3AC180913A0290913B0212
:101DB0009A3008F033C1E92FF0E0EA5CF74D0C945B
:101DC00091278A3009F48DC08B3009F470C08930B6
:101DD00039F780913A02813219F780913E02909151
:101DE0003F02009711F00297D9F68091E800877FB3
:101DF0008093E8008091E80082FF37C09091F30063
:101E00008091F200029729F48091F1008B7F81305C
:101E100021F48091F10080932E028091E8008B776D
:101E20008093E8000E944C04BBCF80913A02813A33
:101E300009F0B6CF8091E800877F8093E800809119
:101E40003E0290913F02892B61F468E08FE292E0BC
:101E500070E00E94FE048091E8008B778093E80098
:101E60009FCF60E090E080E0F3CF8091420281114B
:101E7000C1CF96CF80913A02813A09F091CF8091FB
:101E80003E0290913F02892B09F08ACF8091E800B1
:101E9000877F8093E8008091E80080FFFCCF8091ED
:101EA0000A018093F1008091E8008E77B9CF80918C
:101EB0003A02813209F074CF80913E0290913F0244
:101EC000892B09F06DCF8091E800877F8093E8002F
:101ED0000E944C0480913C0280930A010E94A30E50
:101EE0005FCF80913A02813209F05ACF8091E800A9
:101EF000877F8093E8000E944C0480913D0280938C
:101F00002D024ECF80913A02813A09F049CF80915B
:101F1000E800877F8093E8008091E80080FFFCCF95
:101F200080912D02BECF803899F0823809F076C0BA
:101F300080913E028F70873008F070C08093E90076
:101F40008091EB0085FB882780F91092E90006C09C
:101F50008091370290913802911182609091E8004F
:101F6000977F9093E8008093F1001092F1008091A8
:101F7000E8008E77C5C1882309F4B2C1823009F028
:101F80004DC080913C028111B6C180913E028F709C
:101F90002FEF280F263008F041C08093E9002091F0
:101FA000EB0020FFA8C1933031F48091EB008062F8
:101FB0008093EB00A0C19091EB0090619093EB00B7
:101FC00021E030E001C0220F8A95EAF72093EA0071
:101FD0001092EA008091EB008860EACF81111EC068
:101FE00010913C021F778091E3008078812B8093D1
:101FF000E3008091E800877F8093E8000E944C0412
:102000008091E80080FFFCCF8091E300806880939E
:10201000E30082E0111183E0809342028091E800A6
:1020200083FF0AC08091E800877F8093E800809159
:10203000EB0080628093EB00AA960FB6F894DEBFA7
:102040000FBECDBFDF91CF911F9108958058823090
:1020500028F720913C0230913D022C3DE3E03E0701
:10206000A1F583E08A838AE289834FB7F894DE0181
:10207000139620E03EE051E2E32FF0E0509357004A
:10208000E49120FF03C0E295EF703F5FEF708E2F69
:1020900090E0EA30C0F0C7968D939D932F5F243176
:1020A00059F74FBF8091E800877F8093E8006AE28C
:1020B00070E0CE0101960E94FE048091E8008B77CB
:1020C0008093E800ABCFC096E7CF80913E0290911D
:1020D0003F02432F55274330510509F44AC078F594
:1020E0004130510509F485C08BE790E0E2E8F4E067
:1020F0004230510509F092CF2091E800277F2093CC
:10210000E80020914002309141028217930708F4C1
:102110009C0140E02115310509F070C041116EC0ED
:102120008091E80082FDC9CF80914202882329F284
:10213000853019F28091E80083FFF2CFBECF4132A3
:10214000510509F447C04232510509F067CF843088
:10215000910508F063CFFC01EE0FFF1FEF59FE4F12
:102160000190F081E02D835A9E4FDC018C9190E02C
:102170001DC0332721303105E9F02115310579F0F3
:1021800022303105F9F02330310509F047CFEFE077
:10219000F5E0E4918E2F90E0EFE0F5E007C0E1E696
:1021A000F5E0E4918E2F90E0E1E6F5E0009709F488
:1021B00035CFA2CFE9E4F5E0E4918E2F90E0E9E499
:1021C000F5E0F4CFEDE2F5E0E4918E2F90E0EDE262
:1021D000F5E0ECCF8430910508F020CF880F991FEF
:1021E000FC01E759FE4F0190F081E02D89E090E07D
:1021F00083CF82E190E0EDEFF4E07ECF8091420268
:10220000882309F45ACF853009F457CF8091E8002C
:1022100083FD53CF8091E80082FD82CF8091E8005A
:1022200080FF78CF9091F3008091F2002115310565
:1022300019F08830910550F041E0089709F040E02E
:102240008091E8008E778093E80064CF44914093BA
:10225000F1003196215031090196E8CF803809F01C
:10226000DDCE8091E800877F8093E800809139027D
:102270008093F1007CCE8111D1CE10913C021230BE
:1022800008F0CCCE8091E800877F8093E80010931F
:1022900039020E944C04112311F084E005C08091A2
:1022A000E30087FDFACF81E08093420242E061ECD7
:1022B00081E00E946B0442E261EC84E00E946B04C6
:1022C00042E261EC82E00E946B0442E260EC83E057
:1022D0000E946B0442E261EC85E00E946B049ECE9A
:1022E00080913C02813009F099CE81E0933009F071
:1022F00080E0809338021092E9008091E800877FA7
:102300008093E8000E944C0489CE8823B1F19CEFB1
:10231000980F913A70F4E6E7F1E09191891303C0C8
:10232000DF0111971C9291E0EC37F907B1F70C949B
:10233000B70590E2980F983050F4877091E001C093
:10234000990F8A95EAF7892F0E94B005F0CF9BE597
:10235000980F933020F490E080E00C94920698E57A
:10236000980F973120F490E080E00C947C06803F39
:1023700020F00E94B4060C94350D0895CF93C82F19
:10238000882309F456C08CEF8C0F813AF8F4E6E705
:10239000F1E08CE791E0DF012D91C21759F08A1727
:1023A0009B07D1F76C2F84E791E00E948B05CF91BA
:1023B0000C94B7052191C21303C0DF0111971C9241
:1023C0008E179F07B9F70E94B705ECCF80E28C0FFC
:1023D000883068F4C77021E030E001C0220FCA9550
:1023E000EAF78091F301822B8093F301E0CFEBE5D4
:1023F000EC0FE33040F4F0E0ED5EFE4F808190E0C2
:10240000CF910C949206E8E5EC0FE73150F4F0E040
:10241000EE0FFF1FEA5EFE4F80819181CF910C94F9
:102420007C06C03F30F08C2F0E947907CF910C942E
:10243000350DCF9108951F93CF93DF93182FCAE0E6
:10244000D0E0893311F4C0E5D0E0812F0E94BE11A5
:102450008FE99FE00197F1F700C000002197C1F7D5
:10246000812FDF91CF911F910C9485110F931F93B2
:10247000CF93DF93C62FD42F022FFC0182818823B4
:10248000A1F0609345020E947F05909344028093DF
:102490004302C77081E001C0880FCA95EAF7DF9157
:1024A000CF911F910F910C94720680914502681391
:1024B00035C080914302909144020E947005883C8F
:1024C000910560F510E21D0FCD17B9F080E28C0F79
:1024D000883040F4C77081E001C0880FCA95EAF7E0
:1024E0000E946B06183048F481E09D2F977001C060
:1024F000880F9A95EAF70E947206802F0E941B129D
:10250000183098F4D77081E001C0880FDA95EAF7A7
:10251000DF91CF911F910F910C946B06C77081E0F2
:1025200001C0880FCA95EAF7F3CFDF91CF911F91D1
:102530000F910895AF92BF92CF92DF92EF92FF92E8
:102540000F931F93CF93DF93EC018AE0A82E28818D
:10255000222309F48CC02130C9F599818A819130F8
:1025600021F422960E941B1205C0923029F4229673
:102570000E94BE112196EBCF933021F422960E9447
:102580008511F8CF943011F02196F4CF229630E0E7
:1025900020E0AE014F5F5F4F8053990B8A30910569
:1025A00050F02150310930F38FE99FE00197F1F7A6
:1025B00000C00000F6CFA29EB001A39E700D1124B2
:1025C0009C01260F371F8981EA01E3CFE22FF0E05B
:1025D000EF51FE4FB490822F86958695869590E0B8
:1025E000FC01EF52FE4FE4902770F12C022E02C046
:1025F000F594E7940A94E2F731E0E322FF24FC012A
:10260000EF53FE4FC490D12C022E02C0D594C79434
:102610000A94E2F731E0C322DD24FC01EF54FE4FBF
:10262000049110E002C0159507952A95E2F7017014
:102630001127E114F10419F081EE0E94BE11C114BA
:10264000D10419F086EE0E94BE118B2D0E941B1240
:10265000CD2819F086EE0E948511EF2819F081EE41
:102660000E948511012B09F485CF8CE27BCFDF918D
:10267000CF911F910F91FF90EF90DF90CF90BF907F
:10268000AF9008956AEE7EEF90E080E00E941028FF
:1026900060E082E090E00E94F22760E083E090E05A
:1026A0000E94F2271092F7011092F8011092F9019E
:1026B0001092FA0160E084E090E00E94F22760E06E
:1026C00082E290E00E94F22760E085E090E00E94C4
:1026D000F22760E086E090E00E94F2276FEF87E04B
:1026E00090E00E94F22740E050E0BA0188E090E0DC
:1026F0000E94042860E08DE090E00E94F22740E014
:1027000050E0BA0188E190E00E94042860E087E18F
:1027100090E00E94F22740E050E0BA018CE190E0A6
:102720000E94042870E060E080E290E00E9410289F
:1027300040E050E0BA0188E190E00E94042840E0C7
:1027400050E0BA018FE090E00E94042840E050E0A1
:10275000BA0183E190E00C9404282F923F924F92AB
:102760005F926F927F928F929F92AF92BF92CF9221
:10277000DF92EF92FF920F931F93CF93DF9300D0DE
:1027800000D000D00F92CDB7DEB73C01DC0113962C
:102790008D919C911497892B39F08C9111969C9175
:1027A00089238F3F09F0C4C727960FB6F894DEBF80
:1027B0000FBECDBFDF91CF911F910F91FF90EF9092
:1027C000DF90CF90BF90AF909F908F907F906F9051
:1027D0005F904F903F902F9008950E941C0C182FEF
:1027E000682F89819A810E94300669817A81812FC0
:1027F0000E947F0AFC01815095454F018F3F910552
:1028000010F4B5E59B26D30112968C91882309F428
:10281000C8C2BFEF8B169104F9F0F0F00AE28016FF
:102820000DE5900621F01092A3014F015EC080914A
:10283000A30191E089278093A3018091F001877023
:1028400009F4B2CFD30112968C91882309F4ACCF4E
:1028500082E00E94460EA8CF8091A301882309F44C
:1028600035C11092A30110EC8116910408F086C0C6
:1028700020E88216910408F0F3C030E48316910436
:1028800008F0B8C021E030E040E050E060E070E0E7
:1028900080E090E0082D0E949E27E09183012E2B7E
:1028A000E09184013E2BE09185014E2BE091860161
:1028B0005E2BE09187016E2BE09188017E2BE091E9
:1028C00089018E2BE0918A019E2B20938301309306
:1028D0008401409385015093860160938701709332
:1028E00088018093890190938A01C40182519F4598
:1028F000409708F0F0C68FEF93E00E94E4270EEEB9
:10290000080D47ECE42EF12C811197CF0111D3C2B1
:1029100019821A821B821C820FEF57018FEFA81AAF
:10292000B80AC7010E94E42789831A82882309F420
:1029300084CF813009F0F6C2670192E0C90ED11C44
:10294000C5010E94E427B82E8A83882309F475CF35
:10295000C6010E94E427182F8FEF8B0D833008F0FB
:10296000B9C26701A3E0CA0ED11C1B83112321F059
:10297000CE0101960E949A127601CFCF4FEF8416B6
:10298000910411F008F07ECF21E030E040E050E00B
:1029900060E070E080E090E08401005C11090E943A
:1029A0009E27E0919B012E2BE0919C013E2BE09114
:1029B0009D014E2BE0919E015E2BE0919F016E2BBD
:1029C000E091A0017E2BE091A1018E2BE091A2016C
:1029D0009E2B20939B0130939C0140939D0150932B
:1029E0009E0160939F017093A0018093A101909339
:1029F000A2017BCF21E030E040E050E060E070E0F9
:102A000080E090E08401005411090E949E27E0912B
:102A10008B012E2BE0918C013E2BE0918D014E2BF2
:102A2000E0918E015E2BE0918F016E2BE091900181
:102A30007E2BE09191018E2BE09192019E2B2093B1
:102A40008B0130938C0140938D0150938E016093E4
:102A50008F0170939001809391019093920145CFE3
:102A600021E030E040E050E060E070E080E090E0A5
:102A70008401005811090E949E27E09193012E2B9A
:102A8000E09194013E2BE09195014E2BE09196014F
:102A90005E2BE09197016E2BE09198017E2BE091E7
:102AA00099018E2BE0919A019E2B209393013093F4
:102AB0009401409395015093960160939701709310
:102AC00098018093990190939A010FCF50E4851655
:102AD000910408F06EC0A0918301B09184015090E0
:102AE0008501409086013090870120908801809177
:102AF00089018E8390918A019F8321E030E040E03C
:102B000050E060E070E080E090E0082D0E949E2799
:102B1000A22EAA22B32EBB22C42EC520D52ED4208D
:102B2000E62EE320F72EF2200E8108231F811923C1
:102B30000E94B72709F079CE90EC8916910408F02D
:102B40009AC0E0E88E16910408F0FBC0F0E48F16FE
:102B5000910408F0C6C021E030E040E050E060E0C1
:102B600070E080E090E0082D0E949E27209530952F
:102B70004095509560957095809590952A233B23BC
:102B80004521542163217221AE818A23BF819B2379
:102B900020938301309384014093850150938601F3
:102BA00060938701709388018093890190938A01D3
:102BB00044CEA0E88A169104F0F4A0918B01B09164
:102BC0008C0150908D0140908E0130908F012090AB
:102BD0009001009191010E83109192011F8321E0D9
:102BE00030E040E050E060E070E080E090E08401A0
:102BF000005411098BCF20EC82169104F0F4A091BF
:102C00009301B091940150909501409096013090BD
:102C1000970120909801309199013E8340919A014B
:102C20004F8321E030E040E050E060E070E080E081
:102C300090E084010058110969CFA0919B01B091E7
:102C40009C0150909D0140909E0130909F012090EA
:102C5000A0015091A1015E838091A2018F8321E0A8
:102C600030E040E050E060E070E080E090E084011F
:102C7000005C11094BCF0FEF8016910411F008F0A2
:102C80006ACF8401005C110921E030E040E050E0AF
:102C900060E070E080E090E00E949E2720953095F3
:102CA0004095509560957095809590952A233B238B
:102CB0004521542163217221EE818E23FF819F23C0
:102CC00020939B0130939C0140939D0150939E0162
:102CD00060939F017093A0018093A1019093A20142
:102CE000ACCD84010054110921E030E040E050E017
:102CF00060E070E080E090E00E949E272095309593
:102D00004095509560957095809590952A233B232A
:102D10004521542163217221EE818E23FF819F235F
:102D200020938B0130938C0140938D0150938E0141
:102D300060938F0170939001809391019093920121
:102D40007CCD84010058110921E030E040E050E0E2
:102D500060E070E080E090E00E949E272095309532
:102D60004095509560957095809590952A233B23CA
:102D70004521542163217221AE818A23BF819B2387
:102D800020939301309394014093950150939601C1
:102D900060939701709398018093990190939A01A1
:102DA0004CCD0FEF8016910409F068F510E4811600
:102DB0009104A8F5A0908301B0908401C090850192
:102DC000D0908601E0908701F0908801A091890160
:102DD000B0918A0121E030E040E050E060E070E036
:102DE00080E090E0082D0E949E27A222B322C422F8
:102DF000D522E622F7220A2F08231B2F19230E942F
:102E0000B72709F41ACDE031BFE5FB0709F494C0F8
:102E1000E1310FE5F00709F06AC582E08EC020E8D5
:102E200082169104E0F4A0908B01B0908C01C090C8
:102E30008D01D0908E01E0908F01F0909001A091D3
:102E40009101B091920184010054110921E030E018
:102E500040E050E060E070E080E090E0C4CF30EC13
:102E600083169104A0F4A0909301B0909401C090B7
:102E70009501D0909601E0909701F0909801A09173
:102E80009901B0919A01840100581109DFCFA090F7
:102E90009B01B0909C01C0909D01D0909E01E0905C
:102EA0009F01F090A001A091A101B091A201840125
:102EB000005C1109CBCFE11444E0F40609F4BDCC69
:102EC000C7010E94E427811101C001505FEFE51A9C
:102ED000F50A1CCDB4E0BB124FCD6701E4E0CE0E85
:102EE000D11CC70103960E94E427112309F4A5CC45
:102EF000882309F4A2CC8150990B089F9001099F67
:102F0000300D1124412F4150550BCA01820F931FE0
:102F1000019708F431CDAFE9BFE01197F1F700C098
:102F20000000F6CFCE0101960E949A12650124CDD1
:102F300081E00E94620E03C081E00E94230E0E9485
:102F4000070E7BCC82E0F5CF27E245EE65EEECC3C1
:102F500026E241EE60EEE8C327E245EE64EEE4C30C
:102F600026E241EE62EEE0C328E241E0EFCF80913D
:102F7000FC018061A6E08A16ACE59A0609F4A2C0BD
:102F80008091FC018860B7E08B16BCE59B0608F4D5
:102F900099C08091FC01806295C08091FC018D7F79
:102FA000ECE08E16ECE59E0609F48CC078F4809176
:102FB000FC018C600AE080160CE5900609F482C0E2
:102FC00008F48FC08091FC018E7F7CC08091FC0151
:102FD000877F2EE082162CE5920609F473C080915B
:102FE000FC018B7F3FE083163CE5930608F46AC042
:102FF0008091FC018F7E66C04BEF84164CE59406F1
:1030000009F467C068F583E188168CE5980609F431
:1030100076C090F4A1E18A16ACE59A0609F46BC07B
:10302000B2E18B16BCE59B0609F050C40E94A30ECA
:103030008091FC018F7746C0E5E18E16ECE59E0697
:1030400009F465C008F479C08091FD0181600AEF40
:1030500080160CE5900609F039C48093FD0136C452
:103060001FEF81161CE5910609F44DC0A0F4809174
:10307000FD018D7F3DEF83163CE5930671F3809152
:10308000FD018E7F4EEF84164CE5940630F380915F
:10309000FD018360E2CF51E085165DE5950609F4F8
:1030A00055C008F440C060E092E089169DE599069D
:1030B00009F00CC48EE090E00E94F22707C48091D2
:1030C000FC0181608093FC0101C48091FC0184605B
:1030D000F9CF8091FD018260C0CF8091FC018064B6
:1030E000F1CF0E94A30E8091FC018068EBCF80910C
:1030F000FC018F7DE7CF8091FC018F7BE3CF809136
:10310000FC01837FDFCF8091FD018C7FA6CF809172
:10311000FC0182FB992790F921E0922790FB82F92C
:1031200090FB83F9CFCF8091FD01982F90959170FE
:103130008E7F892B90FB81F990CF0E94A30E9091F6
:10314000FC01892F97FB87F98058BCCF61E0B2CF93
:10315000A6E18A16ACE59A0609F0FDC28091F3015A
:103160008A7A91E009F490E09093A40169E28111D8
:1031700065E384E791E00E948B050E94B7055DCB73
:1031800085E3D3C30E94A30E2E9829982B98EFEFC6
:10319000F4E30CE0E150F0400040E1F700C0000033
:1031A0000E945F0581E0FDC280E0FBC2C8010E9471
:1031B0000206F82E07C3E12FEF70FE2E107F19F0E4
:1031C000F29490EFF922DD20C9F0FF2069F080E24F
:1031D000800F883010F0A1100BC08091F301F82A05
:1031E000F092F3010E94B705802F0E94BE1115C016
:1031F0008091F201F82AF092F201F4CF802F0E9420
:103200008511FF2051F0005E083010F0A11027C09A
:103210008F2D0E94B0050E94B705AB2DA850BB0BA7
:10322000149720F40E94A8060E943B08CC2009F4C1
:10323000BBCA8091F00180FDB7CAF3011282859567
:10324000859585950E94620EC3010E94AD13809101
:10325000F0018595859585950E94230EA5CAF09469
:103260008091F201F822F092F201D5CFF12FFF7098
:10327000FF2E107F103219F0F29480EFF822AA206E
:1032800099F011E0A11609F453C0DD2009F45CC0E7
:10329000EE2091F1D30115968C91159780FFA4CF64
:1032A0008F7015968C9328C0DD2051F1E11004C079
:1032B0008091F6018F2921C021E0E21213C0809194
:1032C000FD0182FDAACF8091F601F82AF81609F4D3
:1032D000A4CF0E947F059093F5018093F401F092B2
:1032E000F6019BCF35E0E312E3CF0E94A505809164
:1032F000ED01F812F092ED018F2D0E9472068DCF34
:10330000E11006C00E94A5058F2D0E946B0685CF97
:1033100041E0E41208C08091F3018F2109F47DCFD0
:103320000E94FC05EFCF55E0E51609F476CFEACF11
:10333000DD2029F082E08E1508F46FCFDDCF91E01B
:103340009E1508F46ACFE0CFEE20F1F2B9E3AB129C
:10335000BAC1EFEFF7EE13E0E150F0401040E1F7B3
:1033600000C00000802F0E94851157CF812F8695C5
:103370008695837061F0813009F04FCFC80193705A
:10338000D11002C090E080E00E947C0646CFC801C8
:103390009370D11002C090E080E00E9492063DCF71
:1033A000802FDD2039F00E9479070E94350D0E94A0
:1033B000350D33CF0E94B406FACF812F837009F008
:1033C00067C0D1102ACF202F229526952770220F73
:1033D000220F802F8F7090E0B0E0A0E0022E04C09A
:1033E000880F991FAA1FBB1F0A94D2F740E050E034
:1033F000BA0104FF0FC04FE050E060E070E004C08D
:10340000440F551F661F771F2A95D2F74095509598
:1034100060957095E12FE695E695E370E23029F12D
:10342000D8F40091F7011091F8012091F901309141
:10343000FA01E13069F0842B952BA62BB72BBC0148
:10344000CD0160237123822393230E94990EE5CE40
:10345000802B912BA22BB32B8C019D01042B152BC0
:10346000262B372BC901B801F0CF842B952BA62B27
:10347000B72B0091F7011091F8012091F9013091DB
:10348000FA01BC01CD016027712782279327DDCF88
:103490008695DD2011F0812F8170882309F4BDCE3F
:1034A000202F229526952770220F220F802F8F70B4
:1034B00090E0B0E0A0E0022E04C0880F991FAA1F80
:1034C000BB1F0A94D2F740E050E0BA0104FF0FC0DE
:1034D0004FE050E060E070E004C0440F551F661FED
:1034E000771F2A95D2F74095509560957095E12FFA
:1034F000E695E695E370E23029F1D8F400914602B2
:10350000109147022091480230914902E13069F060
:10351000842B952BA62BB72BBC01CD0160237123E7
:10352000822393230E94FB0D78CE802B912BA22B1C
:10353000B32B8C019D01042B152B262B372BC90196
:10354000B801F0CF842B952BA62BB72B0091460208
:10355000109147022091480230914902BC01CD01EF
:103560006027712782279327DDCF1F70DD2029F088
:10357000812F0E94620E802FC0CE802F0E946B068A
:10358000812F0E94230E49CE802F22EFA21609F42C
:1035900055C02A1578F030EFA31641F141EFA4167B
:1035A00009F444C0DD2009F482C0E1101DCE812F52
:1035B0008F7141C053EFA51609F445C094EFA912CD
:1035C000F1CF8091ED01DD2009F45DC00E94B005CE
:1035D0008091F0018770843009F048C00E94F505A1
:1035E000812F8F710E94230EC12C17CEDD20C9F0D0
:1035F000A1E0AE1508F411CE1F7161E070E080E02B
:1036000090E004C0660F771F881F991F1A95D2F7A4
:1036100000914602109147022091480230914902E0
:103620009FCFB2E0BE1508F4F8CDE6CF812F8F71A1
:10363000DD2009F4A6CF0E94620EEFCD812F8F719D
:10364000DD20C9F39ECF60E070E0CB01DD2009F4FE
:1036500069CF1F7161E070E080E090E004C0660F08
:10366000771F881F991F1A95D2F75CCFE4E0EE15FB
:1036700008F4BACF1F71812F0E94620E63E0812F80
:103680000E94830EB1CF9091F301982B9093F30198
:10369000F4E0FE1540F40E94F5050E94FC0564E08C
:1036A000812F8F71EDCF81E00E94460E9DCFEE20DD
:1036B00079F0893341F41FEF27EE33E011502040B9
:1036C0003040E1F74DCE8FE39CE90197F1F748CE0A
:1036D000812F8F7156CFF0E18F16FFE59F0609F419
:1036E00027CC01E180160FE5900609F42BCCA3EF5F
:1036F0008A16ACE59A0609F42BCC08F099C0E8EDDF
:103700008E16ECE59E0609F41FCCF9ED8F16FCE54C
:103710009F0609F429CC07ED80160CE5900609F008
:1037200095C026E241EE61EEC3010E94361285C8C3
:1037300085E0F301DE01119601900D928A95E1F783
:10374000D30112962C9189819A81211146C80E9439
:103750000206182F4AC82AE582162DE5920609F4BA
:1037600021CD68F481144CE5940609F40BCD5EED8F
:1037700085165CE59506B9F40E9442135EC88BE598
:1037800088168DE5980609F40FCD9CE589169DE510
:10379000990649F48091FD0182FB882780F991E028
:1037A00089270E948C0CF30182810081118188237A
:1037B00009F4FCCCC8010E941C0CF82E682FC8012B
:1037C0000E943006B8018F2D0E94920A8C01A82E0B
:1037D000D3011296DC9012971596EC90E2943FE09C
:1037E000E3228091F0018770A1F0CD2CDD2091F0D3
:1037F000812F807F803421F080E2800F883048F074
:1038000082E00E94460E8091F0018770CC24C39420
:103810008111C12CB12EB2942FE0B222BBE0BB15B6
:1038200008F4FBCCEB2DF0E0E05CF74D0C94912715
:1038300015EF81161CE5910609F492CB08F48CCBA8
:1038400036EF83163CE5930609F487C010924502D3
:10385000E2E08E16ECE59E0608F47ACCF6E18F16CF
:10386000FCE59F0630F0C4018A5F9C45099708F08B
:103870006FCC0E94420A9093FD018093FC0100E10D
:1038800080160CE5900609F432CC08F0B5CB28E0A0
:1038900082162CE5920609F420CC08F07ECB44E099
:1038A00084164CE5940609F410CC08F060CB82E055
:1038B00088168CE5980609F402CC8091FC018260A0
:1038C00093E089169CE5990609F4FCCB6091FC0114
:1038D0001091FD0184E090E00E94F227612F82E2C6
:1038E00090E00E94F2270E94A30E0C941D14E33F67
:1038F0004CE5F40709F42CCB28F5E83D8CE5F807F6
:1039000009F422CBE93D9CE5F90709F42DCBE73D0D
:10391000ACE5FA0709F405CFE631FC4509F043CFE1
:103920008091A40181112CCC89E2E6E7F1E091912C
:10393000891303C0DF0111971C92B1E0EC37FB073C
:10394000B1F71BCCE53FBCE5FB0709F409CB08F454
:1039500003CBE63F1CE5F107F9F627E245EE66EEFC
:10396000E3CE1F93CF93DF938091AB01807FA9F4C7
:103970008091A801882389F08091DD01D091AC016C
:103980006091A6017091A701A091A901B091AA012F
:10399000C62FC72316E0D81304C0DF91CF911F9123
:1039A000089590E0109711F0CF3F19F401968770B9
:1039B000F2CF189F9001199F300D1124F901E355A2
:1039C000FE4F41814713F2CF40814613EFCF428132
:1039D0004111ECCF438154814A1B5B0B483C51059C
:1039E00028F78091AB018F7080618093AB01F90162
:1039F000EE54FE4F80818F708061808386EA91E073
:103A00000E94AD13DF91CF911F910C946106AF928C
:103A1000BF92CF92DF92EF92FF920F931F93CF93BB
:103A2000DF93CDB7DEB761970FB6F894DEBF0FBE58
:103A3000CDBF8C0185E0F801DE011D9601900D924D
:103A40008A95E1F7F80180819181E28026EAA22E31
:103A500021E0B22E6091A9017091AA016115710552
:103A600009F43EC13091A6014091A701232F2423E0
:103A70002F3F09F435C1C380D480F090A801F6012E
:103A8000E61BF70BFF2009F4FBC02091AB01522F7E
:103A9000507FE83CF10508F0BBC0511178C0FE2C06
:103AA000491321C038131FC0E1101DC02F702061C1
:103AB0002093AB01C5010E94AD138091AB01F801C9
:103AC00085838F2D61960FB6F894DEBF0FBECDBFF4
:103AD000DF91CF911F910F91FF90EF90DF90CF90EA
:103AE000BF90AF900895CD2829F0282F29232F3F8C
:103AF00009F014C120E0F22FF170DF2E20FF3DC04D
:103B00002091DD014091AC0156E0241315C08D8752
:103B10009E878D859E850E945E0C292F22952F7091
:103B20002230F8F0243020F59F70F9F0F8019581EB
:103B3000907FD9F4D12C1FC030E0529FF001539FE9
:103B4000F00D1124E355FE4F6181961306C060818C
:103B5000861303C06281E61210C02F5F3F4F2770AB
:103B6000D4CF9F7011F0882329F3805E883010F342
:103B7000C8010E94AD13FD2CA4CFEE2009F4A1CF03
:103B80008091AB0181608093AB01F12C9ACF4913F6
:103B900012C0381310C0E1100EC0F8012583C8010F
:103BA0000E94AD1386E0F801A6EAB1E001900D9203
:103BB0008A95E1F786CF8D879E878D859E850E94A9
:103BC000680C882309F1EE20F9F08091AB01803276
:103BD00070F02091A6013091A70138872F831986B4
:103BE000DB86CA868C87CE0107960E94AD1386E0DD
:103BF000F801A6EAB1E001900D928A95E1F70E94E2
:103C0000B11CFF24F3945DCFC8010E94AD13F9CF1E
:103C100051110AC086EA91E00E94AD1386E0F501D9
:103C200011928A95E9F7B1CF49130FC038130DC02F
:103C3000E1100BC0F8012583C8010E94AD1386E096
:103C4000F50111928A95E9F73CCF8D879E878D8586
:103C50009E850E94680C8823B9F2EE20A9F280911B
:103C6000AB01803220F22091A6013091A7013A8366
:103C700029831B82DD82CC828E83CE010196B5CF53
:103C8000E83CF105E0F6FE2CEE2009F4BDCF491327
:103C900016C0381314C08091AB0180FD83CF982FDC
:103CA000907F09F47FCFF8018583903F09F477CFA7
:103CB000982F907F905F8F70892B858370CF8D8731
:103CC0009E878D859E850E94680C811190CF809182
:103CD000AB0181608093AB01C8010E94AD13F1CEAE
:103CE000EE2009F491CF8D879E878D859E850E9459
:103CF000680CF82E882309F487CF86E0F801A6EA3D
:103D0000B1E001900D928A95E1F78091A601909122
:103D1000A7010E945E0C0E94B11CD3CE21E02E258B
:103D2000EACE1F93CF93DF93CDB7DEB767970FB679
:103D3000F894DEBF0FBECDBF342F4B8B252F5C8B8D
:103D40006D8B7E8B8F8B8E899F8961111092F20112
:103D50001A8A198A3D872E876F87998B888B0E94D4
:103D60007F052091EE013091EF01821B930B883883
:103D7000934120F08091F00182FF7FC00E947F0577
:103D80002091F4013091F501821B930B8838934107
:103D900010F00E94A50586E0FE013D96DE01179613
:103DA00001900D928A95E1F7CE0107960E94071DBA
:103DB000882389F016E08091DD019091AC01891390
:103DC00049C067960FB6F894DEBF0FBECDBFDF9136
:103DD000CF911F91089586E0FE013796DE0111967E
:103DE00001900D928A95E1F78A859B85892B11F3C5
:103DF00088859F8189238F3FE9F22091AC0130E0D3
:103E0000C9010196877099274091DD01481719066D
:103E100071F40E94A30E1092AC011092DD0186E0B5
:103E2000E6EAF1E0DF011D928A95E9F7C3CF96E05B
:103E3000929FD001939FB00D1124A355BE4FFE0158
:103E4000319601900D929A95E1F78093AC010E9412
:103E50006106B0CF819FC001112483559E4F0E94FF
:103E6000071D882309F4ADCF8091DD0190E0019614
:103E7000877099278093DD019ECF82E00E94460ED5
:103E80007DCF1F920F920FB60F9211242F933F9365
:103E90004F935F936F937F938F939F93AF93BF9352
:103EA000CF93DF93EF93FF93D091E900DF70809180
:103EB000EC00C82FC17080FDC0E81092E90080912D
:103EC000F000877F8093F00078940E94AE0E1092ED
:103ED000E9008091F00088608093F000CD2BCF70D6
:103EE000C093E900FF91EF91DF91CF91BF91AF9126
:103EF0009F918F917F916F915F914F913F912F9102
:103F00000F900FBE0F901F9018951F920F920FB633
:103F10000F9211242F933F934F935F936F937F934F
:103F20008F939F93AF93BF93EF93FF938091E100A3
:103F300082FF15C08091E20082FF11C08091E100F4
:103F40008B7F8093E10020912B022F5F822F62E311
:103F50000E947127992309F4BEC020932B028091FF
:103F6000DA0080FF28C08091D80080FF24C08091B3
:103F7000DA008E7F8093DA008091D90080FFE1C063
:103F800080E189BD82E189BD09B400FEFDCF81E0F9
:103F9000809342028EE694E00E94080380912C02F6
:103FA000811109C00E94AA030E949D048091E20031
:103FB00084608093E2008091E10080FF1BC08091CB
:103FC000E20080FF17C08091E2008E7F8093E200C4
:103FD0008091E20080618093E2008091D80080624D
:103FE0008093D80019BC85E08093420286E794E074
:103FF0000E9408038091E10084FF2DC08091E200BF
:1040000084FF29C080E189BD82E189BD89B5982FEF
:10401000917080FFFBCF8091D8008F7D8093D80076
:104020008091E1008F7E8093E1008091E2008F7E9D
:104030008093E2008091E20081608093E2008091B1
:104040003902882309F487C084E0809342028AE71A
:1040500094E00E9408038091E10083FF2BC08091CF
:10406000E20083FF27C08091E100877F8093E10019
:1040700082E080934202109239028091E1008E7FAB
:104080008093E1008091E2008E7F8093E200809136
:10409000E20080618093E20042E060E080E00E9404
:1040A0006B048091F00088608093F0008EE794E0CC
:1040B0000E940803FF91EF91BF91AF919F918F9163
:1040C0007F916F915F914F913F912F910F900FBE14
:1040D0000F901F90189510922B0280912A0288232E
:1040E00009F43DCF809142028430C1F49091E900FF
:1040F0009F702091EC00822F817020FD80E8892B39
:1041000095E09093E9009091EB0090FF04C09091AE
:10411000EE0097FD08C08F708093E90010922A028C
:104120001ECF1092F1009091E80095FDFACF90918A
:10413000E80090FFF0CF9091E8009E779093E80020
:10414000EACF19BC1092420282E794E00E94080371
:1041500010922C0230CF8091E30087FD93E0909382
:10416000420275CFCDB7DEB7E4970FB6F894DEBF45
:104170000FBECDBF84B7877F84BF0FB6F894A895D4
:1041800080916000886180936000109260000FBE93
:1041900080E890E00FB6F8948093610090936100FE
:1041A0000FBE85B7806885BF85B7806885BF8FEBF8
:1041B00098E09093730180937201269A219A239A32
:1041C0000E94AA030E949D048091E2008460809373
:1041D000E2007894809142028823A1F01091E900D6
:1041E0001F709091EC00892F817090FD80E8182B52
:1041F0001092E9008091E80083FD0E94AE0E1F70CE
:104200001093E90082E084BD93E095BD9AEF97BDDD
:1042100080936E0084EF0E94E10785EF0E94E10722
:1042200086EF0E94E10787EF0E94E10786E60E9481
:10423000E10787E90E94E10786EC0E94E10784E339
:104240000E94E10785E30E94E1071092FE011092AF
:104250001E021092FF0110921F0210920002109293
:104260002002109201021092210290E080E00E9450
:10427000EC278A3E9E4F11F00E94421382E090E0AC
:104280000E94E427809315020E94420A9093FD0148
:104290008093FC010E94A9098FE39CE90197F1F743
:1042A00000C000000E94A9098091210280FF17C070
:1042B0006FEF83E290E00E94F2276FEF84E290E0DC
:1042C0000E94F2276FEF85E290E00E94F2276FEFE5
:1042D0007FEF90E080E00E9410280E945F0583E05D
:1042E00090E00E94E427682F70E090E080E00E9458
:1042F000990E609146027091470280914802909118
:1043000049020E94A6082E9A299A2B9A9FEFE7EE5F
:10431000F3E09150E040F040E1F700C000002E983B
:1043200029982B982FEF37EE43E021503040404042
:10433000E1F700C000002E9A299A2B9A8FEF97EE92
:10434000E3E081509040E040E1F700C000002E988B
:1043500029982B9883E290E00E94E427823F09F09D
:104360004AC584E290E00E94E427823909F043C5FF
:1043700085E290E00E94E427823609F03CC522984D
:104380002A9A54985C9A83B182FB882780F94C99C9
:1043900066C090E0892B8093070280E091E09093C3
:1043A0000302809302028DE594E00E9408038EE1EF
:1043B00092E0F4E0F80FFCAB80914202853099F472
:1043C00089E594E00E940803F0E4FF2E00E112E189
:1043D00080914202853009F444C00E94A30E0E94DD
:1043E000A8060E943B080E94A909882359F08FB7AC
:1043F000F89440912202509123026091240270911E
:1044000025028FBF66E1662E62E0762E7EE1C72E22
:1044100072E0D72E10E000E0EDE4AE2EE3E0BE2E19
:104420000BABF60151906F01F30141903F01451034
:1044300052C00F5F1F4F0430110591F78FEF8EA709
:104440008FA718AA0E947F058160782F9AAB89AB4D
:104450004EA55FA568A98AA90E94911E62C092E03C
:1044600099CF80914202843031F180E00E943B0874
:104470001092040228E130E00FB6F894A89520933A
:1044800060000FBEF092600083B7817F846083BFBD
:1044900083B7816083BF7894889583B78E7F83BF0D
:1044A0000FB6F894A89580916000886180936000B1
:1044B000109260000FBE80913802882309F488CFE3
:1044C0000E94A909EEE1F2E0819181117EC43CA92C
:1044D0003E13FACF7DCF8091150281FD9AC145240C
:1044E00080E0FF24F3949F2D942109F4C4C189A78F
:1044F0004BA94AA75F2081E009F480E08BA70E94C6
:104500007F058160782F9DA78CA749A55AA56BA52B
:104510008DA50E94911EF801EA5EFD4F8081F8266C
:10452000F082E0910702EE0FEE0FE093070283B1F5
:1045300082FB222420F84C99A4C180E08229E82B38
:10454000E0930702EF70F0E0E35BFE4F8081909113
:104550000602890F8093060220E08430ACF080913F
:1045600005028F5F809305026091460270914702B9
:1045700080914802909149020E945908811184C19A
:1045800089EA0E941B1221E0809106028D3FACF463
:1045900080910502815080930502609146027091DE
:1045A000470280914802909149020E945908811166
:1045B0006DC18AEA0E941B1221E080910602082E3A
:1045C000000C990B64E070E00E947D278093060246
:1045D000222359F08FB7F894409122025091230280
:1045E00060912402709125028FBF86E0EEE0F2E038
:1045F0008E010F5F1F4FD80101900D928A95E1F750
:10460000D0901002C0901102F0901202E0901302BC
:1046100010921002109211021092120210921302C4
:104620008D2D8C2909F448C080910C0290910D02C7
:104630000E9470059C0190910B02992309F401C41A
:1046400023333105C8F19F3F19F09F5F90930B0210
:10465000DD2059F00E9459079FEF1D140CF491E0E2
:10466000899F802D112480931002CC2059F00E9444
:1046700059079FEF1C140CF491E0899F802D1124A1
:1046800080931102309110023323B1F02091110276
:10469000222391F045EB3403C0011124992309F43E
:1046A000F7C09093100245EB2403900111243323AB
:1046B00009F4F2C0309311028F2D8E2909F448C0FD
:1046C0008091090290910A020E9470059C019091CC
:1046D0000802992309F4B0C325363105C8F19F3F7C
:1046E00019F09F5F90930802FF2059F00E9437074E
:1046F0009FEF1F140CF491E0899F802D112480936B
:104700001202EE2059F00E9437079FEF1E140CF49E
:1047100091E0899F802D1124809313023091120221
:104720003323B1F020911302222391F045EB34039F
:10473000C0011124992309F4B3C09093120245EBF0
:10474000240390011124332309F4AEC030931302E3
:104750008091100290911102892B90911202892B65
:1047600090911302892B11F00E94350D86E0F8011B
:10477000AEE0B2E001900D928A95E1F70E94A806A2
:1047800090911402891731F00E94A80680931402B8
:104790000E943B0880914202843009F00DCE83E0F4
:1047A0008093E9008091E80082FF06CE8091E800C6
:1047B00090E085FF0AC00E94C90340E2E42EF12C7C
:1047C0006801882309F47EC091E08091E8008B772E
:1047D0008093E800992309F4EFCDE0902802F0904F
:1047E00029028981E114F10409F47AC08E3F09F0AD
:1047F00004C18A81833020F08550833008F0FDC0E9
:10480000EA81EE3008F0F9C0F0E0E45BF74D0C947B
:1048100091278AE593E00E9408035EE1852E52E02D
:10482000952EF12CE12CFF92EF9225E533E03F939A
:104830002F930E94A10382E593E00E940803F401F4
:1048400081914F010E9441081F928F93BF92AF92B6
:104850000E94A1038BE493E00E940803FFEFEF1A8C
:10486000FF0A0FB6F894DEBF0FBECDBF34E0E316EB
:10487000F104C9F634CE8F5FFF0C853009F033CEDA
:10488000D8CD82E090E05ACE8FE47BCE80E592CE08
:1048900081E08093100207CF81E0809311020CCF5A
:1048A00081E0809312024BCF81E08093130250CFBE
:1048B0008091F100F60181936F01F1E0EF1AF108A8
:1048C00009F482CF8091E80085FDF2CF8091E80065
:1048D0008B778093E8000E94C903882399F374CFF3
:1048E0008C3009F4C9C050F5843009F4ACC058F4D8
:1048F000823009F468C008F097C0813009F45FC0C5
:104900008FEF89837AC0863009F4B3C008F4A6C05B
:104910008B30B1F78091260290912702892B09F400
:104920006CC0C8010E9424043FEF41EE84E0315086
:1049300040408040E1F700C00000CFCC803109F456
:10494000CBC088F58E3009F49EC008F498C08091E1
:10495000260290912702892B09F44FC0EC80F12C9C
:104960003DE1E316F10408F048C0CA80DB80DC2496
:10497000CD24DC245801E00EF11EC60189539F4F5F
:10498000EA14FB04D1F149E3C41643E0D40620F451
:10499000F50164810E94F227FFEFAF1ABF0A2FEFE3
:1049A000C21AD20AEACF823109F49BC008F497C038
:1049B000833109F4BDC08E3F09F0A2CF21CF1A8206
:1049C00089E08B831AC08A81823009F42DC283303A
:1049D000C1F0813009F094CF2FB7F8946091220292
:1049E0007091230280912402909125022FBF0E9492
:1049F00097276B837C838D839E83C8010E94240448
:104A0000DBCC8091260290912702892BB1F3809113
:104A10001E028B8380911F028C83809120028D83E4
:104A2000809121028E83E9CF8A81823009F068CF9C
:104A30006B817C818D819E810E94972786E290E028
:104A40000E94F227DACF4C816B818A810E94500A42
:104A50009827892798279E838D83CFCF2D813E81EC
:104A60003227232732274C816B818A810E94B60C22
:104A7000C4CF0E94EB0CC1CF80E18A83BECF83E01C
:104A80008A8389E39ECFEC80F12C2DE1E216F104BC
:104A900008F0B3CFCA80DB80DC24CD24DC245801AD
:104AA000E00EF11EC60189539F4FEA14FB0409F47E
:104AB000A4CF39E3C31633E0D30658F40E94E427A9
:104AC000F5018483FFEFCF1ADF0A2FEFA21AB20A93
:104AD000E9CFF5011482F6CF0E94A60C8ECF84E0B8
:104AE000CCCFEC80F12C3DE1E316F10408F085CF4A
:104AF000CA80DB80DC24CD24DC245801E00EF11ECA
:104B0000C6018796EA14FB0409F477CF40EAC4167D
:104B1000D10458F40E94E427F5018483FFEFCF1AF3
:104B2000DF0A2FEFA21AB20AEBCFF5011482F6CFFB
:104B3000CC80D12C3DE1C316D10408F05ECFEA80D1
:104B4000FB80FE24EF24FE2440EAE416F10408F082
:104B500054CF80EA90E08E199F098C159D0508F4CA
:104B60004CCF370187E2680E711C8091260290912C
:104B70002702892BB9F5570191E0A922BB24E0FE59
:104B80000DC0C70186960E94E4279D81892798273A
:104B9000892781159C4511F48FEF8D83C7018C0DFA
:104BA0009D1D460180FF17C0F1E08F1A910835E086
:104BB000432E512C4C0E5D1E480C591CC3018C0D0C
:104BC0009D1D0E94E427F201908181159C4519F4F6
:104BD0008FEFF2018083F801EA0DFB1D2FEFA8147F
:104BE000B90420F05801C00ED11E1AC094818581ED
:104BF00081159C4511F42483258342E0A40EB11C49
:104C00003296EDCFE0EAEE16F10420F4F50164816E
:104C10000E94F227FFEFAF1ABF0A2FEFE21AF20A43
:104C2000C7018796AC14BD0469F7E7CE88E0EBE0D6
:104C3000F1E0DE01919601900D928A95E1F780E214
:104C4000F80111928A95E9F784E0898388E0FE01F2
:104C5000B196DE01159601900D928A95E1F7CDCEC1
:104C600080EF89831A821B821C82C7CE8C81682FB9
:104C700070E0762F66278B81860F972F911D092E66
:104C8000000CAA0BBB0B25E0880F991FAA1FBB1FA6
:104C90002A95D1F7AC01BD01405E5F4F6F4F7F4F4A
:104CA000481759076A077B0708F4A7CE803F91058C
:104CB000A105B10508F0A1CE413F5105610571057F
:104CC00020F040EF50E060E070E0481B590BBC0161
:104CD00067597C4FC8010E94D4278FCE4AE150E02B
:104CE0006FEF70E0CE0107960E94DD2780912602CB
:104CF0008983EA821B8283E08C831D8284E092CECA
:104D000081E090E0909329028093280282E390E072
:104D100090931D0280931C020E947F0590931B02BA
:104D200080931A026ACEEF2851F1F0901E02809112
:104D30001A0290911B020E9470058536910540F180
:104D4000F3FE26C0F4FE24C00E947F0590931B0250
:104D500080931A0280911C0290911D0201979093FA
:104D60001D0280931C02892B51F41092290210928B
:104D7000280281E090E090932702809326028091A0
:104D800026028983809128028A8380911C0219CE91
:104D900082E390E090931D0280931C02F0CF10926A
:104DA00027021092260229CE40E250E06FEF70E019
:104DB000C8010E94DD2721CE8B8181111ECE80E2A9
:104DC000F80111928A95E9F718CE09BD19BD09B409
:104DD00000FEFDCF8091D8008F7D8093D800809118
:104DE000E00082608093E0008091E00081FDFCCFD4
:104DF0000E94A30EEDCA60E086E290E00E94F227D6
:104E00000E94EB0C0E94A60C62EF83E290E00E94ED
:104E1000F22762E984E290E00E94F22762E685E2EE
:104E200090E00E94F227ABCA86E290E00E94E4275D
:104E30001B821C821D82F6CD2D32314008F051CCF0
:104E400087CC2D32314008F000CC36CC78941F92BC
:104E50001FB61F9211248F939F93AF93BF9380919E
:104E6000220290912302A0912402B0912502019682
:104E7000A11DB11D8093220290932302A0932402CE
:104E8000B0932502BF91AF919F918F911F901FBE4C
:104E90001F9018951F921FB61F9211248F939F93F6
:104EA000AF93BF9380910402811113C080912202BD
:104EB00090912302A0912402B09125024196A11D58
:104EC000B11D8093220290932302A0932402B093F9
:104ED0002502BF91AF919F918F911F901FBE1F9090
:104EE0001895991B79E004C0991F961708F0961B36
:104EF000881F7A95C9F78095089597FB072E16F4B9
:104F0000009407D077FD09D00E94C02707FC05D088
:104F10003EF4909581959F4F0895709561957F4FD0
:104F20000895EE0FFF1F0590F491E02D0994692775
:104F3000962769277827872778270895002E083035
:104F400090F0982F872F762F652F542F432F322FD5
:104F500022270850F4CF220F331F441F551F661F0E
:104F6000771F881F991F0A95B2F7002D08952A15FB
:104F70003B054C055D056E057F058007910708958B
:104F8000AA1BBB1B51E107C0AA1FBB1FA617B7076F
:104F900010F0A61BB70B881F991F5A95A9F780958B
:104FA0009095BC01CD010895FB01DC0102C0059084
:104FB0000D9241505040D8F70895DC0101C06D9327
:104FC00041505040E0F70895F999FECF92BD81BD60
:104FD000F89A992780B50895A8E1B0E042E050E042
:104FE0000C941828262FF999FECF92BD81BDF89A0E
:104FF000019700B4021639F01FBA20BD0FB6F8941D
:10500000FA9AF99A0FBE08950396272F0E94F32764
:105010000E94F227252F0E94F327242F0C94F327B8
:105020000196272F0E94F3270C94F227DC01CB0175
:10503000FC01F999FECF06C0F2BDE1BDF89A3196A8
:1050400000B40D9241505040B8F70895F894FFCF46
:10505000770C770C800C800C820C800C800C800C00
:10506000770C770C870C800C800C870C930FBB0F90
:105070000E10BB0F0E10EE0F26100E102E113B114E
:10508000DB18DB1836193619B619D0190D190D1998
:10509000DD19B51AC41AC41A162630263626FD2480
:1050A000FD246E2680269326CF26D426FD24FD24BB
:0450B000FD24DC26D9
:1050B4005C057C095B095709530901B2D7BF7930F4
:1050C400920507818283E200E900EA00B500B60098
:1050D400B700CD008301CC008A0192019401210222
:1050E400230224022502260227022A02B300B40066
:1050F4006F007000F4F5F6F76697C6343500FF01CB
:1051040000010000FFFF0000010001FF00402281B8
:105114002271014F01CE00AC009404AD04CD04E62D
:02512400040085
:00000001FF
