:100000000C94C5020C940C030C940C030C940C037C
:100010000C940C030C940C030C940C030C940C0324
:100020000C940C030C940C030C9443210C94FF20AF
:100030000C9411290C940C030C940C030C940C03D9
:100040000C940C030C940C030C940C030C940C03F4
:100050000C940C030C94ED280C940C030C940C03DE
:100060000C940C030C940C030C940C030C940C03D4
:100070000C940C030C940C030C940C030C940C03C4
:100080000C940C030C940C030C940C030C940C03B4
:100090000C940C030C940C030C940C030C940C03A4
:1000A0000C940C030C940C030C940C030631FF0904
:1000B00074A1010975150026FF00952075088102BD
:1000C0000976150026FF00952075089102C00501EC
:1000D0000902A10185020901A100050919012905EB
:1000E00015002501950575018102950175038101B2
:1000F0000501093009311581257F950275088106B2
:1001000009381581257F950175088106050C0A3887
:10011000021581257F950175088106C0C00501097A
:1001200080A101850319012AB700150126B70095A2
:100130000175108100C0050C0901A1018504190198
:100140002AA002150126A002950175108100C006A3
:1001500060FF0961A1010962150026FF0095207565
:100160000881020963150026FF0095207508910299
:10017000C005010906A101050719E029E7150025B9
:10018000019508750181029501750881010507191E
:100190000029FF150026FF00950675088100050857
:1001A00019012905950575019102950175039101C4
:1001B000C00000000000000000000000000000007F
:1001C000000000000000000000000000000000002F
:1001D00000000000007E0F00D4FFFFFFC7000000FA
:1001E0007800000000000000002A2B28000000001A
:1001F00000000000000000000000000029000000D6
:10020000002C1E3420212224342627252E362D377B
:1002100038271E1F202122232425263333362E374C
:10022000381F0405060708090A0B0C0D0E0F1011E4
:1002300012131415161718191A1B1C1D2F313023F1
:100240002D350405060708090A0B0C0D0E0F1011B9
:1002500012131415161718191A1B1C1D2F313035BF
:100260004C290A002575002F002575005D28002502
:10027000640020002564002000256400200025641F
:10028000007C0025303258006D6F7573656B6579A1
:10029000205B62746E7C782079207620685D2872FD
:1002A00065702F61636C293A205B00AA00A90001E8
:1002B00000010050004F005100520000002A005F72
:1002C000006000610000002B005C005D005E00002B
:1002D00000AD0059005A005B00A800AE00637262D6
:1002E00000284100004B004A0052004D0000004E23
:1002F00000500051004F00000056005700540055B8
:1003000000530012501350B2000100000070007141
:10031000007200730000006C006D006E006F000042
:1003200000680069006A006B0010500100010001C4
:1003300000010000000100010001000100000001B7
:1003400000010001000100000001000100010001A6
:1003500000105001000100010001000A00253038A2
:1003600062003A200025303258000A722F63203094
:10037000313233343536370A00FD377A585A0000A7
:1003800004E6D6B4460200210116000000742FE5F1
:10039000A3E0018100C25D003D8889C65436C317C1
:1003A0004FE4DD58B328CAAE631D16EE2F4A09ABE1
:1003B0000E60A09FA63A0063E15C9CE49347CF43A4
:1003C0006EE009D91BC8130E79DC99DEDD5D90CA99
:1003D0004F189645E92EEAC6FB537633C61DDE72EA
:1003E00059619D7C234345AFF3C35FC46BBA03A936
:1003F0002B67CB8A015D703E46859C84A542616E69
:10040000864FF2547D685585FE1C76C9A9F6835C3B
:100410002F3BE1B1F33AD103DD46BD2C7CCDA79E45
:10042000217075E0CF99D24FDE45643100D3CBEE19
:10043000F1DB9353B667F9323D12633DE6AE6E05CC
:10044000C36A56F89456670E2737E37087BE57FB8A
:10045000FCF63FEEF32E1A24F826000000BE57BB30
:100460003A5E77C3A30001DE0182030000DB401780
:1004700093B1C467FB020000000004595A5B735D2E
:10048000004B6579626F6172642073746172742EBF
:100490000A005B435D005B445D005B535D005B579E
:1004A0005D005B525D0009027B00040100A0FA09B7
:1004B0000400000103010100092111010001224093
:1004C000000705810308000A090401000203000077
:1004D00000092111010001222200070582032000EA
:1004E00001070503032000010904020001030000C5
:1004F0000009211101000122810007058403200069
:100500000A0904030002030000000921110100018F
:1005100022220007058503200001070505032000AE
:1005200001120110010000000853A1BEF3100001E8
:100530000203011C037600690061006C003A00664A
:1005400000360034006300320062003300630000B4
:10055000001A03440075006D0062005000610064E1
:10056000002000560031002E003100000016036903
:10057000006D00630068006900700077006F006F15
:100580000064000000040309040011241FBECFEF23
:10059000DAE0DEBFCDBF04B603FE27C080914C0277
:1005A00090914D02A0914E02B0914F028730904B36
:1005B000A740B04BD1F410924C0210924D02109211
:1005C0004E0210924F0214BE84B7877F84BF0FB6CD
:1005D000F894A895809160008861809360001092E3
:1005E00060000FBEE0E0F8E3099511E0A0E0B1E0A3
:1005F000E2E4F4E502C005900D92A237B107D9F705
:1006000022E0A2E7B1E001C01D92AC34B207E1F7ED
:100610000E9470220C94ED290C940000FF93EF933C
:10062000E0917201F0917301309709F00995EF9113
:10063000FF910895FC018591803011F0EFDFFBCF31
:100640000895FF27E0E230E247FF0CC0419597FF95
:1006500009C0EDE26095709580959095611D711DC2
:10066000811D911D27FF02C0219530E350E2AA278A
:10067000660F771F881F991FAA1FA41710F0A41BCD
:1006800063955A95A9F7AA3008F0A95FA05DAF93CA
:10069000F395611571058105910541F7ED3211F46E
:1006A000EF93F395F21718F43F93F395FBCF8F91E7
:1006B000B5DFFA95E1F70895E991F99185918030D8
:1006C00021F0853219F0AADFF9CF089520E0E894EF
:1006D00055915532C1F3503311F4689455915A3302
:1006E00048F4505390F3220F022E220F220F200DB8
:1006F000250FF4CF0EF4219589919991533619F372
:10070000533729F1533559F1BC0188279927E894CB
:100710005C3621F48991999168945591543639F455
:1007200046EF7EF077FF0DC08FEF9FEF0AC0553781
:100730004AE039F0583540E121F0523642E009F004
:100740000895FF93EF937DDFEF91FF91B7CFFF9374
:10075000EF93FC0181918030B9F360DFFBCFFF9311
:10076000EF9368DFF1CFDF93CF93CDB7DEB7259658
:10077000A3DFCF91DF910895E8EDF0E080818E7FD7
:1007800080831092E2001092DA001092E100A0EE55
:10079000B0E08C9181608C9380818F77808319BCCD
:1007A000A7EDB0E08C918E7F8C9380818F7E8083CB
:1007B00010922A0208952091E4003091E50095E618
:1007C000A9012091EC00822F817020FF06C080914A
:1007D000E80080FF06C080E008952091E80022FD37
:1007E0001AC080914002882389F0853089F0809179
:1007F000EB0085FD0FC02091E4003091E500421729
:100800005307F9F29150E1F684E0089582E00895EB
:1008100083E0089581E00895EF92FF920F931F9374
:10082000CF937C018B010E94DB03C82F811117C07D
:100830008091E80085FD0BC08091E8008E77809361
:10084000E8000E94DB03882399F3C82F08C0F70152
:1008500081917F018093F1000150110949F78C2F9C
:10086000CF911F910F91FF90EF900895CF93FC01CE
:1008700080914002843001F5C091E900CF70209151
:10088000EC00922F917020FD90E8C92B82E08093BC
:10089000E9008091E80080FF0CC050E040E060E299
:1008A00070E0CF010E940C048091E8008E77809365
:1008B000E800CF70C093E900CF910895809138028D
:1008C00087FF13C08091E80082FF06C08091E80096
:1008D0008B778093E80004C0809140028111F2CFB1
:1008E0000895809140028823D9F38091E80080FF29
:1008F000F8CF8091E8008E77ECCF982F9093E900A5
:10090000242F762F50E0891731F07091EC00209160
:10091000ED005091F00021FD07C09F5F973071F707
:100920008093E90081E008953091EB003E7F3093A1
:10093000EB003091ED003D7F3093ED003091EB0006
:1009400031603093EB007093EC002093ED005093F6
:10095000F0002091EE0027FDE0CF80E00895CF92D7
:10096000DF92EF92FF920F931F93CF93DF93C8ED27
:10097000D0E088818F7E8883E7EDF0E08081816020
:10098000808384E082BF81E080932A0288818E7F09
:10099000888302EE10E0F80110821092DA0081EEF6
:1009A000C82ED12CF601108288818F7788838881A8
:1009B0008068888388818F7D888319BC109240026B
:1009C00010923702109236021092350290EEE92E04
:1009D000F12CF70180818B7F8083888181608883FF
:1009E00042E060E080E00E947D04F60180818E7F1D
:1009F0008083F8018081816080838081886080832A
:100A0000F70180818E7F8083888180618883DF9178
:100A1000CF911F910F91FF90EF90DF90CF900895AD
:100A2000FC0180913E0290913F0286179707A0F04B
:100A30006115710529F49091E8009E779093E80084
:100A400090E06115710551F4911108C08091E800A2
:100A500082FF34C080E00895BC01F2CF8091400253
:100A60008823C1F18530C1F18091E80083FD30C059
:100A70008091E80082FDEACF8091E80080FFE1CF1D
:100A80008091F3002091F200382F6115710519F063
:100A90002830310558F091E02830310509F090E018
:100AA0002091E8002E772093E800CBCF81918093AE
:100AB000F100615071092F5F3F4FE7CF80914002F5
:100AC000882341F0853041F08091E80083FFBECF5C
:100AD00081E0089582E0089583E0089580912C02DA
:100AE000089587E797E7909301088093000888E1CD
:100AF0009AE00FB6F894A895809360000FBE90938B
:100B00006000FFCF9C014FB7F89480912002909134
:100B10002102A0912202B09123024FBF821B930BAE
:100B200008952FB7F8948091200290912102A0910E
:100B30002202B09123022FBF08959C01FC0132963E
:100B40009FEF80E04191461751F09F3F19F441110A
:100B500001C0982F8F5F8630A9F79F3F09F4089551
:100B6000290F311D97FD3A95F9016283089580910F
:100B7000F801882331F01092F8011092F7011092D9
:100B8000F601089580959091F50198239093F501D1
:100B900008958091F5019091F401892B9091F301D2
:100BA000892B809374018091F801882319F10E94A8
:100BB00091052091F6013091F701821B930B883843
:100BC000934110F00E94B705809174019091F80153
:100BD000892B8093740120E086E791E0FC0131913C
:100BE000CF0131112F5FF1E08C379F07B9F7211149
:100BF0000E94B705E0910002F0910102309731F0B8
:100C00000280F381E02D84E791E009940895109229
:100C1000F2011092F1011092F00108958091EF011C
:100C200081111092EF0108959E3F51F1292F220F5B
:100C3000220FE22FE90FE80F9E2F9770E695E695B9
:100C4000E69585E0E89FF0011124E052FE4F50E068
:100C500040E080E0219130E0092E02C036952795D2
:100C60000A94E2F721703327042E01C0220F0A9460
:100C7000EAF7822B4F5F5F4F4530510559F70895D2
:100C800080E008959E3F71F1292F220F220FE22F5D
:100C9000E90FE80F8E2F877041E001C0440F8A955D
:100CA000EAF7E695E695E69585E0E89FF0011124E0
:100CB000E052FE4F30E020E070E05191DF011197EB
:100CC000CB01022E02C0969587950A94E2F78170B7
:100CD00081958527842385278C932F5F3F4F25306F
:100CE000310559F708958091DF019091AE01981375
:100CF00001C008958F5F8770FACF882341F08095F7
:100D00009091F40189238093F4010C94C90508950E
:100D1000882339F09091F401982B9093F4010C946E
:100D2000C9050895882321F00E94C2050C94C905C5
:100D30000895882339F09091F501982B9093F5014F
:100D40000C94C905089520918301309184012817DE
:100D5000390771F09093840180938301E091000240
:100D6000F0910102309721F00084F185E02D099483
:100D7000089520918101309182012817390771F07F
:100D80009093820180938101E0910002F091010231
:100D9000309721F00680F781E02D09940895E091C5
:100DA0000002F0910102309721F00190F081E02DD6
:100DB000099480E0089590910E02803F59F480914B
:100DC0000F0287FF0DC010920F0291110BC01092FD
:100DD000090208C0813F81F480910F0218169CF32C
:100DE000992381F08091100290911102892B09F0D2
:100DF00064C0109206020895823F49F497FFF0CF35
:100E000010920E0280910F028111ECCFE0CF833F50
:100E100019F41916ACF3E4CF20911002893F29F49C
:100E20001216F4F610921002DBCF8A3F19F427FF56
:100E3000D7CFF8CF209111028B3F29F427FFD0CFD5
:100E400010921102CDCF8C3F19F41216CCF3C8CFFB
:100E5000843F31F480910D028E7F80930D02C0CFCC
:100E6000853F21F480910D028D7FF7CF863F21F4DD
:100E700080910D028B7FF1CF873F21F480910D028D
:100E8000877FEBCF883F21F480910D028F7EE5CFE5
:100E90008D3F31F48091A7018E7F8093A701A0CF71
:100EA0008E3F21F48091A7018D7FF7CF8F3F09F00E
:100EB00097CF8091A7018B7FF0CF08958091A701F4
:100EC00080FD16C081FD16C082FD16C0809106020D
:100ED0008823A1F0883280F428E0829FC001112489
:100EE00068E270E00E944429862F672B39F008954C
:100EF00082E0089584E0089588E0089581E00895EF
:100F00008091A70180FD14C081FD14C082FD16C030
:100F100080910902882381F0843180F422E3829F4A
:100F2000C001112464E170E00E944429862F0895D5
:100F30008CE0089589E1089585E0089582E308959D
:100F4000803F31F40E948007819580930F020895BD
:100F5000813F19F40E948007F8CF823F31F40E944C
:100F60008007819580930E020895833F19F40E94B3
:100F70008007F8CF893F29F40E945E078093100212
:100F800008958A3F21F40E945E078195F7CF8B3F39
:100F900031F40E945E0781958093110208958C3F81
:100FA00019F40E945E07F8CF843F31F480910D025E
:100FB000816080930D020895853F21F480910D0298
:100FC0008260F7CF863F21F480910D028460F1CFDB
:100FD000873F21F480910D028860EBCF883F21F498
:100FE00080910D028061E5CF8D3F31F48091A701A2
:100FF00081608093A70108958E3F21F48091A7011D
:101000008260F7CF8F3FB9F78091A7018460F1CF5D
:10101000F894E82FE295EF70F0E031A1282F2F70BF
:1010200081E090E001C0880F2A95EAF7982F90950B
:10103000932391A392A1892B82A3789408959091F0
:10104000FA0192FF06C0282F28712830F9F4877F13
:10105000846093FF06C0282F28712831F1F4877E21
:1010600084612091FB0120FF06C0382F3871383091
:10107000D9F4877F816021FF06C0282F287128318D
:10108000D1F4877E816194FD877E0895282F247195
:101090002430F9F68B7F8860DCCF282F247124312F
:1010A00001F78B7E8861DDCF382F3171313019F730
:1010B0008E7F8860E0CF282F2171213121F78E7E2D
:1010C0008861E1CF80FD02C02B9A08952B98089586
:1010D000829590E09C01220F331F220F331F2C7C3E
:1010E00095958795959587958373282B30E0C90151
:1010F000880F991F8A7A359527952575822B089533
:10110000CF93DF939C013A9521153F4168F5EC019F
:10111000CC27D170DC01AA27B270AC0144275470EF
:101120009C012227387094FF11C080E1CD2B09F477
:1011300080E0AB2B09F08062452B09F08064232B03
:1011400009F08068FB01DF91CF91099481E0CD2BFC
:1011500009F480E0AB2B09F08260452B09F0846034
:10116000232B81F38860EECFDF91CF910895CF924A
:10117000DF92EF92FF920F931F938B019C01A901C5
:101180006627772780E1411551056105710519F43E
:10119000B901A80180E0C52ED62EE72EFF24C11488
:1011A000D104E104F10419F0885FB701A6016A01D6
:1011B0007B01F4E0F694E794D794C794FA95D1F7BD
:1011C000C114D104E104F10419F08C5FB701A60148
:1011D0006A017B01E2E0F694E794D794C794EA951C
:1011E000D1F7C114D104E104F10419F08E5FB70105
:1011F000A6017695679557954795452B462B472B26
:1012000009F08F5F80FF0DC02E9A81FF0CC0299AD4
:10121000C901B8011F910F91FF90EF90DF90CF901F
:1012200008952E98F2CF2998F3CF9FB7F894109293
:1012300028029FBF90914002943009F048C020914D
:10124000E9002F703091EC00932F917030FD90E801
:10125000922B25E02093E9002091EB0020FF34C081
:101260002091EE0027FF30C02091F901222321F0C8
:101270002091E80025FF28C01092F90126E0309166
:10128000E80035FF14C08093F1008091E80085FDEF
:1012900027C08091E80080FFFCCF8091E8008E7726
:1012A0008093E8009F709093E90080E0089530916A
:1012B0004002343049F43091EB0035FD05C0215037
:1012C00041F481E08093F9019F709093E9008FEFE2
:1012D0000895EFE9FFE03197F1F700C00000CFCFAC
:1012E0008FB7F89421E0209328028FBFDBCFCF93F4
:1012F000DF9300D00F92CDB7DEB7909140029430CB
:1013000011F589837B836A839093E9008FEF909135
:10131000E800815095FD06C095ED9A95F1F7000023
:101320008111F5CF8091E80085FF0DC050E040E0CD
:1013300063E070E0CE0101960E940C048091E80009
:101340008E778093E8000F900F900F90DF91CF91F0
:101350000895BC0184E00C947709BC0183E00C94EF
:1013600077099C0184E08093E9009FEF8091E80079
:10137000915085FD06C085ED8A95F1F70000911129
:10138000F5CF8091E80085FF0CC050E040E066E0BA
:1013900070E0C9010E940C048091E8008E77809370
:1013A000E8000895CF93DF93EC0181E08093E9009A
:1013B0008FEF9091E800815095FD06C095ED9A95CC
:1013C000F1F700008111F5CF8091E80085FF14C08E
:1013D00050E040E068E070E0CE010E940C04809193
:1013E000E8008E778093E80088E0FE01ADE2B2E08D
:1013F00001900D928A95E1F7DF91CF910895CF92F8
:10140000DF92EF92FF920F931F93CF93DF93C4E489
:10141000D1E08CEFE82E81E0F82ED12C01E010E035
:101420008991F894E82FE295EF70F0E021A18F7098
:10143000A80102C0440F551F8A95E2F7CA01922FF6
:10144000982B91A392A18095892382A3789400C0C0
:10145000E8E4F1E030E020E0C12C4191A42FA29516
:10146000AF70B0E090968C9190E04F7002C095956F
:1014700087954A95E2F780FD49C0802F022E01C072
:10148000880F0A94EAF7C82A2F5F3F4F25303105AD
:1014900021F7FE01319780810E94080850EA5A9591
:1014A000F1F7F7018081C81699F1C08281E0D82A4E
:1014B000FFEFEF1AFF0A41E0C834D40709F0B0CFBC
:1014C000DD2041F181E080937E010E94910590939F
:1014D0007D0180937C0180917C0190917D010E942F
:1014E00082050697D8F08091FC0180931C028091C0
:1014F000FD0180931D028091FE0180931E02809168
:10150000FF0180931F0210927E0108C080E0BBCFD4
:1015100080E0CDCF80917E018111DDCF8D2DDF91D7
:10152000CF911F910F91FF90EF90DF90CF90089592
:10153000CF9384E090E00E94AB29C82F82E290E034
:101540000E94AB29982F8C2FCF9108950F931F9352
:10155000CF93DF93843000F561111EC024E0829F99
:101560008001112450E0440F551F040F151F09532B
:101570001F4FC8010E94AB29C82FD0E0DC2FCC2719
:10158000C80101960E94AB299E01282BC901DF9159
:10159000CF911F910F91089590E080E0F8CF0F93C5
:1015A0001F93CF93DF93843030F5643020F54530BE
:1015B00010F5C42FD0E0CC0FDD1F2AE0629FC00DD4
:1015C000D11D112438E2839FC00DD11D1124CE01FD
:1015D00087960E94AB29082F10E0102F0027CE011C
:1015E00088960E94AB299801282BC901DF91CF91E1
:1015F0001F910F91089590E080E0F8CF462F209141
:10160000260230912702232B91F47E3F39F46E3F5E
:1016100071F480917F01909180010895843038F4B5
:10162000743028F4653018F4672F0C94CF0A90E0DA
:1016300080E00895CF93DF930E94FE0AEC01823888
:101640009105A9F1D8F58133910509F496C048F5C3
:101650008932910509F48AC08A9709F495C0C115A9
:1016600021E5D20708F0BCC0C11530E5D30708F06A
:1016700014C1C83ED10508F09CC0C03ED10560F53C
:10168000C83AD10508F087C0C53AD10508F0FDC0B9
:10169000C130D10509F12097F9F0C430D105E0F44B
:1016A00040C08533910509F45AC0C997C1F68091AD
:1016B000FA01837089F0C0EED0E00EC0833E910540
:1016C00099F170F4803E910501F1823E910539F661
:1016D0008091FA0182FD21C0CE01DF91CF91089562
:1016E000863E910561F1873E910571F1843E910539
:1016F00009F0B5CF8091FB0181FFEECF8091FA0117
:10170000C7EED0E084FD0DC0E7CF8091FA0180FDE7
:1017100012C19091FB0190FFDFCFC3EED0E084FFB8
:10172000DBCFD0E0C0E0D8CF8091FA0182FD06C1C6
:101730009091FB0190FDBFCF84FFCECFF2CF80917F
:10174000FA0183FDDDCFC8CF8091FA0183FDF9C096
:101750009091FB0191FFF0CFC4EED0E0BDCF80911E
:10176000FA0185FFB9CFC9E2D0E0B6CF8091FA0186
:1017700085FFB2CFC5E3D0E0AFCF8091FA0186FFFD
:10178000ABCFCAE2D0E0A8CF8091FA0186FFA4CF08
:10179000C1E3D0E0A1CFCF3BD10518F6C85AD0E0C5
:1017A000CC0FDD1FCA5EDE4F0990D881C02DD464F6
:1017B00093CFC11540E2D40758F4C11581E0D80792
:1017C00008F08ACFC03FD10508F4ABCFD06584CFF5
:1017D000C11590E4D90708F4A4CFDF70D06A7CCF9C
:1017E000C11525E5D20700F5C11534E5D30708F08A
:1017F0008AC0C11543E5D40708F071C0C11582E560
:10180000D80708F467C0CE018370992721E030E043
:1018100002C0220F331F8A95E2F7C695C69580E273
:10182000C89FE001112452C0C11599E5D907A8F459
:10183000C11528E5D20708F06BC0C11536E5D307FE
:1018400008F06FCF8C2F0E941F08C82FD0E0DC2F2C
:10185000CC27CC27DF71D0623FCFC1154AE5D40732
:1018600008F45BC0CE0190568115904208F059CF24
:101870008D2F8F710E941F0890E0982F882788274E
:101880009F719C012C2BE901E6CFC55AD0E0CD5EBB
:10189000DE4FC881D0E0D0641FCFCE01E4E0969542
:1018A0008795EA95E1F783702C2F2695269523706E
:1018B00040E2249F90011124382B8C2F8370C1E0CB
:1018C000D0E002C0CC0FDD1F8A95E2F7C22BD32BEC
:1018D000DC6802CFDC2FCC27C16FD06AFDCECE01F1
:1018E0008370992721E030E002C0220F331F8A95D0
:1018F000E2F7C695C69590E2C99FE0011124C22B7C
:10190000D32BDA68E9CEDC2FCC27C46FD06AE4CEC3
:10191000DC2FCC27C06FD06ADFCE8C2F8F700E9457
:101920001F0834E0D695C7953A95E1F7CF709C2F04
:10193000EC01D069D1CEC9E3D0E0CECEC2EED0E08A
:10194000CBCEC6EED0E0C8CEBF92CF92DF92EF9260
:10195000FF920F931F93CF93DF938C01C0904802A7
:10196000D0904902E0904A02F0904B0280914102EF
:1019700090914202A0914302B0914402C82AD92A10
:10198000EA2AFB2ACFE1D0E0BC2ED701C6010C2EFB
:1019900004C0B695A795979587950A94D2F780FDD0
:1019A0000EC0219788F7B12C8B2DDF91CF911F911D
:1019B0000F91FF90EF90DF90CF90BF900895B80106
:1019C0008C2F0E941A0B019761F3EECFCF93DF9318
:1019D000EC010E94A40CBE01DF91CF910C941A0B74
:1019E0000E94E60C292F2F7092959F7092509E3086
:1019F00078F4E92FF0E0E151F64D0C945829803F3E
:101A000019F020F4883E20F481E00895843FE1F34A
:101A100080E00895883EC0F3813FD1F7F5CF822F53
:101A20008695869586950895CF93C091FB01C2FB5C
:101A3000992790F9981781F080FBC2F9C093FB01B8
:101A40006091FA0184E090E00E94B9296C2F82E253
:101A500090E0CF910C94B929CF910895CF93DF9363
:101A6000C7EDD0E060E0CE010E94B9292196C115F2
:101A700084E0D807B9F7DF91CF9108950F931F93B2
:101A8000CF93DF938901843028F5611123C0423060
:101A900008F521153C4531F42091240230912502AE
:101AA000232BC1F094E0899FE001112450E0440F02
:101AB000551FC40FD51FC953DF4F612FCE010E94A0
:101AC000B929602FCE010196DF91CF911F910F911F
:101AD0000C94B929DF91CF911F910F9108950F9325
:101AE0001F93CF93DF938901843048F5643038F534
:101AF000453028F521153C4531F4209124023091E0
:101B00002502232BE1F0C42FD0E0CC0FDD1F9AE09B
:101B1000699FC00DD11D112498E2899FC00DD11D70
:101B20001124612FCE0187960E94B929602FCE0122
:101B30008896DF91CF911F910F910C94B929DF9175
:101B4000CF911F910F9108957F928F929F92AF92A4
:101B5000BF92CF92DF92EF92FF920F931F93CF939A
:101B6000DF93C0902402D090250281E090E0909312
:101B70002502809324020BEA12E08BEBE82E82E030
:101B8000F82EC0E05701D0E015C0F4012591349142
:101B9000472D6D2F8C2F0E946F0D82E0880E911CB7
:101BA000739485E07812F1CF8AE0A80EB11CDF5F54
:101BB000D43019F04501712CE8CFF801259134910A
:101BC00040E060E08C2F0E943E0DF8013296259196
:101BD000349141E060E08C2F0E943E0D0C5F1F4F5E
:101BE000CF5F88E2E80EF11CC43009F0CBCFD09271
:101BF0002502C0922402DF91CF911F910F91FF9097
:101C0000EF90DF90CF90BF90AF909F908F907F909C
:101C100008958091130283FF7EC088E892E00E94BD
:101C20001A0380910D021F928F9383E892E09F9395
:101C30008F930E94B30381E892E00E941A0380917F
:101C40000E02282F082E000C330B3F938F938EE744
:101C500092E09F938F930E94B3038CE792E00E94DF
:101C60001A0380910F02282F082E000C330B3F938C
:101C70008F9389E792E09F938F930E94B30387E746
:101C800092E00E941A0380911002282F082E000C67
:101C9000330B3F938F9384E792E09F938F930E943F
:101CA000B30382E792E00E941A0380911102282F69
:101CB000082E000C330B3F938F938FE692E09F9397
:101CC0008F930E94B3038CE692E00E941A038091E6
:101CD00009021F928F9389E692E09F938F930E944F
:101CE000B30387E692E00E941A038091A7011F9236
:101CF0008F9384E692E09F938F930E94B30381E6D3
:101D000092E00E941A038DB79EB74C960FB6F894D6
:101D10009EBF0FBE8DBF0E9491059C0190910E0247
:101D200080910F02982B21F030930B0220930A022E
:101D30009091100280911102982B21F030930802AB
:101D400020930702E0910002F0910102309749F0E0
:101D500082E080930C020480F581E02D8CE092E01B
:101D60000994089590E080E00E94B90690E080E038
:101D70000E94A3061092F4011092F3010E94C9057B
:101D800086E0ECE0F2E0DF011D928A95E9F710921F
:101D90000902109206021092A7010C94090E0E94EB
:101DA000B708609348027093490280934A02909367
:101DB0004B020C94B20E0F931F93609148027091E6
:101DC000490280914A0290914B028B019C0106705E
:101DD000112722273327063011052105310529F463
:101DE00068601F910F910C94CF0E677FFACF0F930D
:101DF0001F9341E050E060E070E004C0440F551FC5
:101E0000661F771F8A95D2F7CB01BA01609570954E
:101E100080959095009148021091490220914A02C4
:101E200030914B0260237123822393231F910F91E2
:101E30000C94CF0E9091F201809589238093F2014A
:101E4000282F277039F4282F082E000C330B9217F7
:101E5000130621F49091FB0192FF07C085958595AB
:101E600085950E94F70E0C94070608950F931F9313
:101E700041E050E060E070E004C0440F551F661F71
:101E8000771F8A95D2F78091480290914902A091DC
:101E90004A02B0914B028A019B01082B192B2A2B75
:101EA0003B2BC901B8011F910F910C94CF0E90915B
:101EB000FB0192FD10C098E0899F90011124622BD4
:101EC0006093F2010E94360F0E9491059093F101F8
:101ED0008093F00108950C94360F60934102709343
:101EE000420280934302909344020C94B20E1092EB
:101EF000F501E6E7F1E086E0DF011D928A95E9F75A
:101F00000C94B20E1F93CF93DF93CDB7DEB7AA9791
:101F10000FB6F894DEBF0FBECDBF88E392E02091EC
:101F2000F100DC012D93CD01B2E080349B07B9F7BD
:101F300080913902833009F471C0B8F4813009F41A
:101F400048C0823009F4B2C08091E80083FF3AC1F2
:101F500080913802909139029A3008F033C1E92F0C
:101F6000F0E0E350F64D0C9458298A3009F48DC006
:101F70008B3009F470C0893039F780913802813292
:101F800019F780913C0290913D02009711F0029761
:101F9000D9F68091E800877F8093E8008091E8007F
:101FA00082FF37C09091F3008091F200029729F4EC
:101FB0008091F1008B7F813021F48091F10080933A
:101FC0002C028091E8008B778093E8000E945E04E9
:101FD000BBCF80913802813A09F0B6CF8091E800FA
:101FE000877F8093E80080913C0290913D02892B8D
:101FF00061F468E08DE292E070E00E94100580914B
:10200000E8008B778093E8009FCF60E090E080E06D
:10201000F3CF809140028111C1CF96CF80913802D9
:10202000813A09F091CF80913C0290913D02892B39
:1020300009F08ACF8091E800877F8093E800809143
:10204000E80080FFFCCF80910A018093F10080912D
:10205000E8008E77B9CF80913802813209F074CFD1
:1020600080913C0290913D02892B09F06DCF8091C7
:10207000E800877F8093E8000E945E0480913A0226
:1020800080930A010E94770F5FCF809138028132DE
:1020900009F05ACF8091E800877F8093E8000E9482
:1020A0005E0480913B0280932B024ECF80913802D8
:1020B000813A09F049CF8091E800877F8093E8005A
:1020C0008091E80080FFFCCF80912B02BECF80384A
:1020D00099F0823809F076C080913C028F70873089
:1020E00008F070C08093E9008091EB0085FB8827A1
:1020F00080F91092E90006C0809135029091360275
:10210000911182609091E800977F9093E80080930E
:10211000F1001092F1008091E8008E77C5C188230C
:1021200009F4B2C1823009F04DC080913A028111A8
:10213000B6C180913C028F702FEF280F263008F037
:1021400041C08093E9002091EB0020FFA8C19330AB
:1021500031F48091EB0080628093EB00A0C19091FC
:10216000EB0090619093EB0021E030E001C0220F82
:102170008A95EAF72093EA001092EA008091EB003A
:102180008860EACF81111EC010913A021F778091BA
:10219000E3008078812B8093E3008091E800877FC3
:1021A0008093E8000E945E048091E80080FFFCCFED
:1021B0008091E30080688093E30082E0111183E066
:1021C000809340028091E80083FF0AC08091E8007C
:1021D000877F8093E8008091EB0080628093EB0022
:1021E000AA960FB6F894DEBF0FBECDBFDF91CF9198
:1021F0001F9108958058823028F720913A0230913B
:102200003B022C3DE3E03E07A1F583E08A838AE2AE
:1022100089834FB7F894DE01139620E03EE051E247
:10222000E32FF0E050935700E49120FF03C0E295C4
:10223000EF703F5FEF708E2F90E0EA30C0F0C796EE
:102240008D939D932F5F243159F74FBF8091E80004
:10225000877F8093E8006AE270E0CE0101960E94D9
:1022600010058091E8008B778093E800ABCFC09693
:10227000E7CF80913C0290913D02432F5527433098
:10228000510509F44AC078F54130510509F485C07B
:102290008BE790E0E6EAF4E04230510509F092CF96
:1022A0002091E800277F2093E80020913E023091A2
:1022B0003F028217930708F49C0140E02115310585
:1022C00009F070C041116EC08091E80082FDC9CF55
:1022D00080914002882329F2853019F28091E8002C
:1022E00083FFF2CFBECF4132510509F447C04232DD
:1022F000510509F067CF8430910508F063CFFC01E8
:10230000EE0FFF1FEF59FE4F0190F081E02D835A31
:102310009E4FDC018C9190E01DC0332721303105A8
:10232000E9F02115310579F022303105F9F023303B
:10233000310509F047CFE3E3F5E0E4918E2F90E01B
:10234000E3E3F5E007C0E5E8F5E0E4918E2F90E0E7
:10235000E5E8F5E0009709F435CFA2CFEDE6F5E02A
:10236000E4918E2F90E0EDE6F5E0F4CFE1E5F5E0C5
:10237000E4918E2F90E0E1E5F5E0ECCF843091051B
:1023800008F020CF880F991FFC01E759FE4F0190FC
:10239000F081E02D89E090E083CF82E190E0E1E2FE
:1023A000F5E07ECF80914002882309F45ACF853032
:1023B00009F457CF8091E80083FD53CF8091E80066
:1023C00082FD82CF8091E80080FF78CF9091F3006A
:1023D0008091F2002115310519F08830910550F0F7
:1023E00041E0089709F040E08091E8008E77809303
:1023F000E80064CF44914093F100319621503109B7
:102400000196E8CF803809F0DDCE8091E800877F23
:102410008093E800809137028093F1007CCE811197
:10242000D1CE10913A02123008F0CCCE8091E80063
:10243000877F8093E800109337020E945E04112387
:1024400011F084E005C08091E30087FDFACF81E0C0
:102450008093400242E061EC81E00E947D0442E210
:1024600061EC84E00E947D0442E261EC82E00E9423
:102470007D0442E260EC83E00E947D0442E261EC74
:1024800085E00E947D049ECE80913A02813009F061
:1024900099CE81E0933009F080E08093360210926B
:1024A000E9008091E800877F8093E8000E945E0445
:1024B00089CE8823B1F19CEF980F913A70F4E6E74A
:1024C000F1E09191891303C0DF0111971C9291E013
:1024D000EC37F907B1F70C94C90590E2980F9830E2
:1024E00050F4877091E001C0990F8A95EAF7892F1F
:1024F0000E94C205F0CF9BE5980F933020F490E046
:1025000080E00C94B90698E5980F973120F490E09C
:1025100080E00C94A306803F20F00E94DB060C9420
:10252000090E0895CF93C82F882309F456C08CEF65
:102530008C0F813AF8F4E6E7F1E08CE791E0DF01F7
:102540002D91C21759F08A179B07D1F76C2F84E79A
:1025500091E00E949D05CF910C94C9052191C21371
:1025600003C0DF0111971C928E179F07B9F70E94D5
:10257000C905ECCF80E28C0F883068F4C77021E089
:1025800030E001C0220FCA95EAF78091F501822B55
:102590008093F501E0CFEBE5EC0FE33040F4F0E0A1
:1025A000ED5EFE4F808190E0CF910C94B906E8E596
:1025B000EC0FE73150F4F0E0EE0FFF1FEA5EFE4F44
:1025C00080819181CF910C94A306C03F30F08C2F75
:1025D0000E94A007CF910C94090ECF9108951F93EC
:1025E000CF93DF93182FCAE0D0E0893311F4C0E510
:1025F000D0E0812F0E9492128FE99FE00197F1F7BE
:1026000000C000002197C1F7812FDF91CF911F916A
:102610000C9459120F931F93CF93DF93C62FD42F8F
:10262000022FFC0182818823A1F0609347020E945F
:1026300091059093460280934502C77081E001C0E6
:10264000880FCA95EAF7DF91CF911F910F910C94F3
:10265000990680914702681335C080914502909198
:1026600046020E948205883C910560F510E21D0F2C
:10267000CD17B9F080E28C0F883040F4C77081E04C
:1026800001C0880FCA95EAF70E949206183048F4F4
:1026900081E09D2F977001C0880F9A95EAF70E94FC
:1026A0009906802F0E94EF12183098F4D77081E0BD
:1026B00001C0880FDA95EAF7DF91CF911F910F9152
:1026C0000C949206C77081E001C0880FCA95EAF7A2
:1026D000F3CFDF91CF911F910F910895AF92BF92E9
:1026E000CF92DF92EF92FF920F931F93CF93DF93DE
:1026F000EC018AE0A82E2881222309F48CC0213025
:10270000C9F599818A81913021F422960E94EF12B5
:1027100005C0923029F422960E9492122196EBCFA6
:10272000933021F422960E945912F8CF943011F080
:102730002196F4CF229630E020E0AE014F5F5F4F4C
:102740008053990B8A30910550F02150310930F3B4
:102750008FE99FE00197F1F700C00000F6CFA29E3D
:10276000B001A39E700D11249C01260F371F898193
:10277000EA01E3CFE22FF0E0EF51FE4FB490822F59
:1027800086958695869590E0FC01EF52FE4FE49089
:102790002770F12C022E02C0F594E7940A94E2F718
:1027A00031E0E322FF24FC01EF53FE4FC490D12C13
:1027B000022E02C0D594C7940A94E2F731E0C322F6
:1027C000DD24FC01EF54FE4F049110E002C015958A
:1027D00007952A95E2F701701127E114F10419F029
:1027E00081EE0E949212C114D10419F086EE0E946B
:1027F00092128B2D0E94EF12CD2819F086EE0E94C6
:102800005912EF2819F081EE0E945912012B09F498
:1028100085CF8CE27BCFDF91CF911F910F91FF90FD
:10282000EF90DF90CF90BF90AF9008956AEE7EEF6B
:1028300090E080E00E94D72960E082E090E00E9472
:10284000B92960E083E090E00E94B929109241022A
:1028500010924202109243021092440260E084E01F
:1028600090E00E94B92960E082E290E00E94B929DC
:1028700060E085E090E00E94B92960E086E090E0A9
:102880000E94B9296FEF87E090E00E94B92940E0EB
:1028900050E0BA0188E090E00E94CB2960E08DE032
:1028A00090E00E94B92940E050E0BA0188E190E050
:1028B0000E94CB2960E087E190E00E94B92940E0C6
:1028C00050E0BA018CE190E00E94CB2970E060E01A
:1028D00080E290E00E94D72940E050E0BA0188E110
:1028E00090E00E94CB2940E050E0BA018FE090E0F8
:1028F0000E94CB2940E050E0BA0183E190E00C94C3
:10290000CB292F923F924F925F926F927F928F923C
:102910009F92AF92BF92CF92DF92EF92FF920F936E
:102920001F93CF93DF9300D000D000D00F92CDB78C
:10293000DEB73C01DC0113968D919C911497892B95
:1029400039F08C9111969C9189238F3F09F0C4C76F
:1029500027960FB6F894DEBF0FBECDBFDF91CF91A3
:102960001F910F91FF90EF90DF90CF90BF90AF90AD
:102970009F908F907F906F905F904F903F902F909F
:1029800008950E94A40C182F682F89819A810E94B3
:10299000420669817A81812F0E94FE0AFC018150E2
:1029A00095454F018F3F910510F4B5E59B26D30166
:1029B00012968C91882309F4C8C2BFEF8B1691043C
:1029C000F9F0F0F00AE280160DE5900621F0109281
:1029D000A5014F015EC08091A50191E089278093F8
:1029E000A5018091F201877009F4B2CFD30112964C
:1029F0008C91882309F4ACCF82E00E941A0FA8CFF3
:102A00008091A501882309F435C11092A50110EC2D
:102A10008116910408F086C020E88216910408F01F
:102A2000F3C030E48316910408F0B8C021E030E030
:102A300040E050E060E070E080E090E0082D0E940F
:102A40006529E09185012E2BE09186013E2BE091D6
:102A500087014E2BE09188015E2BE09189016E2B5E
:102A6000E0918A017E2BE0918B018E2BE0918C010D
:102A70009E2B2093850130938601409387015093CC
:102A800088016093890170938A0180938B019093F0
:102A90008C01C40182519F45409708F0F0C68FEF2A
:102AA00093E00E94AB290EEE080D47EDE42EF12CC9
:102AB000811197CF0111D3C219821A821B821C8205
:102AC0000FEF57018FEFA81AB80AC7010E94AB2970
:102AD00089831A82882309F484CF813009F0F6C2F1
:102AE000670192E0C90ED11CC5010E94AB29B82E26
:102AF0008A83882309F475CFC6010E94AB29182F59
:102B00008FEF8B0D833008F0B9C26701A3E0CA0EC6
:102B1000D11C1B83112321F0CE0101960E946E135C
:102B20007601CFCF4FEF8416910411F008F07ECFDD
:102B300021E030E040E050E060E070E080E090E0D4
:102B40008401005C11090E946529E0919D012E2BF2
:102B5000E0919E013E2BE0919F014E2BE091A00160
:102B60005E2BE091A1016E2BE091A2017E2BE09102
:102B7000A3018E2BE091A4019E2B20939D01309305
:102B80009E0140939F015093A0016093A101709317
:102B9000A2018093A3019093A4017BCF21E030E0B8
:102BA00040E050E060E070E080E090E0840100549C
:102BB00011090E946529E0918D012E2BE0918E0173
:102BC0003E2BE0918F014E2BE09190015E2BE09126
:102BD00091016E2BE09192017E2BE09193018E2B5F
:102BE000E09194019E2B20938D0130938E014093B0
:102BF0008F015093900160939101709392018093A3
:102C000093019093940145CF21E030E040E050E003
:102C100060E070E080E090E08401005811090E94BB
:102C20006529E09195012E2BE09196013E2BE091D4
:102C300097014E2BE09198015E2BE09199016E2B4C
:102C4000E0919A017E2BE0919B018E2BE0919C01FB
:102C50009E2B2093950130939601409397015093BA
:102C600098016093990170939A0180939B019093CE
:102C70009C010FCF50E48516910408F06EC0A0911E
:102C80008501B09186015090870140908801309075
:102C9000890120908A0180918B018E8390918C0113
:102CA0009F8321E030E040E050E060E070E080E0B1
:102CB00090E0082D0E946529A22EAA22B32EBB22E5
:102CC000C42EC520D52ED420E62EE320F72EF220E8
:102CD0000E8108231F8119230E947E2909F079CED5
:102CE00090EC8916910408F09AC0E0E88E169104E1
:102CF00008F0FBC0F0E48F16910408F0C6C021E094
:102D000030E040E050E060E070E080E090E0082DCE
:102D10000E94652920953095409550956095709555
:102D2000809590952A233B234521542163217221CC
:102D3000AE818A23BF819B23209385013093860136
:102D400040938701509388016093890170938A01B1
:102D500080938B0190938C0144CEA0E88A16910455
:102D6000F0F4A0918D01B0918E0150908F014090B0
:102D700090013090910120909201009193010E8377
:102D8000109194011F8321E030E040E050E060E0CA
:102D900070E080E090E08401005411098BCF20ECBA
:102DA00082169104F0F4A0919501B0919601509093
:102DB0009701409098013090990120909A013091AC
:102DC0009B013E8340919C014F8321E030E040E035
:102DD00050E060E070E080E090E08401005811096C
:102DE00069CFA0919D01B0919E0150909F014090AC
:102DF000A0013090A1012090A2015091A3015E8317
:102E00008091A4018F8321E030E040E050E060E059
:102E100070E080E090E08401005C11094BCF0FEF7F
:102E20008016910411F008F06ACF8401005C11094A
:102E300021E030E040E050E060E070E080E090E0D1
:102E40000E94652920953095409550956095709524
:102E5000809590952A233B2345215421632172219B
:102E6000EE818E23FF819F2320939D0130939E014D
:102E700040939F015093A0016093A1017093A20120
:102E80008093A3019093A401ACCD84010054110957
:102E900021E030E040E050E060E070E080E090E071
:102EA0000E946529209530954095509560957095C4
:102EB000809590952A233B2345215421632172213B
:102EC000EE818E23FF819F2320938D0130938E010D
:102ED00040938F0150939001609391017093920100
:102EE00080939301909394017CCD84010058110943
:102EF00021E030E040E050E060E070E080E090E011
:102F00000E94652920953095409550956095709563
:102F1000809590952A233B234521542163217221DA
:102F2000AE818A23BF819B23209395013093960124
:102F300040939701509398016093990170939A017F
:102F400080939B0190939C014CCD0FEF80169104D0
:102F500009F068F510E481169104A8F5A0908501A8
:102F6000B0908601C0908701D0908801E0908901DF
:102F7000F0908A01A0918B01B0918C0121E030E0AA
:102F800040E050E060E070E080E090E0082D0E94BA
:102F90006529A222B322C422D522E622F7220A2FD3
:102FA00008231B2F19230E947E2909F41ACDE03132
:102FB000BFE5FB0709F494C0E1310FE5F00709F024
:102FC0006AC582E08EC020E882169104E0F4A090E9
:102FD0008D01B0908E01C0908F01D0909001E09053
:102FE0009101F0909201A0919301B091940184011C
:102FF0000054110921E030E040E050E060E070E072
:1030000080E090E0C4CF30EC83169104A0F4A0904F
:103010009501B0909601C0909701D0909801E090F2
:103020009901F0909A01A0919B01B0919C018401BB
:1030300000581109DFCFA0909D01B0909E01C09073
:103040009F01D090A001E090A101F090A201A09179
:10305000A301B091A4018401005C1109CBCFE1145C
:1030600044E0F40609F4BDCCC7010E94AB298111EC
:1030700001C001505FEFE51AF50A1CCDB4E0BB12A8
:103080004FCD6701E4E0CE0ED11CC70103960E942C
:10309000AB29112309F4A5CC882309F4A2CC8150D3
:1030A000990B089F9001099F300D1124412F415029
:1030B000550BCA01820F931F019708F431CDAFE978
:1030C000BFE01197F1F700C00000F6CFCE010196E6
:1030D0000E946E13650124CD81E00E94360F03C06B
:1030E00081E00E94F70E0E94DB0E7BCC82E0F5CFE0
:1030F00027E245EE65EEECC326E241EE60EEE8C362
:1031000027E245EE64EEE4C326E241EE62EEE0C360
:1031100028E241E0EFCF8091FA018061A6E08A16B3
:10312000ACE59A0609F4A2C08091FA018860B7E084
:103130008B16BCE59B0608F499C08091FA01806269
:1031400095C08091FA018D7FECE08E16ECE59E062D
:1031500009F48CC078F48091FA018C600AE0801642
:103160000CE5900609F482C008F48FC08091FA0142
:103170008E7F7CC08091FA01877F2EE082162CE53D
:10318000920609F473C08091FA018B7F3FE08316A9
:103190003CE5930608F46AC08091FA018F7E66C010
:1031A0004BEF84164CE5940609F467C068F583E19B
:1031B00088168CE5980609F476C090F4A1E18A1689
:1031C000ACE59A0609F46BC0B2E18B16BCE59B0630
:1031D00009F050C40E94770F8091FA018F7746C0A2
:1031E000E5E18E16ECE59E0609F465C008F479C0A9
:1031F0008091FB0181600AEF80160CE5900609F0D2
:1032000039C48093FB0136C41FEF81161CE591067B
:1032100009F44DC0A0F48091FB018D7F3DEF831632
:103220003CE5930671F38091FB018E7F4EEF84168F
:103230004CE5940630F38091FB018360E2CF51E0CE
:1032400085165DE5950609F455C008F440C060E0B8
:1032500092E089169DE5990609F00CC48EE090E095
:103260000E94B92907C48091FA0181608093FA0114
:1032700001C48091FA018460F9CF8091FB018260E2
:10328000C0CF8091FA018064F1CF0E94770F8091C6
:10329000FA018068EBCF8091FA018F7DE7CF8091B2
:1032A000FA018F7BE3CF8091FA01837FDFCF80919A
:1032B000FB018C7FA6CF8091FA0182FB992790F9C0
:1032C00021E0922790FB82F990FB83F9CFCF809188
:1032D000FB01982F909591708E7F892B90FB81F93F
:1032E00090CF0E94770F9091FA01892F97FB87F971
:1032F0008058BCCF61E0B2CFA6E18A16ACE59A0651
:1033000009F0FDC28091F5018A7A91E009F490E01C
:103310009093A60169E2811165E384E791E00E9440
:103320009D050E94C9055DCB85E3D3C30E94770F3D
:103330002E9829982B98EFEFF4E30CE0E150F04041
:103340000040E1F700C000000E94710581E0FDC26D
:1033500080E0FBC2C8010E941406F82E07C3E12FCB
:10336000EF70FE2E107F19F0F29490EFF922DD201D
:10337000C9F0FF2069F080E2800F883010F0A110C2
:103380000BC08091F501F82AF092F5010E94C90561
:10339000802F0E94921215C08091F401F82AF092B9
:1033A000F401F4CF802F0E945912FF2051F0005EEB
:1033B000083010F0A11027C08F2D0E94C2050E9476
:1033C000C905AB2DA850BB0B149720F40E94CF0663
:1033D0000E946208CC2009F4BBCA8091F20180FDF2
:1033E000B7CAF30112828595859585950E94360F9F
:1033F000C3010E9481148091F20185958595859580
:103400000E94F70EA5CAF0948091F401F822F09280
:10341000F401D5CFF12FFF70FF2E107F103219F07D
:10342000F29480EFF822AA2099F011E0A11609F495
:1034300053C0DD2009F45CC0EE2091F1D301159654
:103440008C91159780FFA4CF8F7015968C9328C010
:10345000DD2051F1E11004C08091F8018F2921C0D5
:1034600021E0E21213C08091FB0182FDAACF80917E
:10347000F801F82AF81609F4A4CF0E949105909358
:10348000F7018093F601F092F8019BCF35E0E3124B
:10349000E3CF0E94B7058091EF01F812F092EF019F
:1034A0008F2D0E9499068DCFE11006C00E94B705AE
:1034B0008F2D0E94920685CF41E0E41208C08091D2
:1034C000F5018F2109F47DCF0E940E06EFCF55E064
:1034D000E51609F476CFEACFDD2029F082E08E15DB
:1034E00008F46FCFDDCF91E09E1508F46ACFE0CFEE
:1034F000EE20F1F2B9E3AB12BAC1EFEFF7EE13E051
:10350000E150F0401040E1F700C00000802F0E9421
:10351000591257CF812F86958695837061F081303F
:1035200009F04FCFC8019370D11002C090E080E045
:103530000E94A30646CFC8019370D11002C090E04C
:1035400080E00E94B9063DCF802FDD2039F00E9437
:10355000A0070E94090E0E94090E33CF0E94DB06CD
:10356000FACF812F837009F067C0D1102ACF202FA6
:10357000229526952770220F220F802F8F7090E0C2
:10358000B0E0A0E0022E04C0880F991FAA1FBB1F45
:103590000A94D2F740E050E0BA0104FF0FC04FE0B8
:1035A00050E060E070E004C0440F551F661F771FB5
:1035B0002A95D2F74095509560957095E12FE69544
:1035C000E695E370E23029F1D8F4009141021091C0
:1035D00042022091430230914402E13069F0842B91
:1035E000952BA62BB72BBC01CD0160237123822321
:1035F00093230E946D0FE5CE802B912BA22BB32B32
:103600008C019D01042B152B262B372BC901B801EA
:10361000F0CF842B952BA62BB72B00914102109154
:1036200042022091430230914402BC01CD01602747
:10363000712782279327DDCF8695DD2011F0812F1A
:103640008170882309F4BDCE202F229526952770FE
:10365000220F220F802F8F7090E0B0E0A0E0022EAA
:1036600004C0880F991FAA1FBB1F0A94D2F740E01D
:1036700050E0BA0104FF0FC04FE050E060E070E09E
:1036800004C0440F551F661F771F2A95D2F7409537
:10369000509560957095E12FE695E695E370E230E0
:1036A00029F1D8F4009148021091490220914A0270
:1036B00030914B02E13069F0842B952BA62BB72B70
:1036C000BC01CD0160237123822393230E94CF0E7E
:1036D00078CE802B912BA22BB32B8C019D01042B38
:1036E000152B262B372BC901B801F0CF842B952B36
:1036F000A62BB72B009148021091490220914A0253
:1037000030914B02BC01CD0160277127822793279E
:10371000DDCF1F70DD2029F0812F0E94360F802F12
:10372000C0CE802F0E949206812F0E94F70E49CEB4
:10373000802F22EFA21609F455C02A1578F030EF39
:10374000A31641F141EFA41609F444C0DD2009F4A9
:1037500082C0E1101DCE812F8F7141C053EFA5169D
:1037600009F445C094EFA912F1CF8091EF01DD205B
:1037700009F45DC00E94C2058091F2018770843017
:1037800009F048C00E940706812F8F710E94F70E32
:10379000C12C17CEDD20C9F0A1E0AE1508F411CE82
:1037A0001F7161E070E080E090E004C0660F771F59
:1037B000881F991F1A95D2F700914802109149026B
:1037C00020914A0230914B029FCFB2E0BE1508F41F
:1037D000F8CDE6CF812F8F71DD2009F4A6CF0E94AE
:1037E000360FEFCD812F8F71DD20C9F39ECF60E0C2
:1037F00070E0CB01DD2009F469CF1F7161E070E05A
:1038000080E090E004C0660F771F881F991F1A950B
:10381000D2F75CCFE4E0EE1508F4BACF1F71812F28
:103820000E94360F63E0812F0E94570FB1CF909115
:10383000F501982B9093F501F4E0FE1540F40E94F9
:1038400007060E940E0664E0812F8F71EDCF81E0A4
:103850000E941A0F9DCFEE2079F0893341F41FEFBB
:1038600027EE33E0115020403040E1F74DCE8FE39A
:103870009CE90197F1F748CE812F8F7156CFF0E187
:103880008F16FFE59F0609F427CC01E180160FE5AE
:10389000900609F42BCCA3EF8A16ACE59A0609F43E
:1038A0002BCC08F099C0E8ED8E16ECE59E0609F4E5
:1038B0001FCCF9ED8F16FCE59F0609F429CC07ED26
:1038C00080160CE5900609F095C026E241EE61EE07
:1038D000C3010E940A1385C885E0F301DE01119639
:1038E00001900D928A95E1F7D30112962C9189816E
:1038F0009A81211146C80E941406182F4AC82AE549
:1039000082162DE5920609F421CD68F481144CE568
:10391000940609F40BCD5EED85165CE59506B9F4C9
:103920000E9416145EC88BE588168DE5980609F48A
:103930000FCD9CE589169DE5990649F48091FB0120
:1039400082FB882780F991E089270E94140DF301FA
:10395000828100811181882309F4FCCCC8010E9476
:10396000A40CF82E682FC8010E944206B8018F2DC2
:103970000E941A0B8C01A82ED3011296DC9012978C
:103980001596EC90E2943FE0E3228091F20187707B
:10399000A1F0CD2CDD2091F0812F807F803421F0AB
:1039A00080E2800F883048F082E00E941A0F8091F8
:1039B000F2018770CC24C3948111C12CB12EB29432
:1039C0002FE0B222BBE0BB1508F4FBCCEB2DF0E0FE
:1039D000E95FF54D0C94582915EF81161CE5910609
:1039E00009F492CB08F48CCB36EF83163CE59306B2
:1039F00009F487C010924702E2E08E16ECE59E06BD
:103A000008F47ACCF6E18F16FCE59F0630F0C4018D
:103A10008A5F9C45099708F06FCC0E94980A9093A2
:103A2000FB018093FA0100E180160CE5900609F491
:103A300032CC08F0B5CB28E082162CE5920609F4CA
:103A400020CC08F07ECB44E084164CE5940609F4C3
:103A500010CC08F060CB82E088168CE5980609F45B
:103A600002CC8091FA01826093E089169CE5990668
:103A700009F4FCCB6091FA011091FB0184E090E025
:103A80000E94B929612F82E290E00E94B9290E9428
:103A9000770F0C94F114E33F4CE5F40709F42CCBB9
:103AA00028F5E83D8CE5F80709F422CBE93D9CE5D3
:103AB000F90709F42DCBE73DACE5FA0709F405CF8A
:103AC000E631FC4509F043CF8091A60181112CCC51
:103AD00089E2E6E7F1E09191891303C0DF011197D4
:103AE0001C92B1E0EC37FB07B1F71BCCE53FBCE51E
:103AF000FB0709F409CB08F403CBE63F1CE5F1070B
:103B0000F9F627E245EE66EEE3CE1F93CF93DF93FF
:103B10008091AD01807FA9F48091AA01882389F06A
:103B20008091DF01D091AE016091A8017091A9014F
:103B3000A091AB01B091AC01C62FC72316E0D813FA
:103B400004C0DF91CF911F91089590E0109711F07C
:103B5000CF3F19F401968770F2CF189F9001199FFB
:103B6000300D1124F901E155FE4F41814713F2CF89
:103B700040814613EFCF42814111ECCF4381548104
:103B80004A1B5B0B483C510528F78091AD018F70B3
:103B900080618093AD01F901EC54FE4F80818F70FC
:103BA0008061808388EA91E00E948114DF91CF9147
:103BB0001F910C947306AF92BF92CF92DF92EF9257
:103BC000FF920F931F93CF93DF93CDB7DEB761972B
:103BD0000FB6F894DEBF0FBECDBF8C0185E0F801B3
:103BE000DE011D9601900D928A95E1F7F801808122
:103BF0009181E28028EAA22E21E0B22E6091AB01F1
:103C00007091AC016115710509F43EC13091A801B4
:103C10004091A901232F24232F3F09F435C1C380EC
:103C2000D480F090AA01F601E61BF70BFF2009F4FF
:103C3000FBC02091AD01522F507FE83CF10508F008
:103C4000BBC0511178C0FE2C491321C038131FC0CE
:103C5000E1101DC02F7020612093AD01C5010E94AD
:103C600081148091AD01F80185838F2D61960FB687
:103C7000F894DEBF0FBECDBFDF91CF911F910F91A2
:103C8000FF90EF90DF90CF90BF90AF900895CD2838
:103C900029F0282F29232F3F09F014C120E0F22F0B
:103CA000F170DF2E20FF3DC02091DF014091AE0179
:103CB00056E0241315C08D879E878D859E850E94B2
:103CC000E60C292F22952F702230F8F0243020F5B1
:103CD0009F70F9F0F8019581907FD9F4D12C1FC025
:103CE00030E0529FF001539FF00D1124E155FE4F3B
:103CF0006181961306C06081861303C06281E6125B
:103D000010C02F5F3F4F2770D4CF9F7011F08823D2
:103D100029F3805E883010F3C8010E948114FD2CC5
:103D2000A4CFEE2009F4A1CF8091AD0181608093F2
:103D3000AD01F12C9ACF491312C0381310C0E11015
:103D40000EC0F8012583C8010E94811486E0F801A5
:103D5000A8EAB1E001900D928A95E1F786CF8D87B0
:103D60009E878D859E850E94F00C882309F1EE20A8
:103D7000F9F08091AD01803270F02091A80130916E
:103D8000A90138872F831986DB86CA868C87CE01E6
:103D900007960E94811486E0F801A8EAB1E001903C
:103DA0000D928A95E1F70E94851DFF24F3945DCF63
:103DB000C8010E948114F9CF51110AC088EA91E02C
:103DC0000E94811486E0F50111928A95E9F7B1CF3E
:103DD00049130FC038130DC0E1100BC0F801258343
:103DE000C8010E94811486E0F50111928A95E9F7D5
:103DF0003CCF8D879E878D859E850E94F00C882301
:103E0000B9F2EE20A9F28091AD01803220F220912A
:103E1000A8013091A9013A8329831B82DD82CC82DB
:103E20008E83CE010196B5CFE83CF105E0F6FE2C7D
:103E3000EE2009F4BDCF491316C0381314C0809189
:103E4000AD0180FD83CF982F907F09F47FCFF801DB
:103E50008583903F09F477CF982F907F905F8F7084
:103E6000892B858370CF8D879E878D859E850E9447
:103E7000F00C811190CF8091AD0181608093AD01F4
:103E8000C8010E948114F1CEEE2009F491CF8D87F4
:103E90009E878D859E850E94F00CF82E882309F45C
:103EA00087CF86E0F801A8EAB1E001900D928A95EB
:103EB000E1F78091A8019091A9010E94E60C0E946F
:103EC000851DD3CE21E02E25EACE1F93CF93DF931D
:103ED000CDB7DEB767970FB6F894DEBF0FBECDBF84
:103EE000342F4B8B252F5C8B6D8B7E8B8F8B8E892C
:103EF0009F8961111092F4011A8A198A3D872E87D1
:103F00006F87998B888B0E9491052091F0013091E9
:103F1000F101821B930B8838934120F08091F201CC
:103F200082FF7FC00E9491052091F6013091F70138
:103F3000821B930B8838934110F00E94B70586E0EE
:103F4000FE013D96DE01179601900D928A95E1F7EC
:103F5000CE0107960E94DB1D882389F016E0809130
:103F6000DF019091AE01891349C067960FB6F894AE
:103F7000DEBF0FBECDBFDF91CF911F91089586E0C8
:103F8000FE013796DE01119601900D928A95E1F7B8
:103F90008A859B85892B11F388859F8189238F3F93
:103FA000E9F22091AE0130E0C901019687709927AE
:103FB0004091DF014817190671F40E94770F1092A3
:103FC000AE011092DF0186E0E8EAF1E0DF011D9228
:103FD0008A95E9F7C3CF96E0929FD001939FB00DE9
:103FE0001124A155BE4FFE01319601900D929A9574
:103FF000E1F78093AE010E947306B0CF819FC001AC
:10400000112481559E4F0E94DB1D882309F4ADCFFA
:104010008091DF0190E00196877099278093DF01FE
:104020009ECF82E00E941A0F7DCF0F931F93CF93F4
:10403000DF9300D000D00F92CDB7DEB78C01909304
:10404000800180937F01011580E21807D8F4802F4A
:104050000E945912C801805E9109089728F06DE707
:1040600076E00115110511F462E976E0C8010F90C0
:104070000F900F900F900F90DF91CF911F910F91A4
:104080000C9480088EEF89838A831B820E9491059D
:104090008160782F9D838C8349815A816B818D81CA
:1040A0000F900F900F900F900F90DF91CF911F9175
:1040B0000F910C94651F0F931F93CF93DF9300D044
:1040C00000D00F92CDB7DEB78C0190938001809322
:1040D0007F01011580E21807D8F4C801805E9109BC
:1040E000089728F068E876E00115110511F469E9F0
:1040F00076E0C8010E948008802F0F900F900F90EB
:104100000F900F90DF91CF911F910F910C9492120D
:104110008EEF89838A8381E08B830E949105816081
:10412000782F9D838C8349815A816B818D810F907B
:104130000F900F900F900F90DF91CF911F910F91E3
:104140000C94651FBF92CF92DF92EF92FF920F9374
:104150001F93CF93DF93B82EC0904802D0904902AE
:10416000E0904A02F0904B0280914102909142020D
:10417000A0914302B0914402C82AD92AEA2AFB2A14
:10418000CFE1D0E0D701C6010C2E04C0B695A795AB
:10419000979587950A94D2F780FF1FC04B2D60E05A
:1041A0008C2F0E94A60A8C0181309105B1F00E94EB
:1041B0005B208FE39CE90197F1F700C00000C80184
:1041C0000E94152081E0DF91CF911F910F91FF9008
:1041D000EF90DF90CF90BF900895219798F64B2DE8
:1041E00060E080E00E94A60AEC010E945B208FE361
:1041F0009CE90197F1F700C00000CE01E1CF1F92CA
:104200000F920FB60F9211242F933F934F935F930A
:104210006F937F938F939F93AF93BF93CF93DF93CE
:10422000EF93FF93D091E900DF708091EC00C82FED
:10423000C17080FDC0E81092E9008091F000877F96
:104240008093F00078940E94820F1092E900809190
:10425000F00088608093F000CD2BCF70C093E90010
:10426000FF91EF91DF91CF91BF91AF919F918F918E
:104270007F916F915F914F913F912F910F900FBE62
:104280000F901F9018951F920F920FB60F92112446
:104290002F933F934F935F936F937F938F939F934E
:1042A000AF93BF93EF93FF938091E10082FF15C01E
:1042B0008091E20082FF11C08091E1008B7F8093AA
:1042C000E100209129022F5F822F62E30E943829AA
:1042D000992309F4BEC0209329028091DA0080FF5F
:1042E00028C08091D80080FF24C08091DA008E7FA2
:1042F0008093DA008091D90080FFE1C080E189BD20
:1043000082E189BD09B400FEFDCF81E080934002C7
:1043100082E994E00E941A0380912A02811109C067
:104320000E94BC030E94AF048091E20084608093ED
:10433000E2008091E10080FF1BC08091E20080FFDD
:1043400017C08091E2008E7F8093E2008091E200AE
:1043500080618093E2008091D80080628093D800D1
:1043600019BC85E0809340028AE994E00E941A0318
:104370008091E10084FF2DC08091E20084FF29C07C
:1043800080E189BD82E189BD89B5982F917080FF58
:10439000FBCF8091D8008F7D8093D8008091E10081
:1043A0008F7E8093E1008091E2008F7E8093E20017
:1043B0008091E20081608093E2008091370288233F
:1043C00009F487C084E0809340028EE994E00E9463
:1043D0001A038091E10083FF2BC08091E20083FFEC
:1043E00027C08091E100877F8093E10082E0809385
:1043F0004002109237028091E1008E7F8093E100AD
:104400008091E2008E7F8093E2008091E2008061E3
:104410008093E20042E060E080E00E947D048091B1
:10442000F00088608093F00082EA94E00E941A0312
:10443000FF91EF91BF91AF919F918F917F916F917C
:104440005F914F913F912F910F900FBE0F901F9052
:1044500018951092290280912802882309F43DCFF3
:10446000809140028430C1F49091E9009F702091C6
:10447000EC00822F817020FD80E8892B95E09093DD
:10448000E9009091EB0090FF04C09091EE0097FD41
:1044900008C08F708093E900109228021ECF1092FE
:1044A000F1009091E80095FDFACF9091E80090FF1F
:1044B000F0CF9091E8009E779093E800EACF19BC86
:1044C0001092400286E994E00E941A0310922A0298
:1044D00030CF8091E30087FD93E09093400275CF49
:1044E000CDB7DEB7E4970FB6F894DEBF0FBECDBFF1
:1044F00084B7877F84BF0FB6F894A8958091600039
:10450000886180936000109260000FBE80E890E0A8
:104510000FB6F89480936100909361000FBE85B749
:10452000806885BF85B7806885BF85E199E09093F5
:10453000730180937201269A219A239A0E94BC03E8
:104540000E94AF048091E20084608093E20078943E
:10455000809140028823A1F01091E9001F70909192
:10456000EC00892F817090FD80E8182B1092E900F3
:104570008091E80083FD0E94820F1F701093E90074
:1045800082E084BD93E095BD9AEF97BD80936E0065
:1045900084EF0E94080885EF0E94080886EF0E94B9
:1045A000080887EF0E94080886E60E94080887E945
:1045B0000E94080886EC0E94080884E30E9408080C
:1045C00085E30E9408081092FC0110921C021092D0
:1045D000FD0110921D021092FE0110921E02109217
:1045E000FF0110921F0290E080E00E94B3298A3EF2
:1045F0009E4F11F00E94161482E090E00E94AB29B9
:10460000809313020E94980A9093FB018093FA0111
:104610000E94FF098FE39CE90197F1F700C00000B9
:104620000E94FF0980911F0280FF17C06FEF83E295
:1046300090E00E94B9296FEF84E290E00E94B929CE
:104640006FEF85E290E00E94B9296FEF7FEF90E075
:1046500080E00E94D7290E94710583E090E00E94CB
:10466000AB29682F70E090E080E00E946D0F6091B0
:1046700048027091490280914A0290914B020E9437
:10468000B7082E9A299A2B9A9FEFE7EEF3E0915004
:10469000E040F040E1F700C000002E9829982B98E8
:1046A0002FEF37EE43E0215030404040E1F700C0AB
:1046B00000002E9A299A2B9A8FEF97EEE3E0815013
:1046C0009040E040E1F700C000002E9829982B9818
:1046D00083E290E00E94AB298B3109F053C584E25C
:1046E00090E00E94AB298C3D09F04CC585E290E03A
:1046F0000E94AB29853C09F045C522982A9A549816
:104700005C9A83B182FB882780F94C9966C090E05F
:10471000892B8093050280E091E0909301028093C1
:10472000000281E894E00E941A038CE192E0F4E038
:10473000F80FFCAB80914002853099F48DE794E04E
:104740000E941A03F0E4FF2E00E112E18091400282
:10475000853009F444C00E94770F0E94CF060E9462
:1047600062080E94FF09882359F08FB7F89440919E
:1047700020025091210260912202709123028FBF8A
:1047800064E1662E62E0762E7CE1C72E72E0D72EC1
:1047900010E000E0EDE5AE2EE3E0BE2E0BABF6013F
:1047A00051906F01F30141903F01451052C00F5FDE
:1047B0001F4F0430110591F78FEF8EA78FA718AA0E
:1047C0000E9491058160782F9AAB89AB4EA55FA5B9
:1047D00068A98AA90E94651F62C092E099CF809162
:1047E0004002843031F180E00E946208109202029F
:1047F00028E130E00FB6F894A895209360000FBE32
:10480000F092600083B7817F846083BF83B781604B
:1048100083BF7894889583B78E7F83BF0FB6F89453
:10482000A89580916000886180936000109260007C
:104830000FBE80913602882309F488CF0E94FF09B9
:10484000ECE1F2E08191811187C43CA93E13FACFDB
:104850007DCF8091130281FD82C1452480E0FF2439
:10486000F394942D9F2109F4ACC189A74BA94AA7C1
:104870005F2081E009F480E08BA70E9491058160B0
:10488000782F9DA78CA749A55AA56BA58DA50E9439
:10489000651FF801EC5EFD4F8081F826F082E09103
:1048A0000502EE0FEE0FE093050283B182FB222496
:1048B00020F84C998CC180E08229E82BE093050216
:1048C000EF70F0E0E35BFE4F808190910402890F6E
:1048D0008093040220E084304CF0809103028F5FCB
:1048E0008093030281E00E94A22021E080910402D3
:1048F0008D3F4CF48091030281508093030280E04D
:104900000E94A22021E080910402082E000C990B45
:1049100064E070E00E94442980930402222359F04D
:104920008FB7F894409120025091210260912202A9
:10493000709123028FBF86E0ECE0F2E08E010F5F02
:104940001F4FD80101900D928A95E1F7D0900E0289
:10495000C0900F02F0901002E090110210920E022F
:1049600010920F0210921002109211028D2D8C29BC
:1049700009F448C080910A0290910B020E948205BE
:104980009C0190910902992309F422C42333310533
:10499000C8F19F3F19F09F5F90930902DD2059F005
:1049A0000E9480079FEF1D140CF491E0899F802DD9
:1049B000112480930E02CC2059F00E9480079FEFB3
:1049C0001C140CF491E0899F802D112480930F0218
:1049D00030910E023323B1F020910F02222391F087
:1049E00045EB3403C0011124992309F4F3C09093DB
:1049F0000E0245EB240390011124332309F4EEC089
:104A000030930F028F2D8E2909F448C08091070240
:104A1000909108020E9482059C01909106029923C0
:104A200009F4D1C325363105C8F19F3F19F09F5FC6
:104A300090930602FF2059F00E945E079FEF1F141B
:104A40000CF491E0899F802D112480931002EE20B8
:104A500059F00E945E079FEF1E140CF491E0899FAD
:104A6000802D112480931102309110023323B1F074
:104A700020911102222391F045EB3403C00111244F
:104A8000992309F4AFC09093100245EB24039001E1
:104A90001124332309F4AAC03093110280910E022D
:104AA00090910F02892B90911002892B9091110205
:104AB000892B11F00E94090E86E0F801ACE0B2E00B
:104AC00001900D928A95E1F70E94CF069091120213
:104AD000891731F00E94CF06809312020E9462086B
:104AE00080914002843009F025CE83E08093E90074
:104AF0008091E80082FF1ECE8091E80090E085FF63
:104B00000AC00E94DB0340E2E42EF12C68018823F6
:104B100009F47AC091E08091E8008B778093E800F7
:104B2000992309F407CEE0902602F09027028981AC
:104B3000E114F10409F476C08E3F09F000C18A81C6
:104B4000833020F08550833008F0F9C0EA81EE30E0
:104B500008F0F5C0F0E0ED5EF54D0C9458298AE6BA
:104B600093E00E941A035CE1852E52E0952EF12C11
:104B7000E12CFF92EF9225E633E03F932F930E94C2
:104B8000B30382E693E00E941A03F40181914F017E
:104B90000E9468081F928F93BF92AF920E94B30346
:104BA0008BE593E00E941A03FFEFEF1AFF0A0FB69E
:104BB000F894DEBF0FBECDBF34E0E316F104C9F6B2
:104BC0004CCE8F5FFF0C853009F04BCEF0CD82E0EC
:104BD00090E072CE81E080930E020BCF81E0809353
:104BE0000F0210CF81E0809310024FCF81E08093BD
:104BF000110254CF8091F100F60181936F01F1E031
:104C0000EF1AF10809F486CF8091E80085FDF2CF14
:104C10008091E8008B778093E8000E94DB03882373
:104C200099F378CF8C3009F4C9C050F5843009F479
:104C3000ACC058F4823009F468C008F097C08130E5
:104C400009F45FC08FEF89837AC0863009F4B3C05E
:104C500008F4A6C08B30B1F7809124029091250210
:104C6000892B09F46CC0C8010E9436043FEF41EE65
:104C700084E0315040408040E1F700C00000EBCCC0
:104C8000803109F4CBC088F58E3009F49EC008F459
:104C900098C08091240290912502892B09F44FC07D
:104CA000EC80F12C3DE1E316F10408F048C0CA8025
:104CB000DB80DC24CD24DC245801E00EF11EC6018B
:104CC00089529F4FEA14FB04D1F149E2C41643E034
:104CD000D40620F4F50164810E94B929FFEFAF1AD0
:104CE000BF0A2FEFC21AD20AEACF823109F49BC061
:104CF00008F497C0833109F4BDC08E3F09F0A2CFFC
:104D000025CF1A8289E08B831AC08A81823009F408
:104D100052C28330C1F0813009F094CF2FB7F8949C
:104D200060912002709121028091220290912302D1
:104D30002FBF0E945E296B837C838D839E83C80175
:104D40000E943604F7CC8091240290912502892B91
:104D5000B1F380911C028B8380911D028C83809122
:104D60001E028D8380911F028E83E9CF8A8182305B
:104D700009F068CF6B817C818D819E810E945E29C4
:104D800086E290E00E94B929DACF4C816B818A815A
:104D90000E94CF0A9827892798279E838D83CFCF9B
:104DA0002D813E813227232732274C816B818A81D6
:104DB0000E946F0DC4CF0E94A40DC1CF80E18A83F1
:104DC000BECF83E08A8389E29ECFEC80F12C2DE177
:104DD000E216F10408F0B3CFCA80DB80DC24CD24D6
:104DE000DC245801E00EF11EC60189529F4FEA14DF
:104DF000FB0409F4A4CF39E2C31633E0D30658F418
:104E00000E94AB29F5018483FFEFCF1ADF0A2FEF51
:104E1000A21AB20AE9CFF5011482F6CF0E942E0D34
:104E20008ECF84E0CCCFEC80F12C3DE1E316F10491
:104E300008F085CFCA80DB80DC24CD24DC24580137
:104E4000E00EF11EC6018796EA14FB0409F477CF41
:104E500040EAC416D10458F40E94AB29F5018483BA
:104E6000FFEFCF1ADF0A2FEFA21AB20AEBCFF5013C
:104E70001482F6CFCC80D12C3DE1C316D10408F0CA
:104E80005ECFEA80FB80FE24EF24FE2440EAE41695
:104E9000F10408F054CF80EA90E08E199F098C1538
:104EA0009D0508F44CCF370187E2680E711C809194
:104EB000240290912502892BB9F5570191E0A9228E
:104EC000BB24E0FE0DC0C70186960E94AB299D81E0
:104ED00089279827892781159C4511F48FEF8D83A9
:104EE000C7018C0D9D1D460180FF17C0F1E08F1A90
:104EF000910835E0432E512C4C0E5D1E480C591C78
:104F0000C3018C0D9D1D0E94AB29F201908181157A
:104F10009C4519F48FEFF2018083F801EA0DFB1D27
:104F20002FEFA814B90420F05801C00ED11E1AC0EA
:104F30009481858181159C4511F42483258342E069
:104F4000A40EB11C3296EDCFE0EAEE16F10420F487
:104F5000F50164810E94B929FFEFAF1ABF0A2FEF54
:104F6000E21AF20AC7018796AC14BD0469F7E7CECE
:104F700088E0EBE0F1E0DE01919601900D928A95D8
:104F8000E1F780E2F80111928A95E9F784E08983DC
:104F900088E0FE01B196DE01159601900D928A958A
:104FA000E1F7CDCE84E0898381E08A831B821C8275
:104FB000C6CE8C81682F70E0762F66278B81860F96
:104FC000972F911D092E000CAA0BBB0B25E0880F13
:104FD000991FAA1FBB1F2A95D1F7AC01BD01405EE6
:104FE0005F4F6F4F7F4F481759076A077B0708F4D9
:104FF000A6CE8430F1E09F07A105B10508F09FCE51
:10500000453021E052076105710520F044E051E090
:1050100060E070E0481B590BBC0167587C4FC80129
:105020000E949B298CCEFB80EC8040E06E2D8F2D62
:105030000E94A60A9827892798279A83898341E0A6
:105040006E2D8F2D0E94A60A9827892798279C836A
:105050008B8375CE2E813F813227232732274D81C6
:105060006C818B810E943E0D6ACE4AE150E06FEF69
:1050700070E0CE0107960E94A429809124028983C2
:10508000EA821B8283E08C831D8284E06DCE81E006
:1050900090E0909327028093260282E390E0909321
:1050A0001B0280931A020E9491059093190280932B
:1050B000180245CEEF2851F1F0901C0280911802A1
:1050C000909119020E9482058536910540F1F3FE08
:1050D00026C0F4FE24C00E9491059093190280938B
:1050E000180280911A0290911B02019790931B0263
:1050F00080931A02892B51F41092270210922602F3
:1051000081E090E090932502809324028091240214
:105110008983809126028A8380911A02F4CD82E3EA
:1051200090E090931B0280931A02F0CF1092250218
:105130001092240204CE40E250E06FEF70E0C8010C
:105140000E94A429FCCD8B818111F9CD80E2F80168
:1051500011928A95E9F7F3CD09BD19BD09B400FE96
:10516000FDCF8091D8008F7D8093D8008091E000A2
:1051700082608093E0008091E00081FDFCCF0E947E
:10518000770FE4CA60E086E290E00E94B9290E94AD
:10519000A40D0E942E0D6BE183E290E00E94B929DC
:1051A0006CED84E290E00E94B92965EC85E290E024
:1051B0000E94B929A2CA86E290E00E94AB291B8214
:1051C0001C821D82D1CD2D32314008F030CC66CC0E
:1051D0002D32314008F0DFCB15CC78941F921FB6EA
:1051E0001F9211248F939F93AF93BF9380912002BE
:1051F00090912102A0912202B09123020196A11D5B
:10520000B11D8093200290932102A0932202B093BB
:105210002302BF91AF919F918F911F901FBE1F904E
:1052200018951F921FB61F9211248F939F93AF93CF
:10523000BF9380910202811113C08091200290914E
:105240002102A0912202B09123024196A11DB11D1D
:105250008093200290932102A0932202B093230214
:10526000BF91AF919F918F911F901FBE1F90189576
:10527000991B79E004C0991F961708F0961B881FA8
:105280007A95C9F78095089597FB072E16F4009438
:1052900007D077FD09D00E94872907FC05D03EF48E
:1052A000909581959F4F0895709561957F4F0895D2
:1052B000EE0FFF1F0590F491E02D099469279627C2
:1052C00069277827872778270895002E083090F0DF
:1052D000982F872F762F652F542F432F322F222779
:1052E0000850F4CF220F331F441F551F661F771F2E
:1052F000881F991F0A95B2F7002D08952A153B05BE
:105300004C055D056E057F05800791070895AA1B72
:10531000BB1B51E107C0AA1FBB1FA617B70710F0A0
:10532000A61BB70B881F991F5A95A9F780959095D2
:10533000BC01CD010895FB01DC0102C005900D9276
:1053400041505040D8F70895DC0101C06D934150A1
:105350005040E0F70895F999FECF92BD81BDF89ACB
:10536000992780B50895A8E1B0E042E050E00C94A0
:10537000DF29262FF999FECF92BD81BDF89A0197BA
:1053800000B4021639F01FBA20BD0FB6F894FA9A8D
:10539000F99A0FBE08950396272F0E94BA290E94FA
:1053A000B929252F0E94BA29242F0C94BA290196D5
:1053B000272F0E94BA290C94B929DC01CB01FC01EA
:1053C000F999FECF06C0F2BDE1BDF89A319600B45E
:1053D0000D9241505040B8F70895F894FFCFFF0C5C
:1053E000FF0C080D080D0A0D080D080D080DFF0C27
:1053F000FF0C0F0D080D080D0F0D67108F10E21038
:105400008F10E210C210FA10E21002120F12AF1940
:10541000AF190A1A0A1A8A1AA41AE119E119B11A5B
:10542000891B981B981BB827D227D92713282A280D
:10543000352847285A2896289B289F269F269F264E
:02544000A3289F
:105442006E05D209B109AD09A90901B2D7BF7930F8
:10545200920507818283E200E900EA00B500B60006
:10546200B700CD008301CC008A0192019401210290
:10547200230224022502260227022A02B300B400D4
:105482006F007000F4F5F6F76697C6343500FF0139
:1054920000010000FFFF0000010001FF0040228127
:1054A2002271014F01CE00AC00B804D104F1040A0C
:0254B2000500F3
:00000001FF
